:020000040000FA
:10000000680400206D02000071020000730200000D
:100010007502000077020000790200000000000075
:100020000000000000000000000000007B02000053
:100030007D020000000000007F020000810200003D
:10004000830200008302000083020000830200009C
:10005000830200008302000083020000830200008C
:10006000830200008302000083020000830200007C
:10007000830200008302000083020000830200006C
:10008000830200008302000083020000830200005C
:10009000830200008302000083020000830200004C
:1000A000830200008302000083020000830200003C
:1000B0008302000083020000CD06000083020000DE
:1000C000830200008302000083020000830200001C
:1000D000830200008302000083020000830200000C
:1000E00083020000830200008302000083020000FC
:1000F00083020000830200008302000083020000EC
:1001000083020000830200008302000083020000DB
:1001100083020000830200008302000083020000CB
:1001200083020000830200008302000083020000BB
:1001300083020000830200008302000083020000AB
:1001400000000000000000000000000000000000AF
:10015000830200008302000083020000830200008B
:10016000000000000000000000000000000000008F
:10017000000000000000000000000000000000007F
:10018000000000000000000000000000000000006F
:10019000000000000000000000000000000000005F
:1001A000000000000000000000000000000000004F
:1001B000830200008302000083020000830200002B
:1001C000830200008302000083020000830200001B
:1001D000830200008302000083020000830200000B
:1001E00083020000830200008302000083020000FB
:1001F00083020000830200008302000083020000EB
:10020000830200008302000083020000000000005F
:1002100083020000830200008302000083020000CA
:1002200083020000830200008302000083020000BA
:1002300083020000830200008302000083020000AA
:10024000830200008302000083020000830200009A
:10025000830200008302000083020000830200008A
:1002600083020000830200008302000000F00AB84D
:10027000FEE7FEE7FEE7FEE7FEE7FEE7FEE7FEE756
:10028000FEE7FEE700F002F800F042F814A696E858
:10029000000CB244B344DA4501D100F039F8BAE8B1
:1002A0000F000FA696E83000A5EB040504EB060747
:1002B000AAEB0704A7F101074FEA15154FEA34141A
:1002C000A4F10104AC4201D300F022F813F0010FB5
:1002D00018BFFB1A43F0010300F001F8DBE71847F1
:1002E000F4200000042100007047000000230024D7
:1002F00000250026103A28BF78C1FBD8520728BF36
:1003000030C148BF0B6070471FB51FBD10B510BD91
:1003100000F03CF81146FFF7F7FF00F099FC00F001
:100320005AF803B4FFF7F2FF03BC00F05DF80000D9
:1003300072B6704762B67047EFF3108072B67047BE
:1003400080F31088704730BF704702480249014A65
:10035000024B7047680000206804002068000020FD
:1003600070477047704710B500F008F8006810BD7E
:1003700010B5044600F002F8046010BD0048704754
:100380000000002000487047000000207546FFF77D
:10039000F9FFAE4605006946534620F00700854642
:1003A00018B020B5FFF7D1FFBDE820404FF00006A0
:1003B0004FF000074FF000084FF0000BAC46ACE8E0
:1003C000C009ACE8C009ACE8C009ACE8C00921F03C
:1003D00007018D46704710B50446AFF300802046F4
:1003E000BDE81040FFF79DBF01491820ABBEFEE7F6
:1003F00026000200704700004EF20810C4F20F0001
:1004000000688007002814D4FFE74EF20811C4F2F8
:100410000F01086840F002000860FFE74EF2081084
:10042000C4F20F0000688007002801D4FFE7F5E759
:10043000FFE745F22851C4F20001086820F03C00B3
:10044000086045F22041C4F20001086820F03C0039
:10045000086045F22C51C4F2000108686FF31720C0
:10046000086045F20041C4F20001086840F03C0019
:10047000086045F21C51C4F20001086840F03C00DD
:100480000860704780B582B000210091084600F0F6
:1004900049F948F20801C4F202010191086840F0EC
:1004A0000300086045F2F001C4F200012820086052
:1004B0004FF4FA504FF4486100F034F94FF07E5099
:1004C00000F00CF80099084600F02CF90199086832
:1004D00020F00300086002B080BD000080B582B04B
:1004E00001904FF6B000C0F23C000090019801F07E
:1004F00065FC00220023C3F6D07301F085F801F0FB
:100500000DFA0146009848430090FFE7009820B19B
:10051000FFE7009801380090F8E702B080BD0000C6
:1005200080B58CB045F2F001C4F2000128200860CB
:1005300000210691084600F0F5F8069848F20802F6
:10054000C4F20202116841F0030111600B90FFE751
:100550000B984FF07E5101F071FC00284ED1FFE75F
:100560000B9801F02BFC4DF2F142C5F2C83242F279
:10057000FB13C4F2190301F029FA00F013FF002263
:1005800003920023C3F6F07300F08EFF039A00235A
:10059000C3F6E07301F01AFA00F054FF0A904FF02E
:1005A0007E5009900A980021C4F27A61049101F00A
:1005B0001FFD01F099FC04990590099801F018FDC0
:1005C00001F092FC0146059800F0ACF84DF20A707B
:1005D000C3F62340FFF782FFFFE70B9801F0EEFB25
:1005E00041F27B42C4F2AE7247F6E123C3F6847354
:1005F00000F05AFF00F026FF0B90A9E700200B90B7
:10060000FFE70B984FF07E5101F018FC00284ED107
:10061000FFE74FF07E5008900B9801F0CFFB4DF2B2
:10062000F142C5F2C83242F2FB13C4F2190301F0E1
:10063000CDF900F0B7FE002200920023C3F6F0735C
:1006400000F032FF009A0023C3F6E07301F0BEF918
:1006500000F0F8FE079008980021C4F27A61019139
:1006600001F0C6FC01F040FC01990290079801F0EE
:10067000BFFC01F039FC0146029800F053F84DF23E
:100680000A70C3F62340FFF729FFFFE70B9801F03C
:1006900095FB41F27B42C4F2AE7247F6E123C3F60A
:1006A000847300F001FF00F0CDFE0B90A9E700215C
:1006B000084600F037F848F20801C4F20201086861
:1006C00020F0030008600CB080BD000081B0002065
:1006D0000090FFE7009843F67F01C0F201018842D5
:1006E00005D8FFE7FFE7009801300090F2E745F2F8
:1006F0001440C4F202000068C00600280FD5FFE7CE
:1007000045F21C41C4F202011020086040F2600171
:10071000C2F20001087880F001000870FFE701B024
:100720007047000081B0ADF80200ADF80010BDF8D0
:100730000200013848F25801C4F202010860BDF815
:100740000000013848F25C01C4F20201086001B007
:10075000704700004EF20810C4F20F0000688007D6
:10076000002814D4FFE74EF20811C4F20F01086804
:1007700040F002000860FFE74EF20810C4F20F00DC
:1007800000688007002801D4FFE7F5E7FFE745F29E
:100790002041C4F20001086840F0C000086045F242
:1007A0002C51C4F20001086820F07F4008600868FE
:1007B00040F08840086045F21C51C4F2000108680E
:1007C00040F0C00008604EF24061C4F20F010868BA
:1007D00040F0010008604EF26001C4F20F010868A9
:1007E00020F4F010086048F24001C4F20201002039
:1007F000086048F26003C4F202031A6842F0C802BB
:100800001A6048F26403C4F202031A6840F6084C06
:1008100042EA0C021A6048F25003C4F2020343F6A3
:100820007F621A6048F25802C4F20202106048F275
:100830005C02C4F202021060086840F00100086027
:1008400048F20801C4F20201086820F003000860C1
:10085000704700004EF20811C4F20F01086840F022
:1008600020000860FFE74EF20811C4F20F0108688B
:1008700000F02000086008B9FFE7F4E745F22051D6
:10088000C4F2020144F24B30C4F64F40086045F216
:100890002451C4F20201086840F01F00086045F2CC
:1008A0000041C4F20201086840F00E0008600868C8
:1008B00020F01100086045F22041C4F202010868EE
:1008C00020F01F00086045F21C51C4F202010868C4
:1008D00040F01F00086045F22C51C4F20201086884
:1008E0006FF31300086045F22851C4F20201086852
:1008F00020F01F00086045F21051C4F202010868A0
:1009000040F01100086045F20441C4F20201086899
:1009100020F01100086045F20841C4F202010868A5
:1009200020F01100086045F20C41C4F20201086891
:1009300040F01100086045F21C41C4F20201112090
:10094000086045F21041C4F20201086840F011004D
:1009500008604EF21C41CEF200010868042262F3E6
:10096000575008604EF20011CEF20001086840F0C6
:10097000804008607047000080B584B048F20801EC
:10098000C4F20201086840F0030008604FF46151AE
:100990000846FFF7C7FE00200390FFE703980328EF
:1009A00017DCFFE745F2F001C4F2000101912820B5
:1009B00008604FF07E500290FFF790FD019A029878
:1009C00018211160FFF78AFDFFE7039801300390BB
:1009D000E4E700210846FFF7A5FE48F20801C4F24B
:1009E0000201086820F00300086004B080BD000028
:1009F00081B08DF80300FFE74CF21800C4F200004C
:100A000000688006002801D5FFE7F5E79DF80300A0
:100A10004CF20001C4F20001086001B07047000010
:100A200080B582B00190FFE70198007840B1FFE700
:100A300001980078FFF7DCFF019801300190F3E79F
:100A400002B080BDFFE74DF21800C4F2000000685C
:100A5000C006002801D5FFE7F5E74DF20000C4F21B
:100A600000000068C0B2704780B54EF20412C4F2B4
:100A70000F02106840F0020010604EF20811C4F23C
:100A80000F01086840F002000860106840F00100A3
:100A90001060086840F0010008604CF2300EC4F2AB
:100AA000000EDEF8000020F00100CEF800004CF24D
:100AB0002400C4F20000112202604CF22800C4F2AB
:100AC00000004FF0170CC0F800C04CF22C01C4F22B
:100AD000000170200860DEF8001040F20133194375
:100AE000CEF8001044F2204EC4F2000EDEF80010E2
:100AF00041F00301CEF8001044F21C5EC4F2000E77
:100B0000DEF8001041F00301CEF8001044F22C5E34
:100B1000C4F2000EDEF8001062F30701CEF80010F8
:100B200044F2285EC4F2000EDEF8001021F003014A
:100B3000CEF800104DF23001C4F20001D1F800E00F
:100B40002EF0010EC1F800E04DF2240EC4F2000EAA
:100B5000CEF800204DF2280EC4F2000ECEF800C0F0
:100B60004DF22C0CC4F2000CCCF8000008681843BD
:100B7000086045F22041C4F20001086840F003001B
:100B8000086045F21C51C4F20001086840F00300FF
:100B9000086045F22C51C4F20001086862F30700B6
:100BA000086045F22851C4F20001086820F00300F3
:100BB000086080BD80B582B048F20801C4F202012D
:100BC000086840F0030008604FF461510846FFF7E1
:100BD000A9FD00200190FFE70198032829DCFFE729
:100BE00045F2F001C4F20001282008604FF07E5069
:100BF000FFF774FC019800EBD07121F00101401A5D
:100C000038B1FFE745F2F001C4F200011820086096
:100C100006E045F2F001C4F2000124200860FFE77D
:100C20004FF07E50FFF75AFCFFE70198013001902A
:100C3000D2E700210846FFF775FD48F20801C4F22B
:100C40000201086820F00300086002B080BD0000C7
:100C500080B584B0002001900390FFF705FFFFF7F7
:100C6000F9FD42F2A030C0F20000FFF7D9FEFFF715
:100C7000C3FBFFF76FFD01990846FFF753FDFFE740
:100C8000FFF7E0FE8DF80B009DF80B00FFF7B0FEBC
:100C90000D20FFF7ADFE0A20FFF7AAFE40F260002C
:100CA000C2F200000078002840F03C80FFE79DF889
:100CB0000B00383801460091422800F2318000993B
:100CC000DFE801F0222E2E2E2E2E2E2E2E2E2E2559
:100CD0002E2E2E2E2E2E2E2E2E2E2E2E2E2E2E283A
:100CE0002E2E2E2E2E2E2B2E2E2E2E2E2E2E2E2530
:100CF0002E2E2E2E2E2E2E2E2E2E2E2E2E2E2E281A
:100D00002E2E2E2E2E2E2B00FFF70AFC09E0FFF7C9
:100D1000B9FB06E0FFF730FE03E0FFF74BFF00E012
:100D2000FFE709E040F26000C2F20000007801280D
:100D300001D1FFE7FFE7FFE7A2E7490050EAC12042
:100D400018BF04204A0D18BF40F0010040F2FF72A6
:100D5000B2EB515F08BF40F00200012808BF052038
:100D6000704700002DE9F74F144694B00021C4E904
:100D700002111599079121F00045C9498D4206DC01
:100D80001599C4E9000117B00020BDE8F08FC549EE
:100D9000DFF814A3A9423CDD0799C44E0029C44FD3
:100DA000C44A1599534619DD00F01AFF554506D07F
:100DB000C14AC24B00F014FFC4E900010AE04FF041
:100DC000D352BE4B00F00CFF32463B4600F008FF0A
:100DD000C4E9000117B00120BDE8F08F00F064FB0A
:100DE000554506D0B44AB54B00F05EFBC4E900019E
:100DF0000AE04FF0D352B14B00F056FB32463B466F
:100E000000F052FBC4E9000117B04FF0FF30BDE81D
:100E1000F08FAB49A942159978DB21F00041834658
:100E20008846A84AA84B00F0D1FD0022A74B00F04D
:100E30003BFB00F043FD099000F09DFD06460F4688
:100E40009C4A534600F0C2FD43465A4600F0BCFEA1
:100E500080468A46984A994B3046394600F0B6FD9E
:100E60002A0D01250B924246534600F0ADFE032D9C
:100E7000C4E9000139D00B98C1F30A51401A05EBBF
:100E800045111139814230DA9148C346784400EB6C
:100E90000510CDF80CA00C90D0E90023304639465F
:100EA00000F094FD02460B460491069058460399C3
:100EB00000F096FE80468A4602460B465846039945
:100EC00000F08EFE049B069A00F08AFE83460C9882
:100ED00003913946D0E90223304600F077FD5A46A7
:100EE000039B00F07DFE6D1CBDE707980028A2BFA4
:100EF000099817B0BDE8F08F616881F0004161602A
:100F0000099817B04042BDE8F08FFFE78446159876
:100F1000C1F31301C0F30A50A0F2F5304FEA601894
:100F200000F01F06C6F120001390002006900790E5
:100F300041F4801E05206D4676B1664A08EB00013B
:100F40007A4452F8213002EB8101B3404A68139988
:100F500022FA01F1194305E05F4908EB00027944E8
:100F600051F82210A1FB0E27A1FB0C131A449A4240
:100F700034BF0123002303EB070A05EB8003D3E909
:100F800001B70F448F4234BF0121002193448B44A9
:100F900011B1934502D903E0934501D2012100E04C
:100FA0000021C3E901B7514445F82010011EA0F10A
:100FB0000100C1DC0298059F00F10050800F1290E3
:100FC0000298DDE90356800000F0D5FC83462846F0
:100FD0000D9100F0E7FC6FF01D0201F007F9CDE97B
:100FE0000E01304600F0DEFC6FF03D0201F0FEF82D
:100FF00080468A46384600F0D5FC6FF05D0201F06D
:10100000F5F8074642465346119100F04DFADDE9E6
:101010000E2300F049FA5A460D9B00F045FA0025D0
:101020000E465A4628460D9B00F0DAFDDDE90E23F8
:1010300000F0D6FD4246534600F0D2FD3A46119BE1
:1010400000F0C2FDDFF898A0244A534600F0BEFC31
:1010500007468846234A244B3146284600F0B6FC12
:101060003A46434600F020FA074688464FF0A84229
:1010700053463146284600F0A9FC3A46434600F064
:1010800013FA159A12F0004F04D0129A81F0004121
:1010900052421292C4E90001129817B0BDE8F08FD5
:1010A000FB21E93F7CD90240FB21F93F7370032EFD
:1010B0008A19A33B000040543163621A61B4D03DE9
:1010C000FB21394183C8C96D305FE43F0000E03F38
:1010D000181400009413000076130000182D4454D7
:1010E000FB21F93D3326A611460B113C2DE9FF4D9E
:1010F00021F0004807460C46B8F1795F08DA00F0A5
:10110000DDFB002801BF0020324904B0BDE8F08DAE
:101110003A4623461046194600F058FC054602465A
:101120002D480E460B460621784400F05DF82A460D
:10113000334600F04BFCDDE9022382468B463846FD
:10114000214600F043FC04460F4652465B462846C3
:10115000314600F03BFC22463B4600F041FD07468D
:101160008A464FF0FF322846314601F03FF81B4ACD
:1011700090450ADA3A46534600F032FD04B00022A8
:10118000BDE8F04D134B00F01FBD154A4245A8BF06
:10119000A8F500154FF00004B8BF124D22462B46AB
:1011A00000F01EFD0646884622462B4600200949CF
:1011B00000F016FD04460D463A4653463046414679
:1011C00000F00EFD04B022462B46BDE8F04D00F0C5
:1011D000FBBC00000000F03F4C1100003333D33F54
:1011E0000000E93F0000D23F2DE9F0414F1E00EB27
:1011F000C7010446D1E9000115461E4637F0060234
:101200000DD02A46334600F0E1FB7F1E04EBC703F6
:10121000D3E9002300F048F937F00602F1D1022F9C
:1012200025D0042F13D0062F18BFBDE8F0812A4621
:10123000334600F0CBFBD4E90A2300F035F92A4607
:10124000334600F0C3FBD4E9082300F02DF92A4609
:10125000334600F0BBFBD4E9062300F025F92A460B
:10126000334600F0B3FBD4E9042300F01DF92A460D
:10127000334600F0ABFBD4E9022300F015F92A460F
:10128000334600F0A3FBD4E90023BDE8F04100F0B1
:101290000BB900002DE9FF4D054621F0004084B058
:1012A0000C46B0F1795F0BDA2846FFF746FD0428BB
:1012B00008BF00F06FF8284608B02146BDE8F08D61
:1012C0002A460B46104600F081FB06460F462A468A
:1012D000234600F07BFB804626488A4632463B4642
:1012E00005217844FFF780FF83461098029160B390
:1012F000214A224B4046514600F068FBCDE90001EF
:101300005A4640465146029B00F060FB82468846A2
:10131000DDE906014FF0FF3200F068FF5246434618
:1013200000F05EFC32463B4600F050FBDDE9062350
:1013300000F056FCDDE9002300F052FC08B02A461C
:101340002346BDE8F04D00F03FBC0B465A46304600
:10135000394600F03BFB084A084B00F0A5F842462E
:10136000534600F033FB08B02A462346BDE8F04D53
:1013700000F09AB892100000495555555555C5BF13
:10138000012200F033BF002213461046114600F040
:101390003BB90000024A0020110700F027BF0000FF
:1013A00001FDFFFF00B5254B21F0004287B09A42B6
:1013B00003DC0022134600922BE0214B9A4208D115
:1013C00040B94FF00100FEF7D3FFFFF7DCFF07B095
:1013D00000BD03DBFFF7D4FF07B000BD02AAFFF793
:1013E000C1FC10F003014FF001000DD0012914D011
:1013F00002291AD00DF1080C9CE80F00FFF776FEC9
:1014000007B081F0004100BD0DF1080C00909CE890
:101410000F00FFF73FFF07B000BD0DF1080C9CE87F
:101420000F00FFF763FE07B000BD0DF1080C009040
:101430009CE80F00FFF72EFFE2E70000FB21E93FE9
:101440000000F07F21F0004201F00043A2F1605261
:10145000B2F5801F28BFD2F17F6C0BD95FEA001C68
:1014600043EAC20242EB507018BF704728BF20F019
:1014700001007047B2F5801FBCBF184670474FEAA5
:10148000410C1CF5001F02D2084600F078BE70B572
:1014900000F046FB00000089FFF7F6BF4FF0004068
:1014A000A0F580007047000010B591EA030F48BF17
:1014B00083F0004300F19C83841A71EB030C05D286
:1014C000121943EB0C03001B61EB0C014FEA1154A2
:1014D000A4EB135CDFF81CE11EEA430F18BF9EEA81
:1014E000445F00F0748021EA045123EA0E0343F4C0
:1014F0008013DCF1200E32D322FA0CFE10EB0E002A
:1015000023FA0CFE41EB0E01CCF1200E03FA0EFE85
:1015100010EB0E00CCF1200E51F10001B1F5801F4F
:1015200032D201EB045112FA0EF2BDE8104058BF5E
:101530007047401C38BF5FEA420218BF704700285E
:1015400014BF20F0010041F100014FEA410313F5FF
:10155000001F38BF7047A1F1C04100F02FBB012A26
:1015600043EB0302ACF1200CDCF11F0E32BF4FF055
:10157000000E23FA0CF310EB030041EB0451B4EB23
:10158000115FD0D0A1EB045101F58011490801EBA6
:1015900004515FEA30000ED350F1000038BF12FA58
:1015A0000EFE08D1BDE81040C9E7401C38BF5FEA15
:1015B0004202CAD1C3E7BDE810404FEA410313F528
:1015C000001F38BF7047A1F1C04100F0F7BA9EEA92
:1015D000445F08D011EA5E0FBDE8104004BF01F07F
:1015E000004100207047BDE8104070B500F098FA47
:1015F00064FBBE3E0000E0FF02494FF0000000F037
:10160000C3BD00BF0000F87F2DE9C04130B4DFF852
:10161000A4C23CEA111418BF3CEA131400F0ED8098
:101620001CEA111481EA030544EAD57418BF1CEAC8
:10163000131500F0C880A4EB050404F17F7404F5D1
:1016400000344FF0004545EAC12145EAC32341EA91
:10165000505143EA52534FEAC0204FEAC222994206
:1016600008BF904200F09D804FEA13650FF24416C8
:10167000765D4FEA134506FB05F7C7F1807706FB59
:1016800007F74FEAD737A7FB03687642A7FB06CEDA
:10169000C8F5803838BFA8F1010807FB08E6A6FBAB
:1016A000028C4FF0000EE6FB03CEDCF1000CCEF115
:1016B000004E38BFAEF1010EA6FB0C584FF00007EC
:1016C000E6FB0E87A1FB08C6A0FB07CE16EB0E06B5
:1016D0004FF0000545F10005E1FB076515F1E04E0F
:1016E0007EBFA4F580345FEA46066D4116F180079F
:1016F00045F100054FEA172747EA05674FEA152528
:101700004FEA0666A6F1DE46B6F1805F20D938467C
:1017100005EBC47124F0010C01EB0C11BCF1FE6F60
:1017200002D8F0BCBDE8008124425CBF01F5801EF8
:101730009EEAC47F02D4F0BCBDE80081244200F1DF
:101740003980A1F1C041F0BCBDE8004100F036BADB
:101750004FEAD02040EA41504FEAD1214FEAD2224D
:1017600042EA43524FEAD323A7FB028607FB0366F4
:1017700005FB02661EEA0E0F58BFA6EB0056B6EB3D
:1017800000564FEA520E4EEAC37E18EB0E0E56EB91
:10179000530EBCD518EB02085E417F1C55F10005C5
:1017A000B5E74FF480154FF000074FF000064FF0FB
:1017B0000008ACE701F1C04101F000414FF000002A
:1017C000F0BCBDE800810CEA131511EA0C1F00D033
:1017D0000CE013EA0C1F00F026804FF0000081EAB5
:1017E000030101F00041F0BCBDE80081F0BCBDE8A0
:1017F000004181EA030100F0E1B9F0BCBDE800411D
:1018000070B500F08DF900BF097EFC3E00F007B80E
:101810004FF0000081EA030101F00041704781EAC6
:10182000030100F0CBB9F0BCBDE8004122494FF004
:1018300000007047FFFDFBF9F7F5F4F2F0EEEDEB79
:10184000E9E8E6E4E3E1E0DEDDDBDAD8D7D5D4D3BE
:10185000D1D0CFCDCCCBCAC8C7C6C5C4C2C1C0BF0A
:10186000BEBDBCBBBAB9B8B7B6B5B4B3B2B1B0AF10
:10187000AEADACABAAA9A8A8A7A6A5A4A3A3A2A1F4
:10188000A09F9F9E9D9C9C9B9A99999897979695AF
:1018900095949393929191908F8F8E8E8D8C8C8B4B
:1018A0008B8A8989888887878685858484838382D3
:1018B000828181800000FF070000F87F4FEA41032A
:1018C0004FEA5353A3F58063D3F11E03C8BFD3F18E
:1018D000210C0CDD4FF0004242EAC12242EA505294
:1018E00032FA03FC8CEAE17CACEBE1707047102B20
:1018F000C4BF0020704703F5787CBCF1FF3F04D0E3
:101900006FF0004282EA2100704770B500F008F9DC
:101910004992248000207047F2E700004FEA1153FB
:10192000A3F58063D3F11E03A8BFD3F1200C08DB1D
:101930004FF0004242EAC12252EA505232FA03F01A
:10194000704709420BD4102BC4BF0020704703F529
:10195000787CBCF1FF3F05D04FF0FF3070474FF06F
:101960000000704770B500F0DBF800BF499224809A
:1019700000207047F0E710F0004248BF4042B0FA44
:1019800080F310FA03F10AD0C3F11D0303F580635D
:1019900002EB03524FEA415002EBD12170474FF066
:1019A00000007047B0FA80F310FA03F10AD0C3F1D7
:1019B0001D0303F580634FEA03524FEA415002EBE7
:1019C000D12170474FF000007047000070B5DFF87C
:1019D00048C11CEA111E1EBF1CEA13159EEA0C0F1B
:1019E00095EA0C0F00F06F8081EA03044EEAD47E82
:1019F000AE4421EA4C1123EA4C1341F4801143F424
:101A00008013AEF17F7EA1FB024CA0FB036536196B
:101A100055EB0C05A1FB034C4CF10003A0FB021C91
:101A200016EB0C06654153F10003094218BF46F05E
:101A3000010613F4007F0BD14FEA03314FEA053062
:101A400041EA155140EA165034036FF003020AE0F0
:101A50004FEAC3214FEAC52041EA555140EA5650AA
:101A6000F4026FF0020202EB2E4201EB025585EA0E
:101A7000CE710AD05FEA440C18BF24F0004450F144
:101A8000000041F1000120EAD47040F2FE7C624582
:101A900000D270BDA84214BF4FF080444FF04044C4
:101AA000002E08BF0024BEF1806FA8BFA1F1C04185
:101AB000BDE8704080F2828001F1C04101F0004138
:101AC0004FF0000070470CEA13159EEA0C0F18BF88
:101AD00095EA0C0F06D081EA030E4FF000000EF0DD
:101AE000004170BD00F01CF88900013E00F007B80D
:101AF00000F009B84FEA430C5FEA5C5C08D081EA69
:101B0000030100F05BB84FEA410C5FEA5C5CF6D180
:101B100002494FF0000070470000FF070000F87F07
:101B20000EF1020E2EF0030E5EF8046B364205D461
:101B3000012A43EB030515F5001F12D8012841EBDC
:101B4000010C1CF5001F0CD80ED14FEAD17C0CEB18
:101B50004C0C0CF1020C15F5001F08BF4CEBD37CAC
:101B600004E04FF0080C01E04FEAD37C0CEB4C058D
:101B700026FA05F606F00706B6F1040C06D20EEBBF
:101B8000860CBDE870404CF0010C6047DFE80CF0BB
:101B9000090B02024FF00041A1F500214FF00000B7
:101BA00070BD19461046012851EB010418BFD4F549
:101BB000001484BF002001F0004170BD0808A0F5AA
:101BC00000114FEA3101704710B591EA030F81F01F
:101BD00000413FF571AC83F0004300F009B800000C
:101BE00010B591EA030F48BF83F000433FF564ACA2
:101BF000841A71EB030C07D28CF0004C121943EBE2
:101C00000C03001B61EB0C014FEA1154A4EB135CB5
:101C1000DFF8A4E11EEA430F18BF9EEA445F00F01C
:101C2000B48021EA045123EA6E035242C3EB6E03EF
:101C300038BF5B1EDCF1200E25D322FA0CFE10EB20
:101C40000E0043FA0CFE41EB0E01CCF1200E03FA1C
:101C50000EFE10EB0E00CCF1200E51F1000129D444
:101C600001EB045112FA0EF2BDE8104058BF704764
:101C7000401C1CBFB2F1004F704700280CBF491C2C
:101C800020F00100704712EB020E43EB030218BF75
:101C90004FF0010E4EEA4202ACF1200CDCF11E0EB8
:101CA00056D943FA0CFE10EB0E00CCF11E0E51F18A
:101CB000FF31D5D50EF1010E12FA0EFE404141EB77
:101CC000010101EB445C5FEA5C5C10D901EB04515B
:101CD00010EBDE7038BFBEF1004FBDE8104018BFFA
:101CE000704700280CBF491C20F00100704734D217
:101CF0004FEAD42C24F4006411F500111BD0B1FA82
:101D000081F20B3AA41AA41ED2F12003914030FABA
:101D100003F31943904001EBCC7101EB0451002C0B
:101D2000BDE81040A8BF704701F1C04101F000417B
:101D30004FF000007047B0FA80F310FA03F102D1BF
:101D4000BDE810407047E41A173C4805C90AE2E7AD
:101D500001EB0451BDE81040704749104FEA3000D4
:101D600001EB0451BDE8104002E04FF00001704764
:101D70004A0008BF0042F8D0B2F5001F28BF7047E4
:101D800001F000414FF0000070479EEA445F07D029
:101D900011EA5E0FBDE8104004BF0021002070472B
:101DA000BDE8104070B5FFF7BBFE00BF40DFF63E58
:101DB000104683F0004170470000E0FF43004FEA07
:101DC000D30C4FEA3C0C43401FBF40070CF160515D
:101DD00013F0FE4F70471CF0006F03D10CF0004170
:101DE000002070470CF0004343EA507040EACC00FA
:101DF00010B500F07EF900BF000000924FEA00012C
:101E0000FFF7DCBE4FF00041A1F500214FF00000CC
:101E1000704710B500F034F80CBF0120002010BD51
:101E200010B500F02DF814BF0120002010BD10B532
:101E300000F076F88CBF0120002010BD10B500F036
:101E40006FF82CBF0120002010BD10B500F09CF8E9
:101E500094BF0120002010BD10B500F095F834BFEC
:101E60000120002010BD401058BFC0F14040491073
:101E700058BFC1F140418142EFF30080704700003C
:101E800050EA010C00F113801CF5000F58BFBCF59F
:101E9000000F01D48842704707D710F5000F58BFD4
:101EA00011F5000F15D488427047894270471CF520
:101EB000000F04D5BCF5000FF7D5814270474FF0F5
:101EC000807C1CEB400F38BF1CEB410F01D28142DC
:101ED000704710B500F00DF9922449004FF0005002
:101EE0004FF08051FFF7BFBF41000B0ED3F19E02B0
:101EF00008D950F400034FEA032323FA02F048BF45
:101F00004042704710B500F0F4F800BF49922480B9
:101F1000002070476FF0004282EA20007047000006
:101F200050EA010C00F113801CF5000F58BFBCF5FE
:101F3000000F01D48842704707D710F5000F58BF33
:101F400011F5000F15D488427047894270471CF57F
:101F5000000F04D5BCF5000FF7D5814270474FF054
:101F6000807C1CEB400F38BF1CEB410F01D281423B
:101F7000704710B500F0BDF8922449004FF0805032
:101F80004FF00051FFF76FBF50EA010C00F11380D2
:101F90001CF5000F58BFBCF5000F01D488427047F4
:101FA00007D710F5000F58BF11F5000F15D4884260
:101FB0007047894270471CF5000F04D5BCF5000F2F
:101FC000F7D5814270474FF0807C1CEB400F38BF43
:101FD0001CEB410F01D28142704710B500F089F827
:101FE000922449004FF000504FF08051FFF73BBF63
:101FF0004FF47F0C1CEAD0121EBF1CEAD11392EAE8
:102000000C0F93EA0C0F00F0478090EA010F48BFD5
:1020100042F480724FF0004C4CEA00204CEA01215F
:1020200002EB0302A0FB0113A2F50002002918BF76
:1020300043F001035B0028BF4FEA330342EB224227
:102040005FEA132C4CEBC2502EBFBCEB436FB2F5D2
:102050007C0F70474FEA036CBCF1004F08BF20F0C3
:102060000100B2F57C0F38BF70470BD582F0FF023C
:1020700012F5803FC8BF704700F1C040D8BF00F0E4
:102080000040704700F5000C5FEA4C0C48BF7047F9
:10209000B0F1C04000F073B80CEAD11390EA010F20
:1020A00048BF42F48072624538BF634504D280EA7B
:1020B000010000F00040704710B500F01AF800BFB2
:1020C0008900013E00F007B800F009B85FEA410C52
:1020D0005FEA1C6C08D080EA010000F050B85FEAAB
:1020E000400C5FEA1C6CF6D14FF00040A0F5800078
:1020F00070470EF1020E2EF0030E5EF8044B2442E0
:1021000004D44FEA4102B2F17F4F11D84FEA4003A5
:10211000B3F17F4F0CD80ED14FEAD07C0CEB4C0CB6
:102120000CF1020CB2F17F4F08BF4CEBD17C04E004
:102130004FF0080C01E04FEAD17C0CEB4C0324FA81
:1021400003F404F00704B4F1040C06D20EEB840C83
:10215000BDE810404CF0010C6047DFE80CF00708C8
:1021600002024FF00040A0F5800010BD084642007A
:1021700018BFD2F1807288BF00F0004010BDFF216F
:1021800041EAD050C00570470CF00F03092B08BF7F
:10219000082000F059800A2B0BD0082B18BF70477D
:1021A00008BF1CF0400F0AD04FF000004FF00001B4
:1021B00070471CF0400F18BF4FF0004070471CF0F4
:1021C000100F08D000F07F4220F0704342EAD301A4
:1021D0004FEA4370704700F0604021F07F4242EACE
:1021E000000201F07F4040EA727070474FF0FF0C30
:1021F0004CF4E06C1CEA11531CBF9CEA030C9445A0
:10220000C2BFDA4201EB02517047002B0DD0BCF186
:10221000000F0FD001F00041002AA4BF41F0E041BF
:1022200041F07F614FF00000704701F000414FF036
:102230000000704750EA01334FF09B0C18BF4CF080
:10224000806C7FF4D9A970471CF4801F11D01CF456
:10225000E02F03D06FEACC31490070474FF0405077
:10226000EFF3008222F0704242EA000282F300881B
:1022700070474FF0000070474C5555555555A53FD8
:102280007751C1166CC156BF9015CB19A001FA3E0B
:10229000AD529C804F7E92BEC4B1B4BD9EEE213E35
:1022A000D43888BEE9FAA8BD00004054FB21F93FAC
:1022B0003163621A61B4D03D0000601A61B4D03D50
:1022C0007370032E8A19A33B0000002E8A19A33BCA
:1022D000C14920259A837B390000000000000000DE
:1022E0006E83F9A22915444ED15727FCC0DD34F581
:1022F000999562DB4190433CAB6351FE61C5BBDE07
:102300003A6E24B7E0D24D42EA2E49061C92D1091A
:102310001CEB1DFE3EA729B1F53582E88444BB2E97
:1023200026709CE9417E5FB439D69139F4395383E4
:102330008B5F849C3B28F9BDFF97F81F0F9805DE43
:102340008B112FEF1F6D0A5ACF7E366DB709CB2741
:10235000663F464F2DEA5F9EC7BA27757BF1E5EBD6
:10236000F739073DEA92528AB15FFB6B085D8D1F1A
:102370004630035600000000A6F810111111813FED
:10238000D561C119A0012ABF7DFEB157E31DC73E2B
:10239000EB9C2B8AE6E55ABE7CD5CF5A3AD9E53D6F
:1023A0003E3E3E2057656C636F6D6520746F204222
:1023B0006C7565746F6F746820436F6E74726F6CA8
:1023C0006C6564204C454420417070203C3C3C0AC4
:1023D0000D000000E423000000000020680400005D
:0423E000EC0200000B
:040000050000026D88
:00000001FF
