:020000040000FA
:10000000700400206D020000710200007302000005
:100010007502000077020000790200000000000075
:100020000000000000000000000000007B02000053
:100030007D020000000000007F020000810200003D
:10004000830200008302000083020000830200009C
:10005000830200008302000083020000830200008C
:10006000830200008302000083020000830200007C
:10007000830200008302000083020000830200006C
:10008000830200008302000083020000830200005C
:10009000830200008302000083020000830200004C
:1000A000830200008302000083020000830200003C
:1000B0008302000083020000850500008302000027
:1000C000830200008302000083020000830200001C
:1000D000830200008302000083020000830200000C
:1000E00083020000830200008302000083020000FC
:1000F00083020000830200008302000083020000EC
:1001000083020000830200008302000083020000DB
:1001100083020000830200008302000083020000CB
:1001200083020000830200008302000083020000BB
:1001300083020000830200008302000083020000AB
:1001400000000000000000000000000000000000AF
:10015000830200008302000083020000830200008B
:10016000000000000000000000000000000000008F
:10017000000000000000000000000000000000007F
:10018000000000000000000000000000000000006F
:10019000000000000000000000000000000000005F
:1001A000000000000000000000000000000000004F
:1001B000830200008302000083020000830200002B
:1001C000830200008302000083020000830200001B
:1001D000830200008302000083020000830200000B
:1001E00083020000830200008302000083020000FB
:1001F00083020000830200008302000083020000EB
:10020000830200008302000083020000000000005F
:1002100083020000830200008302000083020000CA
:1002200083020000830200008302000083020000BA
:1002300083020000830200008302000083020000AA
:10024000830200008302000083020000830200009A
:10025000830200008302000083020000830200008A
:1002600083020000830200008302000000F00AB84D
:10027000FEE7FEE7FEE7FEE7FEE7FEE7FEE7FEE756
:10028000FEE7FEE700F002F800F050F814A696E84A
:10029000000CB244B344DA4501D100F047F8BAE8A3
:1002A0000F000FA696E83000A5EB040504EB060747
:1002B000AAEB0704A7F101074FEA15154FEA34141A
:1002C000A4F10104AC4201D300F030F813F0010FA7
:1002D00018BFFB1A43F0010300F001F8DBE71847F1
:1002E000780C0000980C0000103A24BF78C878C140
:1002F000FAD8520724BF30C830C144BF04680C602C
:1003000070470000704700000023002400250026ED
:10031000103A28BF78C1FBD8520728BF30C148BF68
:100320000B6070471FB51FBD10B510BD00F029F858
:100330001146FFF7F7FF00F0ABFC00F047F803B4FD
:10034000FFF7F2FF03BC00F04FF8000072B67047F1
:1003500062B67047EFF3108072B6704780F3108872
:10036000704730BF704702480249014A024B70474C
:10037000700000207004002070000020704770475B
:100380007047754600F02CF8AE46050069465346A6
:1003900020F00700854618B020B5FFF7E4FFBDE860
:1003A00020404FF000064FF000074FF000084FF0DC
:1003B000000BAC46ACE8C009ACE8C009ACE8C00929
:1003C000ACE8C00921F007018D46704710B504461E
:1003D000AFF300802046BDE81040FFF7B0BF00003B
:1003E000004870470800002001491820ABBEFEE716
:1003F000260002007047000080B582B00021009105
:10040000084600F0E9F900F05DFA45F23031C4F237
:100410000001CC20086041F288304FF4FA6100F00E
:10042000DBF900980190FFE70198192807DCFFE746
:1004300000F00EF8FFE7019801300190F4E7002189
:10044000084600F0C9F900F057FA02B080BD00007C
:1004500081B047F25800C0F202000090FFE7009818
:1004600020B1FFE7009801380090F8E701B070472D
:100470004EF20811C4F20F01086840F00200086053
:10048000FFE74EF20810C4F20F00006800F002000F
:10049000022801D0FFE7F4E745F22851C4F2000139
:1004A000086820F0CC00086045F22C51C4F200012D
:1004B00008683FFA80F0086045F20041C4F200018C
:1004C000086840F0CC00086045F22041C4F2000109
:1004D000086820F0CC00086045F21C51C4F200010D
:1004E000086840F0CC0008607047000080B584B018
:1004F00000210191084600F06FF900F0E3F945F2A0
:100500003031C4F20001CC20086041F288304FF451
:10051000FA6100F061F901980390FFE70398192848
:1005200007DCFFE7FFF794FFFFE703980130039034
:10053000F4E700210091084600F04EF900F0DCF9E4
:1005400045F23031C4F20001CC2008604FF4FA606B
:1005500041F2883100F040F900980290FFE70298DC
:10056000192807DCFFE7FFF773FFFFE70298013068
:100570000290F4E70021084600F02EF900F0BCF9E3
:1005800004B080BD81B000200090FFE7009843F6E2
:100590007F01C0F20101884205D8FFE7FFE700981C
:1005A00001300090F2E745F21440C4F20200006806
:1005B000C006002839D5FFE745F21C41C4F202010C
:1005C0001020086040F20000C2F20000007801280C
:1005D00012D1FFE740F20001C2F2000102200870D0
:1005E00040F20102C2F200020021117045F238010E
:1005F000C4F20201086017E040F20001C2F20001FB
:100600000120087040F20101C2F2000100200870D0
:1006100045F23801C4F20201086040F20201C2F260
:10062000000164200880FFE7FFE701B07047000089
:1006300081B04EF27001C4F20F010091086840F0E1
:1006400000400860086840F4006008604EF26002F4
:10065000C4F20F02106820F4F8601060106800F512
:10066000A8601060086820F07000086008680860E2
:10067000086820F400500860086840F08040086076
:100680000868182262F39C500860FFE74EF25000A1
:10069000C4F20F0000684006002801D4FFE7F5E728
:1006A0004EF27001C4F20F01086820F40060086087
:1006B00001B070474EF20811C4F20F01086840F013
:1006C00020000860FFE74EF20811C4F20F0108682D
:1006D00000F02000086008B9FFE7F4E745F2205178
:1006E000C4F2020144F24B30C4F64F40086045F2B8
:1006F0002451C4F20201086840F01F00086045F26E
:100700000041C4F20201086840F00E000860086869
:1007100020F01100086045F22041C4F2020108688F
:1007200020F01F00086045F21C51C4F20201086865
:1007300040F01F00086045F22C51C4F20201086825
:100740006FF31300086045F22851C4F202010868F3
:1007500020F01F00086045F21051C4F20201086841
:1007600040F01100086045F20441C4F2020108683B
:1007700020F01100086045F20841C4F20201086847
:1007800020F01100086045F20C41C4F20201086833
:1007900040F01100086045F21C41C4F20201112032
:1007A000086045F21041C4F20201086840F01100EF
:1007B00008604EF21C41CEF200010868042262F388
:1007C000575008604EF20011CEF20001086840F068
:1007D000804008607047000080B582B0ADF8060028
:1007E000ADF80410BDF8060000F006F8BDF80400EE
:1007F00000F010F802B080BD81B0ADF80200BDF885
:100800000200013848F29801C4F20201086001B008
:100810007047000081B0ADF80200BDF80200013859
:1008200048F29C01C4F20201086001B07047000068
:1008300080B584B000F046F800200390FFE70398ED
:10084000032837DCFFE741F288310846FFF7C4FF91
:1008500045F23031C4F20001CC2008600020029043
:10086000FFE70298092807DCFFE7FFF7F1FDFFE744
:10087000029801300290F4E740F2E2410846FFF7A7
:10088000ABFF45F23031C4F200018C20086000203B
:100890000190FFE70198092807DCFFE7FFF7D8FD83
:1008A000FFE7019801300190F4E7FFE7039801307A
:1008B0000390C4E700210846FFF78EFF00F01CF804
:1008C00004B080BD80B500F00DF800F001F880BDE7
:1008D00048F20801C4F20201086840F00400086010
:1008E0007047000048F20801C4F20201086840F0B5
:1008F000080008607047000080B500F003F800F0C1
:100900000BF880BD48F20801C4F20201086820F02B
:10091000040008607047000048F20801C4F20201B8
:10092000086820F00800086070470000FFE74DF2FB
:100930001800C4F20000006800F0100140F201004D
:10094000C2F20000007810EA111F01D0FFE7EEE7C5
:1009500040F20101C2F20001012008704DF20000D6
:10096000C4F200000068C0B27047000080B54EF2CB
:100970000412C4F20F02106840F0020010604EF240
:100980000811C4F20F01086840F002000860106806
:1009900040F001001060086840F0010008604CF26F
:1009A000300EC4F2000EDEF8000020F00100CEF898
:1009B00000004CF22400C4F20000112202604CF24C
:1009C0002800C4F200004FF0170CC0F800C04CF231
:1009D0002C01C4F2000170200860DEF8001040F223
:1009E00001331943CEF8001044F2204EC4F2000E39
:1009F000DEF8001041F00301CEF8001044F21C5E56
:100A0000C4F2000EDEF8001041F00301CEF8001031
:100A100044F22C5EC4F2000EDEF8001062F307010F
:100A2000CEF8001044F2285EC4F2000EDEF800108A
:100A300021F00301CEF800104DF23001C4F20001A4
:100A4000D1F800E02EF0010EC1F800E04DF2240EC6
:100A5000C4F2000ECEF800204DF2280EC4F2000EB3
:100A6000CEF800C04DF22C0CC4F2000CCCF8000003
:100A700008681843086045F22041C4F20001086884
:100A800040F00300086045F21C51C4F20001086800
:100A900040F00300086045F22C51C4F200010868E0
:100AA00062F30700086045F22851C4F200010868AB
:100AB00020F00300086080BD4EF24061C4F20F01D7
:100AC000086840F0010008604EF20861C4F20F01AE
:100AD000086840F002000860FFE74EF20860C4F2C8
:100AE0000F0000688007002801D4FFE7F5E745F212
:100AF0002041C4F20001086840F03000086045F26F
:100B00002C51C4F20001086820F47F0008600868D6
:100B100040F48800086045F22851C4F200010868DA
:100B200020F03000086045F21C51C4F20001086852
:100B300040F03000086045F20851C4F20001086836
:100B400040F0300008604EF26001C4F20F01086806
:100B5000082262F354400860086840F4801008607E
:100B6000086820F4602008600868086048F2800186
:100B7000C4F202010020086048F2A002C4F202029E
:100B8000C820106048F2A402C4F2020240F60840F5
:100B9000106048F29002C4F2020242F20F7010603C
:100BA000086840F0010008607047000080B584B01C
:100BB000FFF788FE41F288310846FFF70DFE00205E
:100BC0000390FFE7039803285ADCFFE741F28831DE
:100BD0000846FFF701FE45F23031C4F20001CC2097
:100BE000086000200290FFE70298092807DCFFE771
:100BF000FFF72EFCFFE7029801300290F4E703981C
:100C000000EBD07121F00101401AD0B1FFE740F2B2
:100C1000E2410846FFF7E0FD45F23031C4F2000141
:100C20008C20086000200190FFE701980B2807DC6A
:100C3000FFE7FFF70DFCFFE7019801300190F4E7B3
:100C400019E040F2E2410846FFF7C6FD45F23031B7
:100C5000C4F20001C820086000200090FFE700985F
:100C60000B2807DCFFE7FFF7F3FBFFE700980130F5
:100C70000090F4E7FFE7FFE7039801300390A1E756
:100C800000210846FFF7A8FDFFF736FE04B080BD3F
:100C900080B582B000200190FFF768FEFFF70AFDE3
:100CA000FFF70AFFFFF7C4FCFFF7E2FBFFE745F29F
:100CB0003801C4F2020102200860FFF737FE014646
:100CC00040F26800C2F20000017000783838014636
:100CD0000091422800F23E810099DFE811F04300C4
:100CE0003B013B013B013B013B013B013B013B0124
:100CF0003B0190004F0002013B0176003B013B01AC
:100D00003B013B013B01AA003B013B013B013B0195
:100D10003B01C4005B003B01DE003B013B012401C1
:100D20003B016A003B013B013B013B013B013B01B5
:100D30003B0190004F0002013B0176003B013B016B
:100D40003B013B013B01AA003B013B013B013B0155
:100D50003B01C4005B003B01DE003B013B01240181
:100D60003B016A0040F20000C2F200000078012856
:100D700003D1FFE7FFF7BAFBFFE7ECE040F200002A
:100D8000C2F200000078012803D1FFE7FFF734FB2F
:100D9000FFE7E0E040F20000C2F200000078012826
:100DA00003D1FFE7FFF744FD02E0FFF7A5FDFFE7F2
:100DB000D1E040F20000C2F200000078012803D127
:100DC000FFE7FFF7F3FEFFE7C5E040F20000C2F2E5
:100DD00000000078022811D1FFE7FFF773FD40F211
:100DE0000200C2F2000001880846FFF7F5FC45F258
:100DF0003031C4F20001CC200860FFE7ABE040F2E4
:100E00000000C2F200000078022811D1FFE7FFF7CE
:100E100059FD40F20200C2F2000001880846FFF7C7
:100E2000DBFC45F23031C4F2000188200860FFE7A6
:100E300091E040F20000C2F200000078022811D1D7
:100E4000FFE7FFF73FFD40F20200C2F20000018819
:100E50000846FFF7C1FC45F23031C4F200018C2096
:100E60000860FFE777E040F20000C2F2000000787F
:100E7000022811D1FFE7FFF725FD40F20200C2F280
:100E8000000001880846FFF7A7FC45F23031C4F2A4
:100E90000001C8200860FFE75DE040F20000C2F2F8
:100EA0000000007802281BD1FFE740F20200C2F2E6
:100EB0000000008842F20F71884208DCFFE740F230
:100EC0000201C2F20001088864300880FFE740F2A6
:100ED0000200C2F2000001880846FFF77DFCFFE730
:100EE00039E040F20000C2F200000078022819D177
:100EF000FFE740F20200C2F200000088012808DB90
:100F0000FFE740F20201C2F200010888643808805D
:100F1000FFE740F20200C2F2000001880846FFF736
:100F20005BFCFFE717E040F20000C2F2000000782F
:100F3000012807D1FFE740F20001C2F200010220C0
:100F4000087006E040F20001C2F2000101200870C2
:100F5000FFE700E0FFE7AAE6780F000000000020AE
:100F600004000000E80200007C0F000008000020E0
:0C0F700068040000080300000101640098
:040000050000026D88
:00000001FF
