:020000040000FA
:10000000880400206D0200007102000073020000ED
:100010007502000077020000790200000000000075
:100020000000000000000000000000007B02000053
:100030007D020000000000007F020000290C00008B
:10004000830200008302000083020000830200009C
:1000500083020000F10C0000830200008302000014
:10006000830200008302000083020000830200007C
:10007000830200008302000083020000830200006C
:10008000830200008302000083020000830200005C
:10009000830200008302000083020000830200004C
:1000A000830200008302000083020000830200003C
:1000B0008302000083020000F906000083020000B2
:1000C00083020000450F000083020000830200004D
:1000D000830200008302000083020000830200000C
:1000E00083020000830200008302000083020000FC
:1000F00083020000830200008302000083020000EC
:1001000083020000830200008302000083020000DB
:1001100083020000830200008302000083020000CB
:1001200083020000830200008302000083020000BB
:1001300083020000830200008302000083020000AB
:1001400000000000000000000000000000000000AF
:10015000830200008302000083020000830200008B
:10016000000000000000000000000000000000008F
:10017000000000000000000000000000000000007F
:10018000000000000000000000000000000000006F
:10019000000000000000000000000000000000005F
:1001A000000000000000000000000000000000004F
:1001B000830200008302000083020000830200002B
:1001C000830200008302000083020000830200001B
:1001D000830200008302000083020000830200000B
:1001E00083020000830200008302000083020000FB
:1001F00083020000830200008302000083020000EB
:10020000830200008302000083020000000000005F
:1002100083020000830200008302000083020000CA
:1002200083020000830200008302000083020000BA
:1002300083020000830200008302000083020000AA
:10024000830200008302000083020000830200009A
:10025000830200008302000083020000830200008A
:1002600083020000830200008302000000F00AB84D
:10027000FEE7FEE7FEE7FEE7FEE7FEE7FEE7FEE756
:10028000FEE7FEE700F002F800F042F814A696E858
:10029000000CB244B344DA4501D100F039F8BAE8B1
:1002A0000F000FA696E83000A5EB040504EB060747
:1002B000AAEB0704A7F101074FEA15154FEA34141A
:1002C000A4F10104AC4201D300F022F813F0010FB5
:1002D00018BFFB1A43F0010300F001F8DBE71847F1
:1002E000C8120000D812000070470000002300244C
:1002F00000250026103A28BF78C1FBD8520728BF36
:1003000030C148BF0B6070471FB51FBD10B510BD91
:1003100000F029F81146FFF7F7FF00F0FDFE00F0AE
:1003200047F803B4FFF7F2FF03BC00F04FF80000FA
:1003300072B6704762B67047EFF3108072B67047BE
:1003400080F31088704730BF704702480249014A65
:10035000024B70478800002088040020880000209D
:10036000704770477047754600F02CF8AE460500A0
:100370006946534620F00700854618B020B5FFF7C0
:10038000E4FFBDE820404FF000064FF000074FF0BB
:1003900000084FF0000BAC46ACE8C009ACE8C0095F
:1003A000ACE8C009ACE8C00921F007018D467047F0
:1003B00010B50446AFF300802046BDE81040FFF7BB
:1003C000B0BF00000048704700000020014918201D
:1003D000ABBEFEE7260002007047000080B500F0CB
:1003E0007FFD41F22130C0F2000000F099FDFFE7EF
:1003F00040F26B00C2F200000078C00718B9FFE7B6
:10040000FFF7A1FFF4E740F26B01C2F20001002008
:10041000087040F26C01C2F20001087040F26D00F9
:10042000C2F2000000F0C6FB014640F26800C2F2D2
:1004300000000170007864281DD1FFE740F26900D8
:10044000C2F20000017841F2BA10C0F20000405C34
:1004500045F23801C4F20201086040F26401C2F2C0
:10046000000144F61F60086040F26001C2F2000122
:100470000020086038E040F26800C2F20000007816
:1004800038B9FFE745F23801C4F2020100200860E4
:1004900029E040F26900C2F20000017841F2BA108E
:1004A000C0F20000405C45F23801C4F2020108606D
:1004B00040F26800C2F20000017844F62060414337
:1004C00045F62942C0F28F22A1FB021240F26001E0
:1004D000C2F200010A600968401A40F26401C2F2E7
:1004E00000010860FFE7FFE700F0FAFC80BD0000B4
:1004F00080B582B000F0F4FC40F26B01C2F2000162
:100500000020087040F26C01C2F20001087000F097
:10051000E7FC41F26430C0F2000000F001FD00F0A1
:10052000DFFC41F2DA20C0F2000000F0F9FCFFE746
:1005300040F26B00C2F200000078C00718B9FFE774
:10054000FFF701FFF4E740F26B01C2F20001002067
:10055000087040F26C01C2F20001087000F0C0FCAB
:1005600040F26D00C2F2000000786238014601914D
:10057000172800F275800199DFE801F026406672C5
:10058000721972727272727272724D720C7272722F
:100590007259723345F23801C4F202010220086038
:1005A00040F26901C2F200010120087061E045F2E9
:1005B0003801C4F202010820086040F26901C2F269
:1005C00000010220087054E045F23801C4F2020133
:1005D0000420086040F26901C2F2000103200870A3
:1005E00047E045F23801C4F202010A20086040F2F7
:1005F0006901C2F20001042008703AE045F23801B6
:10060000C4F202010C20086040F26901C2F200014C
:10061000052008702DE045F23801C4F202010620E1
:10062000086040F26901C2F20001087021E045F261
:100630003801C4F202010E20086040F26901C2F2E2
:1006400000010720087014E045F23801C4F20201ED
:100650000020086040F26901C2F20001087008E061
:1006600041F24240C0F2000000F05AFCFFF740FFA8
:10067000FFE702B080BD000080B541F22850C0F213
:10068000000000F04DFC00F02BFC41F22350C0F2C2
:10069000000000F045FC00F023FC41F29C50C0F249
:1006A000000000F03DFC00F01BFC41F20440C0F2F1
:1006B000000000F035FC00F013FC41F2BD20C0F258
:1006C000000000F02DFC00F00BFC41F21E40C0F2D7
:1006D000000000F025FC00F003FC41F2B830C0F24D
:1006E000000000F01DFC00F0FBFB41F2C840C0F22E
:1006F000000000F015FC80BD80B582B000200190A4
:10070000FFE7019843F67F01C0F20101884205D856
:10071000FFE7FFE7019801300190F2E745F214404E
:10072000C4F202000068C007D8B1FFE745F21C41DF
:10073000C4F202010120086040F26900C2F2000028
:100740000178013101F007010170017841F2BA101E
:10075000C0F20000405C45F23801C4F202010860BA
:10076000FFE745F21440C4F202000068C00600280A
:1007700032D5FFE745F21C41C4F2020110200860A7
:1007800040F26A00C2F200000078022823D1FFE79D
:1007900045F23800C4F202000068C0B200F0A4FCC8
:1007A00000F09EFB41F2DC30C0F2000000F0B8FB2C
:1007B00000F096FB41F29430C0F2000000F0B0FB74
:1007C00000F08EFB41F2DA10C0F2000000F0A8FB4E
:1007D00000F086FBFFE7FFE702B080BD4EF2081194
:1007E000C4F20F01086840F020000860FFE74EF2F5
:1007F0000811C4F20F01086800F02000086008B971
:10080000FFE7F4E745F22051C4F2020144F24B3015
:10081000C4F64F40086045F22451C4F20201086852
:1008200040F01F00086045F20041C4F20201086870
:1008300040F00E000860086820F01100086045F2E2
:100840002041C4F20201086820F01F00086045F250
:100850001C51C4F20201086840F01F00086045F214
:100860002C51C4F2020108686FF31300086045F2CE
:100870002851C4F20201086820F01F00086045F208
:100880001051C4F20201086840F01100086045F2FE
:100890000441C4F20201086820F01100086045F22A
:1008A0000841C4F20201086820F01100086045F216
:1008B0000C41C4F20201086840F01100086045F2E2
:1008C0001C41C4F202011120086045F21041C4F23B
:1008D0000201086840F0110008604EF21C41CEF29F
:1008E00000010868042262F3575008604EF20011BC
:1008F000CEF20001086840F0804008604EF210011E
:10090000CEF20001002008604EF21403CEF2000384
:100910006FF07F421A604EF21802CEF200021060B1
:100920004EF62052CEF200021068022363F35F708D
:100930001060086840F00700086040F26000C2F2F2
:10094000000044F250610160016844F62060401AE2
:1009500040F26401C2F200010860704780B582B0C5
:1009600000F0BEFA00F048F8FFE740F26B00C2F278
:1009700000000078C00718B9FFE7FFF7E4FCF4E7D0
:1009800040F26B01C2F200010020087040F26C01DD
:10099000C2F20001087000F0A3FA40F26D00C2F24A
:1009A0000000007801460191312808D0FFE7019846
:1009B000322809D0FFE7019833280AD00CE0FFF76E
:1009C00097FDFFF7CBFF14E0FFF708FDFFF7C6FF29
:1009D0000FE000F085FA0CE000F082FA41F263408B
:1009E000C0F2000000F09CFA00F07AFAFFF7B6FFC0
:1009F000FFE702B080BD000080B541F29050C0F228
:100A0000000000F08DFA00F06BFA41F28440C0F271
:100A1000000000F085FA00F063FA41F27150C0F274
:100A2000000000F07DFA00F05BFA41F2E540C0F210
:100A3000000000F075FA00F053FA41F28850C0F25D
:100A4000000000F06DFA00F04BFA80BD80B540F276
:100A50006A01C2F2000102200870322000F044FB5B
:100A600000F022F841F24D50C0F2000000F058FAB8
:100A700000F036FAFFE740F26B00C2F200000078A7
:100A8000C00718B9FFE7FFF75EFCF4E740F26B011F
:100A9000C2F200010020087040F26901C2F20001B8
:100AA000087000F01DFA80BD80B500F019FA41F21F
:100AB000DC30C0F2000000F033FA00F011FA41F22D
:100AC000C210C0F2000000F02BFA00F009FA41F267
:100AD0003C20C0F2000000F023FA00F001FA41F2DD
:100AE0006B20C0F2000000F01BFA00F0F9F941F2AF
:100AF0009920C0F2000000F013FA00F0F1F941F281
:100B00000E20C0F2000000F00BFA00F0E9F941F20B
:100B10001050C0F2000000F003FA00F0E1F941F2D9
:100B2000FD10C0F2000000F0FBF980BD704700002E
:100B300081B04EF27001C4F20F010091086840F0DC
:100B400000400860086840F4006008604EF26002EF
:100B5000C4F20F02106820F4F8601060106800F50D
:100B6000A8601060086820F07000086008680860DD
:100B7000086820F400500860086840F08040086071
:100B80000868072262F39C500860FFE74EF25000AD
:100B9000C4F20F0000684006002801D4FFE7F5E723
:100BA0004EF27001C4F20F01086820F40060086082
:100BB00001B0704784B00290002001908DF80200CF
:100BC00002989DF80210405C8DF80300FFE79DF845
:100BD000030010B3FFE79DF8030030280FDBFFE7A9
:100BE0009DF8030039280ADCFFE7019800EB80013B
:100BF0009DF8030000EB41003038019002E00198BD
:100C000003900DE002989DF8021001318DF802105A
:100C1000C9B2405C8DF80300D9E701980390FFE763
:100C2000039804B0704700004EF21001CEF20001AC
:100C3000086820F00100086045F23800C4F20200A4
:100C4000006840F26901C2F200010A7841F2BA116B
:100C5000C0F20001895C08421DD0FFE740F2640049
:100C6000C2F20000006801384EF21401CEF2000119
:100C7000086040F26900C2F20000017841F2BA1047
:100C8000C0F20000425C45F23801C4F2020108687B
:100C9000904308601CE040F26000C2F2000000686F
:100CA00001384EF21401CEF20001086040F26900F2
:100CB000C2F20000017841F2BA10C0F20000425CBA
:100CC00045F23801C4F20201086810430860FFE7EA
:100CD0004EF21801CEF20001002008604EF2100121
:100CE000CEF20001086840F0010008607047000083
:100CF00080B582B04CF23C00C4F200000068C0062F
:100D000000285CD5FFE74CF21800C4F20000006830
:100D1000C00600284CD4FFE74CF20000C4F20000EB
:100D200000688DF807009DF807000D2812D1FFE735
:100D300040F26B01C2F200010120087040F26C0029
:100D4000C2F20000027840F26D01C2F20001002000
:100D500088542CE040F26C00C2F2000000781228A7
:100D600024DCFFE79DF8070008280BD1FFE70820E7
:100D700000F0BEF840F26C01C2F2000108780138C0
:100D8000087012E09DF8070040F26C03C2F2000305
:100D90001A78511C197040F26D01C2F2000188549A
:100DA0009DF8070000F0A4F8FFE7FFE7FFE7FFE783
:100DB0004CF24401C4F2000110200860FFE702B0C9
:100DC00080BD000081B08DF803008DF802104EF256
:100DD0000411C4F20F01086840F0010008604EF2EF
:100DE0000811C4F20F01086840F0010008604CF2DD
:100DF0003001C4F20001002008604CF22401C4F26A
:100E00000001362008604CF22801C4F200011020D5
:100E100008604CF22C01C4F20001602008609DF8CB
:100E200003009DF802100843C00760B3FFE74EF2CD
:100E30000441CEF200010868052262F34F300860D9
:100E40004EF20011CEF20001202008609DF8030050
:100E5000C00748B1FFE74CF23801C4F2000108684E
:100E600040F010000860FFE79DF80200C00748B19D
:100E7000FFE74CF23801C4F20001086840F020009E
:100E80000860FFE7FFE74CF23001C4F20001086898
:100E900040F201321043086044F22041C4F20001E4
:100EA000086840F00300086044F21C51C4F20001DD
:100EB000086840F00300086044F22C51C4F20001BD
:100EC0000868112262F30700086044F22851C4F256
:100ED0000001086820F00300086001B070470000BE
:100EE00080B50D2000F004F80A2000F001F880BD64
:100EF00081B08DF80300FFE74CF21800C4F2000047
:100F000000688006002801D5FFE7F5E79DF803009B
:100F10004CF20001C4F20001086001B0704700000B
:100F200080B582B00190FFE70198007840B1FFE7FB
:100F300001980078FFF7DCFF019801300190F3E79A
:100F400002B080BD4EF23C00C4F200000068C00652
:100F500000281BD5FFE74EF21800C4F2000000681D
:100F6000C00600280BD4FFE74EF20000C4F20000D8
:100F7000006845F23801C4F202010860FFE74EF252
:100F80004401C4F2000110200860FFE77047000030
:100F900081B08DF803008DF802104EF21861C4F292
:100FA0000F01086840F0040008604EF20811C4F216
:100FB0000F01086840F008000860FFE74EF20810D3
:100FC000C4F20F0000680007002801D4FFE7F5E72E
:100FD0004EF23001C4F20001002008604EF22401FC
:100FE000C4F20001512008604EF22801C4F2000151
:100FF000182008604EF22C01C4F200016020086045
:101000009DF80300C00728B9FFE79DF80200C0075C
:1010100060B3FFE74EF22041CEF2000108680822DB
:1010200062F30F3008604EF20411CEF2000102208C
:1010300008609DF80300C00748B1FFE74EF2380191
:10104000C4F20001086840F010000860FFE79DF856
:101050000200C00748B1FFE74EF23801C4F20001B8
:10106000086840F020000860FFE7FFE74EF230011B
:10107000C4F20001086840F201321043086047F2F0
:101080002051C4F2000144F24B30C4F64F400860D6
:1010900047F22451C4F20001086840F0FF000860E4
:1010A00047F22041C4F20001086840F0C000086027
:1010B00047F21C51C4F20001086840F0C00008600B
:1010C00047F22C51C4F200010868112262F31F603C
:1010D000086047F22851C4F20001086820F0C000FF
:1010E000086001B07047000081B08DF80300FFE791
:1010F0004EF21800C4F2000000688006002801D5F6
:10110000FFE7F5E79DF803004EF20001C4F200018D
:10111000086001B07047000080B584B000200290E4
:101120000390FFF705F9FFF703FD029901200190F5
:10113000FFF748FE01980299FFF72AFFFFF74EFBE1
:10114000FFF7F8F8FFE7FFF797FAFFE740F26B00C9
:10115000C2F200000078C00718B9FFE7FFF7F3F804
:10116000F4E740F26B01C2F200010020087040F287
:101170006C01C2F200010870FFF7B2FE40F26D0090
:10118000C2F20000007801460091312808D0FFE744
:101190000098322807D0FFE70098332806D008E0EF
:1011A000FFF7DCFB06E0FFF751FC03E0FFF7BEFCB6
:1011B00000E0FFE7FFF794FEC5E7000208040A0C11
:1011C000060E496E20636F6C6F7220576865656C00
:1011D0002053746174652E20200057616974696E14
:1011E0006720666F7220636F6C6F7220636F646537
:1011F0002066726F6D204D4355322020004375727A
:1012000072656E7420636F6C6F723A2020004F6EAF
:101210006365206120636F6C6F7220697320736552
:101220006C65637465642C207072657373207377CA
:101230003120746F2073656E64202000506C6561EE
:1012400073652070726573732073773220746F201A
:10125000676F207468726F756768207468652063B3
:101260006F6C6F727320696E202000746865206651
:101270006F6C6C6F77696E6720636F6C6F7220772D
:101280006865656C3A204461726B2C205265642C51
:1012900020477265656E2C2000426C75652C2059C4
:1012A000656C6C6F772C204372616E2C20507572C8
:1012B000706C652C2057686974652E2000322E20D2
:1012C0004D4355313C2D3E4D43553220436F6C6F9D
:1012D0007220576865656C2E200064286461726B0B
:1012E000292C7228726564292C6728677265656EDF
:1012F000292C6228626C7565292C792879656C6CBB
:101300006F77292C63286372616E292C70287075A1
:1013100072706C65292C77287768697465293A2082
:1013200000506C6561736520656E74657220612084
:10133000646563696D616C206E756D6265722066AF
:10134000726F6D203020746F2031303020666F6CEA
:101350006C6F7765642062792061207265747572A4
:101360006E3A2000506C656173652073656C65632F
:1013700074206120636F6C6F722066726F6D2074D1
:10138000686520666F6C6C6F77696E67206C697337
:10139000743A200043757272656E7420636F6C6FCF
:1013A000723A204E6F742059657420496D706C65D7
:1013B0006D656E7465642000506C656173652063B3
:1013C000686F6F7365206120636F6D6D756E696303
:1013D0006174696F6E206D6F646520004D6F646588
:1013E0002032204D4355313A207072657373205E70
:1013F00020746F20657869742074686973206D6F3C
:1014000064652000312E2050433C2D3E4D43553124
:10141000204C454420436F6E74726F6C2000332E55
:101420002050433C2D3E4D4355313C2D3E4D4355C0
:10143000323C2D3E5043204368617420526F6F6DE3
:101440002000496E76616C696420496E7075742E57
:1014500020506C65617365207472792061676169E1
:101460006E2000496E76616C696420496E707574F7
:101470002E20506C656173652074727920616761FC
:10148000696E2100506C656173652073656C6563DE
:101490007420616E206F7074696F6E2066726F6D5C
:1014A0002074686520666F6C6C6F77696E67206C5E
:1014B0006973742028656E7465722031206F722004
:1014C00032206F722033290028506C6561736520CB
:1014D00063686F6F73652066726F6D20312C2032E8
:1014E000202C332900322E204368616E67652074FA
:1014F0006865206272696768746E657373206F66D1
:101500002063757272656E74204C454428732900FF
:1015100074686520636F6C6F7220746F204D435543
:10152000322E004D4355310057656C636F6D652059
:10153000746F2043454353203434372050726F6A10
:101540006563742032202D2055415254004375723A
:1015500072656E7420636F6C6F72202D206E6F74D5
:101560002079657420696D706C656D656E74656455
:1015700000312E2043686F6F736520616E204C45EB
:101580004420636F6C6F7200332E204578697400BD
:101590004D6F64652031204D656E75004D61696E3B
:1015A000204D656E75000000B81500000000002099
:0815B00088040000EC020000B9
:040000050000026D88
:00000001FF
