:020000040000FA
:10000000700400206D020000710200007302000005
:100010007502000077020000790200000000000075
:100020000000000000000000000000007B02000053
:100030007D020000000000007F020000ED090000CA
:100040008302000083020000830200008905000093
:10005000830200008302000083020000830200008C
:10006000830200008302000083020000830200007C
:10007000830200008302000083020000830200006C
:10008000830200008302000083020000830200005C
:10009000830200008302000083020000830200004C
:1000A000830200008302000083020000830200003C
:1000B00083020000830200008D070000830200001D
:1000C000830200008302000083020000830200001C
:1000D000830200008302000083020000830200000C
:1000E00083020000830200008302000083020000FC
:1000F00083020000830200008302000083020000EC
:1001000083020000830200008302000083020000DB
:1001100083020000830200008302000083020000CB
:1001200083020000830200008302000083020000BB
:1001300083020000830200008302000083020000AB
:1001400000000000000000000000000000000000AF
:10015000830200008302000083020000830200008B
:10016000000000000000000000000000000000008F
:10017000000000000000000000000000000000007F
:10018000000000000000000000000000000000006F
:10019000000000000000000000000000000000005F
:1001A000000000000000000000000000000000004F
:1001B000830200008302000083020000830200002B
:1001C000830200008302000083020000830200001B
:1001D000830200008302000083020000830200000B
:1001E00083020000830200008302000083020000FB
:1001F00083020000830200008302000083020000EB
:10020000830200008302000083020000000000005F
:1002100083020000830200008302000083020000CA
:1002200083020000830200008302000083020000BA
:1002300083020000830200008302000083020000AA
:10024000830200008302000083020000830200009A
:10025000830200008302000083020000830200008A
:1002600083020000830200008302000000F00AB84D
:10027000FEE7FEE7FEE7FEE7FEE7FEE7FEE7FEE756
:10028000FEE7FEE700F002F800F042F814A696E858
:10029000000CB244B344DA4501D100F039F8BAE8B1
:1002A0000F000FA696E83000A5EB040504EB060747
:1002B000AAEB0704A7F101074FEA15154FEA34141A
:1002C000A4F10104AC4201D300F022F813F0010FB5
:1002D00018BFFB1A43F0010300F001F8DBE71847F1
:1002E00074290000842900007047000000230024C6
:1002F00000250026103A28BF78C1FBD8520728BF36
:1003000030C148BF0B6070471FB51FBD10B510BD91
:1003100000F029F81146FFF7F7FF00F08BFB00F023
:1003200047F803B4FFF7F2FF03BC00F04FF80000FA
:1003300072B6704762B67047EFF3108072B67047BE
:1003400080F31088704730BF704702480249014A65
:10035000024B7047700000207004002070000020E5
:10036000704770477047754600F02CF8AE460500A0
:100370006946534620F00700854618B020B5FFF7C0
:10038000E4FFBDE820404FF000064FF000074FF0BB
:1003900000084FF0000BAC46ACE8C009ACE8C0095F
:1003A000ACE8C009ACE8C00921F007018D467047F0
:1003B00010B50446AFF300802046BDE81040FFF7BB
:1003C000B0BF00000048704700000020014918201D
:1003D000ABBEFEE7260002007047000081B04EF27F
:1003E0000810C4F20F00016841F0200101600068AC
:1003F000009045F22051C4F2020144F24B30C4F6A1
:100400004F40086045F22451C4F202011F200860E9
:1004100045F22851C4F20201086820F01F0008606C
:1004200045F22C51C4F2020108686FF31300086012
:1004300045F20041C4F20201086840F00E00086075
:10044000086820F01100086045F22041C4F2020162
:10045000086820F01F00086045F21051C4F2020144
:10046000086840F01100086045F21C51C4F2020116
:10047000086840F01F00086045F20441C4F2020120
:10048000086820F01100086045F20841C4F202013A
:10049000086820F01100086045F20C41C4F2020126
:1004A000086820F01100086045F21C41C4F2020106
:1004B0001120086045F21041C4F20201086840F0C2
:1004C000110008604EF21C41CEF2000108680522BE
:1004D00062F3575008604EF20011CEF20001086836
:1004E00040F08040086001B07047000081B04EF2DB
:1004F0000810C4F20F00016841F0020101600068B9
:10050000009045F22851C4F20001086820F03F0035
:10051000086045F22C51C4F20001086800F07F40E9
:10052000086045F20041C4F20001086840F03F0055
:10053000086045F22041C4F20001086820F03F0045
:10054000086045F21C51C4F20001086840F03F0009
:10055000086045F20851C4F20001086840F03F000D
:10056000086001B07047000081B047F25800C0F247
:1005700002000090FFE7009820B1FFE700980138E3
:100580000090F8E701B0704780B582B000208DF888
:1005900007000090FFE7009841F61341C0F2010107
:1005A000884205D8FFE7FFE7009801300090F2E7A6
:1005B00000F03AFA002840F0E080FFE747F21440EC
:1005C000C4F200000068C00770B3FFE740F26100AA
:1005D000C2F20000007848B1FFE700F0FDF940F2F8
:1005E0006101C2F200010020087016E040F26B00C9
:1005F000C2F200000078C0EBC00142F6E430C0F265
:10060000000050F82100800900F0CCF940F26101AF
:10061000C2F2000101200870FFE747F21C41C4F25A
:10062000000101200860FFE747F21440C4F2000017
:100630000068800700282FD5FFE740F26200C2F271
:100640000000007848B1FFE700F0C6F940F262010F
:10065000C2F200010020087017E040F26B00C2F205
:1006600000000078C0EBC00142F6E430C0F20000A8
:1006700000EB81004068800900F094F940F26201CB
:10068000C2F2000101200870FFE747F21C41C4F2EA
:10069000000102200860FFE747F21440C4F20000A6
:1006A0000068400700282FD5FFE740F26300C2F240
:1006B0000000007848B1FFE700F08EF940F26301D6
:1006C000C2F200010020087017E040F26B00C2F295
:1006D00000000078C0EBC00142F6E430C0F2000038
:1006E00000EB81008068800900F05CF940F2630152
:1006F000C2F2000101200870FFE747F21C41C4F27A
:10070000000104200860FFE747F21440C4F2000033
:100710000068000700282FD5FFE740F26400C2F20E
:100720000000007848B1FFE700F056F940F264019C
:10073000C2F200010020087017E040F26B00C2F224
:1007400000000078C0EBC00142F6E430C0F20000C7
:1007500000EB8100C068800900F024F940F26401D8
:10076000C2F2000101200870FFE747F21C41C4F209
:10077000000108200860FFE706E047F21C41C4F2D0
:1007800000010F200860FFE702B080BD80B582B095
:1007900000200190FFE7019841F61341C0F20101EA
:1007A000884205D8FFE7FFE7019801300190F2E7A2
:1007B00045F21440C4F202000068C00770B3FFE7BE
:1007C00000F032F988B9FFE740F26B01C2F2000194
:1007D0000878013045F25652C5F25552A0FB02325C
:1007E00002EB4202801A087011E000F0F5F840F2C6
:1007F0006A01C2F200010878013000F003000870BD
:1008000040F26901C2F2000100200870FFE745F2E2
:100810001C41C4F2020101200860FFE745F21440C8
:10082000C4F202000068C006002824D5FFE700F0EB
:10083000FBF890B9FFE740F26801C2F20001012025
:10084000087040F26901C2F200010020087040F215
:100850006A01C2F20001087006E040F26801C2F2CB
:10086000000100200870FFE745F21C41C4F20201BC
:1008700010200860FFE702B080BD000081B04EF29A
:100880000810C4F20F00016841F00801016000681F
:10089000009047F22451C4F200010F20086047F293
:1008A0002852C4F20002116821F00F01116047F2D2
:1008B0002C52C4F2000211684FF6FF739943116085
:1008C00047F20042C4F20002116821F00F011160EA
:1008D00047F22042C4F20002116821F00F011160BA
:1008E00047F21052C4F20002116841F00F0111608A
:1008F00047F21C52C4F20002116841F00F0111606E
:1009000047F20442C4F20002116821F00F011160A5
:1009100047F20842C4F20002116841F00F01116071
:1009200047F20C42C4F20002116821F00F0111607D
:1009300047F21C41C4F20001086047F21041C4F2C2
:100940000001086840F00F0008604EF20041CEF24E
:1009500000010868052262F35F7008604EF2001122
:10096000CEF20001086840F00800086001B070474E
:1009700040F26001C2F20001002008704EF2100146
:10098000CEF2000108604EF62052CEF2000210684E
:10099000202363F31F601060086840F006000860C1
:1009A0007047000081B00090009801384EF21401A9
:1009B000CEF2000108604EF21801CEF200010020D4
:1009C00008604EF21001CEF20001086840F001000C
:1009D000086001B0704700004EF21001CEF2000135
:1009E000086820F0010008607047000045F2FC3103
:1009F000C4F20201086880F00800086040F260005C
:100A0000C2F200000178013101F03F01017001786C
:100A100040F6C430C0F20000405C45F2F031C4F250
:100A2000000108607047000040F26800C2F2000058
:100A30000078704780B582B000200190FFF778FC05
:100A4000FFF754FDFFF7CAFCFFF718FFFFF790FF11
:100A5000FFF770FCFFE7FFF7E7FF0146009120B1C9
:100A6000FFE70098012803D005E0FFF76CFC03E0E6
:100A700000F004F800E0FFE7EDE7000080B540F289
:100A80006901C2F2000100200870FFE740F26A002D
:100A9000C2F200000078C0EB002140F60440C0F232
:100AA000000000EBC10040F26901C2F200010978C8
:100AB00000EBC1000079002800F08380FFE7FFF71A
:100AC000B3FF01287BD1FFE740F26A00C2F20000C9
:100AD0000078C0EB002140F60440C0F2000000EBBB
:100AE000C10040F26901C2F20001097850F83100FA
:100AF000FF2803D1FFE7FFF76FFF25E040F26A0010
:100B0000C2F200000078C0EB002140F60440C0F2C1
:100B1000000000EBC10040F26901C2F20001097857
:100B200050F8310040F26B01C2F200010978C1EBCC
:100B3000C101014442F6E430C0F2000050F8210047
:100B40008009FFF72FFFFFE740F26601C2F20001C4
:100B500000200880FFE740F26600C2F20000008833
:100B600040F26A01C2F200010978C1EB012240F6AD
:100B70000441C0F2000101EBC20140F26902C2F27D
:100B80000002127801EBC201097988420BDAFFE713
:100B9000FFF7EAFCFFE740F26601C2F200010888B5
:100BA00001300880D7E7FFF717FFFFF7DDFC40F2C1
:100BB0006901C2F2000108780130087000E000E02D
:100BC00064E780BD202326292C2F313436383A3B68
:100BD0003D3E3E3F3F3F3E3E3D3B3A383634312F6F
:100BE0002C292623201D1A1714110F0C0A0806059C
:100BF0000302020101010202030506080A0C0F119B
:100C000014171A1D0200000004000000010000007B
:100C100004000000000000000400000001000000CB
:100C200004000000020000000400000002000000B8
:100C300004000000020000000800000001000000A5
:100C4000040000000100000004000000010000009A
:100C50000800000002000000040000000400000082
:100C60000400000004000000080000000200000072
:100C7000040000000100000004000000000000006B
:100C80000400000001000000040000000200000059
:100C90000400000002000000040000000200000048
:100CA0000800000001000000040000000100000036
:100CB0000400000002000000040000000100000029
:100CC0000400000000000000080000000000000018
:100CD0000000000000000000000000000000000014
:100CE0000000000000000000000000000000000004
:100CF00000000000000000000000000000000000F4
:100D000000000000000000000000000000000000E3
:1014000004000000000000000400000004000000D0
:1014100004000000040000000400000005000000BB
:1014200004000000050000000400000004000000AB
:10143000080000000300000004000000030000009A
:101440000400000002000000040000000200000090
:101450000400000001000000040000000100000082
:10146000040000000000000008000000040000006C
:10147000040000000400000004000000030000005D
:10148000040000000300000004000000020000004F
:101490000400000002000000040000000100000041
:1014A0000800000004000000040000000400000028
:1014B000040000000300000004000000030000001E
:1014C0000400000002000000040000000200000010
:1014D00004000000010000000800000000000000FF
:1014E00004000000000000000400000004000000F0
:1014F00004000000040000000400000005000000DB
:1015000004000000050000000400000004000000CA
:1015100008000000030000000400000003000000B9
:1015200004000000020000000400000002000000AF
:1015300004000000010000000400000001000000A1
:10154000040000000000000008000000000000008F
:10155000000000000000000000000000000000008B
:10156000000000000000000000000000000000007B
:10157000000000000000000000000000000000006B
:10158000000000000000000000000000000000005B
:101BF00000000000040000000200000004000000DB
:101C000002000000050000000400000004000000C5
:101C100004000000070000000400000006000000AF
:101C200004000000FF0000000400000004000000A9
:101C30000200000004000000020000000500000097
:101C40000400000004000000040000000800000080
:101C5000040000000700000004000000FF00000076
:101C60000400000004000000020000000400000066
:101C7000020000000B00000004000000090000004A
:101C8000040000000700000004000000060000003F
:101C9000040000000500000008000000FF00000034
:101CA000040000000A000000020000000A0000001A
:101CB000020000000900000004000000070000000E
:101CC00004000000080000000400000007000000FD
:101CD00008000000000000000000000000000000FC
:101CE00000000000000000000000000000000000F4
:101CF00000000000000000000000000000000000E4
:101D000000000000000000000000000000000000D3
:101D100000000000000000000000000000000000C3
:1023E00000000000000000000000000009000000E4
:1023F000040000000A000000040000000B000000C0
:10240000040000000B000000040000000B000000AE
:10241000040000000B000000040000000B0000009E
:10242000040000000A000000040000000900000091
:102430000400000008000000040000000800000084
:102440000400000009000000040000000700000074
:102450000C00000009000000040000000A00000059
:10246000040000000B000000040000000B0000004E
:10247000040000000B000000040000000B0000003E
:10248000040000000B000000040000000A0000002F
:102490000400000009000000040000000800000023
:1024A0000400000008000000040000000900000013
:1024B000080000000C0000000800000007000000F9
:1024C00004000000080000000400000009000000F3
:1024D0000C000000050000001000000001000000DA
:1024E00010000000000000000000000000000000DC
:1024F00000000000000000000000000000000000DC
:1025000000000000000000000000000000000000CB
:1025100000000000000000000000000000000000BB
:1025200000000000000000000000000000000000AB
:102BE0000000000019DD01002CA90100CA7A0100D3
:102BF00025650100E13E0100171C010009FD0000F0
:102C00008CEE000096D4000064BD000016B30000F6
:102C1000709F00000C8E0000847E00007277000020
:102C20006A6A0000CE5E00007C590000B84F0000C8
:102C300006470000463F0000BA3B00003435000064
:102C4000662F0000BE2C0000DC270000822300005D
:102C5000A41F0000642C000000000020700400008D
:042C6000EC02000082
:040000050000026D88
:00000001FF
