:020000040000FA
:10000000800400206D0200007102000073020000F5
:100010007502000077020000790200000000000075
:100020000000000000000000000000007B02000053
:100030007D020000000000007F020000150A0000A1
:10004000830200008302000083020000830200009C
:1000500083020000DD0A000083020000830200002A
:10006000830200008302000083020000830200007C
:10007000830200008302000083020000830200006C
:10008000830200008302000083020000830200005C
:10009000830200008302000083020000830200004C
:1000A000830200008302000083020000830200003C
:1000B000830200008302000083020000830200002C
:1000C000830200008302000083020000830200001C
:1000D000830200008302000083020000830200000C
:1000E00083020000830200008302000083020000FC
:1000F00083020000830200008302000083020000EC
:1001000083020000830200008302000083020000DB
:1001100083020000830200008302000083020000CB
:1001200083020000830200008302000083020000BB
:1001300083020000830200008302000083020000AB
:1001400000000000000000000000000000000000AF
:10015000830200008302000083020000830200008B
:10016000000000000000000000000000000000008F
:10017000000000000000000000000000000000007F
:10018000000000000000000000000000000000006F
:10019000000000000000000000000000000000005F
:1001A000000000000000000000000000000000004F
:1001B000830200008302000083020000830200002B
:1001C000830200008302000083020000830200001B
:1001D000830200008302000083020000830200000B
:1001E00083020000830200008302000083020000FB
:1001F00083020000830200008302000083020000EB
:10020000830200008302000083020000000000005F
:1002100083020000830200008302000083020000CA
:1002200083020000830200008302000083020000BA
:1002300083020000830200008302000083020000AA
:10024000830200008302000083020000830200009A
:10025000830200008302000083020000830200008A
:1002600083020000830200008302000000F00AB84D
:10027000FEE7FEE7FEE7FEE7FEE7FEE7FEE7FEE756
:10028000FEE7FEE700F002F800F042F814A696E858
:10029000000CB244B344DA4501D100F039F8BAE8B1
:1002A0000F000FA696E83000A5EB040504EB060747
:1002B000AAEB0704A7F101074FEA15154FEA34141A
:1002C000A4F10104AC4201D300F022F813F0010FB5
:1002D00018BFFB1A43F0010300F001F8DBE71847F1
:1002E000FC0C00000C0D00007047000000230024EF
:1002F00000250026103A28BF78C1FBD8520728BF36
:1003000030C148BF0B6070471FB51FBD10B510BD91
:1003100000F029F81146FFF7F7FF00F01BFD00F091
:1003200047F803B4FFF7F2FF03BC00F04FF80000FA
:1003300072B6704762B67047EFF3108072B67047BE
:1003400080F31088704730BF704702480249014A65
:10035000024B7047800000208004002080000020B5
:10036000704770477047754600F02CF8AE460500A0
:100370006946534620F00700854618B020B5FFF7C0
:10038000E4FFBDE820404FF000064FF000074FF0BB
:1003900000084FF0000BAC46ACE8C009ACE8C0095F
:1003A000ACE8C009ACE8C00921F007018D467047F0
:1003B00010B50446AFF300802046BDE81040FFF7BB
:1003C000B0BF00000048704700000020014918201D
:1003D000ABBEFEE7260002007047000080B500F0CB
:1003E00087FC40F60360C0F2000000F0A1FCFFE7CC
:1003F00040F26A00C2F200000078C00718B9FFE7B7
:10040000FFF7A1FFF4E740F26A01C2F20001002009
:10041000087040F26B01C2F20001087040F26C00FB
:10042000C2F2000000F0BCFA014640F26800C2F2DD
:1004300000000170007864280ED1FFE740F26401EB
:10044000C2F2000144F61F60086040F26001C2F28F
:1004500000010020086030E040F26800C2F20000B5
:10046000007870B9FFE740F26001C2F2000144F683
:100470001F60086040F26401C2F2000100200860C1
:100480001AE040F26800C2F20000017844F62060F1
:10049000414345F62942C0F28F22A1FB021240F2ED
:1004A0006001C2F200010A600968401A40F264016A
:1004B000C2F200010860FFE7FFE700F019FC00F05E
:1004C000B5F980BD80B582B000F012FC40F26A013F
:1004D000C2F200010020087040F26B01C2F200017C
:1004E000087000F005FC40F64660C0F2000000F025
:1004F0001FFC00F0FDFB40F6BC50C0F2000000F015
:1005000017FCFFE740F26A00C2F200000078C00763
:1005100018B9FFE7FFF717FFF4E740F26A01C2F2EC
:1005200000010020087040F26B01C2F20001087067
:1005300000F0DEFB40F26C00C2F20000007862388E
:1005400001460191172800F275800199DFE801F05A
:1005500026406672721972727272727272724D7283
:100560000C7272727259723345F23801C4F2020190
:100570000220086040F26901C2F200010120087007
:1005800061E045F23801C4F202010820086040F23F
:100590006901C2F200010220087054E045F23801FE
:1005A000C4F202010420086040F26901C2F20001B5
:1005B0000320087047E045F23801C4F202010A2026
:1005C000086040F26901C2F20001042008703AE0BC
:1005D00045F23801C4F202010C20086040F26901C2
:1005E000C2F20001052008702DE045F23801C4F286
:1005F00002010620086040F26901C2F200010870A1
:1006000021E045F23801C4F202010E20086040F2F8
:100610006901C2F200010720087014E045F23801B8
:10062000C4F202010020086040F26901C2F2000138
:10063000087008E040F67660C0F2000000F078FB39
:10064000FFF740FFFFE702B080BD000080B540F635
:100650004570C0F2000000F06BFB00F049FB40F673
:100660004070C0F2000000F063FB00F041FB40F678
:10067000D170C0F2000000F05BFB00F039FB40F6E7
:100680008D70C0F2000000F053FB00F031FB40F62B
:100690006A70C0F2000000F04BFB00F029FB40F64E
:1006A000B860C0F2000000F043FB80BD4EF20811BC
:1006B000C4F20F01086840F020000860FFE74EF226
:1006C0000811C4F20F01086800F02000086008B9A2
:1006D000FFE7F4E745F22051C4F2020144F24B3047
:1006E000C4F64F40086045F22451C4F20201086884
:1006F00040F01F00086045F20041C4F202010868A2
:1007000040F00E000860086820F01100086045F213
:100710002041C4F20201086820F01F00086045F281
:100720001C51C4F20201086840F01F00086045F245
:100730002C51C4F2020108686FF31300086045F2FF
:100740002851C4F20201086820F01F00086045F239
:100750001051C4F20201086840F01100086045F22F
:100760000441C4F20201086820F01100086045F25B
:100770000841C4F20201086820F01100086045F247
:100780000C41C4F20201086840F01100086045F213
:100790001C41C4F202011120086045F21041C4F26C
:1007A0000201086840F0110008604EF21C41CEF2D0
:1007B00000010868042262F3575008604EF20011ED
:1007C000CEF20001086840F0804008604EF210014F
:1007D000CEF20001002008604EF21403CEF20003B6
:1007E0006FF07F421A604EF21802CEF200021060E3
:1007F0004EF62052CEF200021068022363F35F70BF
:100800001060086840F00700086040F26000C2F223
:10081000000044F250610160016844F62060401A13
:1008200040F26401C2F200010860704780B582B0F6
:1008300000F046F8FFE740F26A00C2F200000078DC
:10084000C00718B9FFE7FFF77EFDF4E740F26A0141
:10085000C2F200010020087040F26B01C2F20001F8
:10086000087000F045FA40F26C00C2F20000007817
:1008700001460191312808D0FFE70198322809D0BC
:10088000FFE7019833280AD00AE0FFF71BFEFFF7C5
:10089000CDFF12E0FFF7A2FDFFF7C8FF0DE00CE06F
:1008A00000F026FA40F69760C0F2000000F040FA2F
:1008B00000F01EFAFFF7BAFFFFE702B080BD0000AC
:1008C00080B540F6C570C0F2000000F031FA00F0CB
:1008D0000FFA40F6D160C0F2000000F029FA00F0F3
:1008E00007FA40F6A670C0F2000000F021FA00F00E
:1008F000FFF940F61570C0F2000000F019FA00F0A0
:10090000F7F940F6BD70C0F2000000F011FA00F0F7
:10091000EFF980BD704700007047000081B04EF2D3
:100920007001C4F20F010091086840F000400860B7
:10093000086840F4006008604EF26002C4F20F02E2
:10094000106820F4F8601060106800F5A86010606E
:10095000086820F07000086008680860086820F4E3
:1009600000500860086840F080400860086807226E
:1009700062F39C500860FFE74EF25000C4F20F0093
:1009800000684006002801D4FFE7F5E74EF2700149
:10099000C4F20F01086820F40060086001B07047DD
:1009A00084B00290002001908DF8020002989DF81A
:1009B0000210405C8DF80300FFE79DF8030010B3C0
:1009C000FFE79DF8030030280FDBFFE79DF80300E9
:1009D00039280ADCFFE7019800EB80019DF803004D
:1009E00000EB41003038019002E0019803900DE0E7
:1009F00002989DF8021001318DF80210C9B2405CD6
:100A00008DF80300D9E701980390FFE7039804B03D
:100A1000704700004EF21001CEF20001086820F08D
:100A20000100086045F23800C4F20200006840F29C
:100A30006901C2F200010A7840F6B451C0F2000127
:100A4000895C08421DD0FFE740F26400C2F200005A
:100A5000006801384EF21401CEF20001086040F245
:100A60006900C2F20000017840F6B450C0F2000004
:100A7000425C45F23801C4F2020108689043086004
:100A80001CE040F26000C2F20000006801384EF243
:100A90001401CEF20001086040F26900C2F20000C9
:100AA000017840F6B450C0F20000425C45F23801D3
:100AB000C4F20201086810430860FFE74EF2180113
:100AC000CEF20001002008604EF21001CEF20001CB
:100AD000086840F0010008607047000080B582B0EF
:100AE0004CF23C00C4F200000068C00600285CD54F
:100AF000FFE74CF21800C4F200000068C0060028AE
:100B00004CD4FFE74CF20000C4F2000000688DF8FE
:100B100007009DF807000D2812D1FFE740F26A0197
:100B2000C2F200010120087040F26B00C2F2000026
:100B3000027840F26C01C2F20001002088542CE0DF
:100B400040F26B00C2F200000078122824DCFFE7BC
:100B50009DF8070008280BD1FFE7082000F0D0F827
:100B600040F26B01C2F2000108780138087012E00F
:100B70009DF8070040F26B03C2F200031A78511C83
:100B8000197040F26C01C2F2000188549DF8070010
:100B900000F0B6F8FFE7FFE7FFE7FFE74CF244019C
:100BA000C4F2000110200860FFE702B080BD000021
:100BB000FFE74CF21800C4F200000068C0060028ED
:100BC00001D5FFE7F5E74CF20000C4F20000006831
:100BD000C0B2704781B08DF803008DF802104EF25C
:100BE0000411C4F20F01086840F0010008604EF2E1
:100BF0000811C4F20F01086840F0010008604CF2CF
:100C00003001C4F20001002008604CF22401C4F25B
:100C100000011B2008604CF22801C4F200010820EA
:100C200008604CF22C01C4F20001602008609DF8BD
:100C300003009DF802100843C00760B3FFE74EF2BF
:100C40000441CEF200010868052262F34F300860CB
:100C50004EF20011CEF20001202008609DF8030042
:100C6000C00748B1FFE74CF23801C4F20001086840
:100C700040F010000860FFE79DF80200C00748B18F
:100C8000FFE74CF23801C4F20001086840F0200090
:100C90000860FFE7FFE74CF23001C4F2000108688A
:100CA00040F201321043086044F22041C4F20001D6
:100CB000086840F00300086044F21C51C4F20001CF
:100CC000086840F00300086044F22C51C4F20001AF
:100CD0000868112262F30700086044F22851C4F248
:100CE0000001086820F00300086001B070470000B0
:100CF00080B50D2000F004F80A2000F001F880BD56
:100D000081B08DF80300FFE74CF21800C4F2000038
:100D100000688006002801D5FFE7F5E79DF803008D
:100D20004CF20001C4F20001086001B070470000FD
:100D300080B582B00190FFE70198007840B1FFE7ED
:100D400001980078FFF7DCFF019801300190F3E78C
:100D500002B080BD80B584B0002002900390FFF700
:100D6000E7FAFFF7DBFD02990120FFF733FFFFF7FA
:100D70009DFCFFF7DFFAFFE7FFF768FCFFF718FFBE
:100D800001460191312808D0FFE70198322807D0A9
:100D9000FFE70198332806D008E0FFF747FD06E09B
:100DA000FFF7B8FD03E0FFF7B7FD00E0FFE7FFF74F
:100DB0009FFFE1E7000208040A0C060E6428646144
:100DC000726B292C7228726564292C6728677265FA
:100DD000656E292C6228626C7565292C79287965E5
:100DE0006C6C6F77292C63286372616E292C7028D4
:100DF000707572706C65292C77287768697465291D
:100E00003A2000506C6561736520656E74657220D0
:100E10006120646563696D616C206E756D626572D9
:100E20002066726F6D203020746F20313030206664
:100E30006F6C6C6F776564206279206120726574D5
:100E400075726E3A2000506C656173652073656C35
:100E5000656374206120636F6C6F722066726F6DC2
:100E60002074686520666F6C6C6F77696E67206CA4
:100E70006973743A2000496E76616C696420496E2A
:100E80007075742E20506C656173652074727920C2
:100E9000616761696E2000496E76616C6964204902
:100EA0006E7075742E20506C656173652074727954
:100EB00020616761696E2100284F6E6C79204D6F4B
:100EC0006465203120466F72206E6F772E2E2E299A
:100ED00000506C656173652073656C656374206197
:100EE0006E206F7074696F6E2066726F6D2074680B
:100EF0006520666F6C6C6F77696E67206C697374C0
:100F00002028656E7465722031206F722032206F48
:100F10007220332900322E204368616E6765207489
:100F20006865206272696768746E657373206F66A6
:100F30002063757272656E74204C454428732900D5
:100F40004D4355310057656C636F6D6520746F209C
:100F500043454353203434372050726F6A656374BD
:100F60002032202D205541525400506C656173652C
:100F70002063686F6F7365206120636F6D6D756EA0
:100F800069636174696F6E206D6F646500312E2036
:100F900050433C2D3E4D435531204C454420436F3A
:100FA0006E74726F6C00312E2043686F6F73652012
:100FB000616E204C454420636F6C6F7200332E20AD
:100FC00045786974004D6F64652031204D656E75FC
:100FD000004D61696E204D656E750000EC0F0000DC
:0C0FE0000000002080040000EC02000073
:040000050000026D88
:00000001FF
