:020000040000FA
:10000000900400206D0200007102000073020000E5
:100010007502000077020000790200000000000075
:100020000000000000000000000000007B02000053
:100030007D020000000000007F020000810200003D
:10004000830200008302000083020000830200009C
:10005000830200006909000083020000830200009F
:10006000830200008302000083020000830200007C
:10007000830200008302000083020000830200006C
:10008000830200008302000083020000830200005C
:10009000830200008302000083020000830200004C
:1000A000830200008302000083020000830200003C
:1000B0008302000083020000DD03000083020000D1
:1000C000830200008302000083020000830200001C
:1000D000830200008302000083020000830200000C
:1000E00083020000830200008302000083020000FC
:1000F00083020000830200008302000083020000EC
:1001000083020000830200008302000083020000DB
:1001100083020000830200008302000083020000CB
:10012000830200008302000083020000BD0B000078
:1001300083020000830200008302000083020000AB
:1001400000000000000000000000000000000000AF
:10015000830200008302000083020000830200008B
:10016000000000000000000000000000000000008F
:10017000000000000000000000000000000000007F
:10018000000000000000000000000000000000006F
:10019000000000000000000000000000000000005F
:1001A000000000000000000000000000000000004F
:1001B000830200008302000083020000830200002B
:1001C000830200008302000083020000830200001B
:1001D000830200008302000083020000830200000B
:1001E00083020000830200008302000083020000FB
:1001F00083020000830200008302000083020000EB
:10020000830200008302000083020000000000005F
:1002100083020000830200008302000083020000CA
:1002200083020000830200008302000083020000BA
:1002300083020000830200008302000083020000AA
:10024000830200008302000083020000830200009A
:10025000830200008302000083020000830200008A
:1002600083020000830200008302000000F00AB84D
:10027000FEE7FEE7FEE7FEE7FEE7FEE7FEE7FEE756
:10028000FEE7FEE700F002F800F042F814A696E858
:10029000000CB244B344DA4501D100F039F8BAE8B1
:1002A0000F000FA696E83000A5EB040504EB060747
:1002B000AAEB0704A7F101074FEA15154FEA34141A
:1002C000A4F10104AC4201D300F022F813F0010FB5
:1002D00018BFFB1A43F0010300F001F8DBE71847F1
:1002E000A80E0000B80E0000704700000023002494
:1002F00000250026103A28BF78C1FBD8520728BF36
:1003000030C148BF0B6070471FB51FBD10B510BD91
:1003100000F029F81146FFF7F7FF00F0E3FD00F0C9
:1003200047F803B4FFF7F2FF03BC00F04FF80000FA
:1003300072B6704762B67047EFF3108072B67047BE
:1003400080F31088704730BF704702480249014A65
:10035000024B704790000020900400209000002085
:10036000704770477047754600F02CF8AE460500A0
:100370006946534620F00700854618B020B5FFF7C0
:10038000E4FFBDE820404FF000064FF000074FF0BB
:1003900000084FF0000BAC46ACE8C009ACE8C0095F
:1003A000ACE8C009ACE8C00921F007018D467047F0
:1003B00010B50446AFF300802046BDE81040FFF7BB
:1003C000B0BF00000048704700000020014918201D
:1003D000ABBEFEE7260002007047000080B582B089
:1003E00000200190FFE7019843F67F01C0F2010170
:1003F000884205D8FFE7FFE7019801300190F2E756
:1004000045F21440C4F202000068C007B8B3FFE729
:1004100045F21C41C4F202010120086040F2610073
:10042000C2F200000078022828D1FFE740F2600005
:10043000C2F2000000780130082807DBFFE740F235
:100440006001C2F200010020087007E040F2600184
:10045000C2F20001087801300870FFE740F2600046
:10046000C2F20000017840F6D870C0F20000405C93
:1004700045F23801C4F202010860FFE7FFE745F2E8
:100480001440C4F202000068C00600281ED5FFE731
:1004900045F21C41C4F202011020086040F26100E4
:1004A000C2F20000007802280FD1FFE740F260009E
:1004B000C2F20000017840F6D870C0F20000405C43
:1004C00000F0E2FC00F036F9FFE7FFE702B080BD84
:1004D0004EF20811C4F20F01086840F020000860D5
:1004E000FFE74EF20811C4F20F01086800F0200087
:1004F000086008B9FFE7F4E745F22051C4F20201B1
:1005000044F24B30C4F64F40086045F22451C4F227
:100510000201086840F01F00086045F20041C4F283
:100520000201086840F00E000860086820F0110021
:10053000086045F22041C4F20201086820F01F0063
:10054000086045F21C51C4F20201086840F01F0027
:10055000086045F22C51C4F2020108686FF31300E1
:10056000086045F22851C4F20201086820F01F001B
:10057000086045F21051C4F20201086840F0110011
:10058000086045F20441C4F20201086820F011003D
:10059000086045F20841C4F20201086820F0110029
:1005A000086045F20C41C4F20201086840F01100F5
:1005B000086045F21C41C4F202011120086045F2B6
:1005C0001041C4F20201086840F0110008604EF2C8
:1005D0001C41CEF200010868042262F35750086003
:1005E0004EF20011CEF20001086840F08040086031
:1005F0007047000082B045F23800C4F20200006883
:1006000000900E2822D80099DFE801F008200B2086
:1006100011201A200E20142017201D000020019008
:1006200017E00120019014E00220019011E0032066
:1006300001900EE0042001900BE00520019008E0FD
:100640000620019005E00720019002E000200190C3
:10065000FFE7019802B0704782B045F23800C4F25B
:100660000200006800900E283AD80099DFE801F0F7
:1006700008380E381A382C3814382038263832000A
:1006800041F23110C0F2000001902FE041F21B1046
:10069000C0F20000019029E041F24010C0F20000D9
:1006A000019023E041F22C10C0F2000001901DE007
:1006B00041F26B10C0F20000019017E041F23B10D4
:1006C000C0F20000019011E041F21F10C0F20000E2
:1006D00001900BE041F22610C0F20000019005E00D
:1006E00041F23610C0F200000190FFE7019802B01D
:1006F0007047000080B500F02FFA41F24610C0F2BA
:10070000000000F049FA00F027FA41F21610C0F29A
:10071000000000F041FA00F01FFA41F20000C0F2C0
:10072000000000F039FA00F017FA80BD80B500F043
:1007300001F880BD80B500F00FFA41F2D100C0F29F
:10074000000000F029FA00F007FA41F2B000C0F210
:10075000000000F021FA00F0FFF980BD80B500F044
:10076000FBF941F2D100C0F2000000F015FA00F0F0
:10077000F3F941F27210C0F2000000F00DFA00F03F
:10078000EBF941F23300C0F2000000F005FA00F08E
:10079000E3F941F2DD00C0F2000000F0FDF900F0E5
:1007A000DBF940F6F070C0F2000000F0F5F9FFF759
:1007B00053FF00F0F1F900F0CFF980BD80B541F2B0
:1007C0002100C0F2000000F0E7F900F0C5F9FFE7F2
:1007D00040F26200C2F200000078002840F0818000
:1007E000FFE740F26401C2F200010020087040F20D
:1007F0006501C2F200010870FFE740F26400C2F236
:1008000000000078C04340F26201C2F200010978A2
:10081000B1FA81F14909084203D0FFE7FFF793FDE0
:10082000EBE740F26200C2F20000007878B9FFE71F
:1008300040F6E070C0F2000000F0AEF940F2660051
:10084000C2F2000000F0A8F900F086F9FFE740F2DC
:100850006200C2F20000007808B1FFE741E040F218
:100860006301C2F200010020087040F27A01C2F276
:100870000001087040F6E870C0F2000000F08CF94A
:10088000FFE740F26300C2F200000078C04340F28C
:100890006201C2F200010978B1FA81F14909084206
:1008A00003D0FFE7FFF74FFDEBE740F26200C2F233
:1008B0000000007860B9FFE740F27B00C2F2000060
:1008C00000F0FAFA0D2000F0DFFA00F045F9FFE73A
:1008D00040F26200C2F20000007808B1FFE700E0D9
:1008E00076E780BD81B04EF27001C4F20F01009135
:1008F000086840F000400860086840F40060086044
:100900004EF26002C4F20F02106820F4F86010602A
:10091000106800F5A8601060086820F0700008609A
:1009200008680860086820F400500860086840F013
:10093000804008600868072262F39C500860FFE767
:100940004EF25000C4F20F0000684006002801D4A7
:10095000FFE7F5E74EF27001C4F20F01086820F4DA
:100960000060086001B0704780B582B04CF23C0076
:10097000C4F200000068C00600285CD5FFE74CF216
:100980001800C4F200000068C00600284CD4FFE73D
:100990004CF20000C4F2000000688DF807009DF8DA
:1009A00007000D2812D1FFE740F26301C2F20001F7
:1009B0000120087040F27A00C2F20000027840F292
:1009C0007B01C2F20001002088542CE040F27A0042
:1009D000C2F200000078122824DCFFE79DF807002F
:1009E00008280BD1FFE7082000F0BEF840F27A019A
:1009F000C2F2000108780138087012E09DF8070083
:100A000040F27A03C2F200031A78511C197040F2C6
:100A10007B01C2F2000188549DF8070000F0A4F8A1
:100A2000FFE7FFE7FFE7FFE74CF24401C4F20001F4
:100A300010200860FFE702B080BD000081B08DF893
:100A400003008DF802104EF20411C4F20F01086881
:100A500040F0010008604EF20811C4F20F0108686E
:100A600040F0010008604CF23001C4F200010020A7
:100A700008604CF22401C4F20001362008604CF2F8
:100A80002801C4F20001102008604CF22C01C4F2CD
:100A90000001602008609DF803009DF802100843E3
:100AA000C00760B3FFE74EF20441CEF200010868D0
:100AB000052262F34F3008604EF20011CEF20001C1
:100AC000202008609DF80300C00748B1FFE74CF202
:100AD0003801C4F20001086840F010000860FFE728
:100AE0009DF80200C00748B1FFE74CF23801C4F29C
:100AF0000001086840F020000860FFE7FFE74CF2C3
:100B00003001C4F20001086840F20132104308606D
:100B100044F22041C4F20001086840F0030008607C
:100B200044F21C51C4F20001086840F00300086060
:100B300044F22C51C4F200010868112262F307004C
:100B4000086044F22851C4F20001086820F0030054
:100B5000086001B07047000080B50D2000F004F877
:100B60000A2000F001F880BD81B08DF80300FFE796
:100B70004CF21800C4F2000000688006002801D57D
:100B8000FFE7F5E79DF803004CF20001C4F2000115
:100B9000086001B07047000080B582B00190FFE7A7
:100BA0000198007840B1FFE701980078FFF7DCFF7B
:100BB000019801300190F3E702B080BD80B582B0AA
:100BC0004FF23C00C4F200000068C006002840F16B
:100BD000A880FFE74FF21800C4F200000068C006CA
:100BE000002800F19D80FFE74FF20000C4F20000F2
:100BF00000688DF8070040F26100C2F20000007842
:100C000002282AD1FFE79DF807005E2813D1FFE7ED
:100C100045F23801C4F202010020086040F2600190
:100C2000C2F20001087040F26101C2F200010870D6
:100C3000FFF760FD10E09DF8070045F23801C4F2AF
:100C400002010860FFF7D6FC40F26001C2F2000129
:100C50000870FFF783FDFFE761E040F26101C2F237
:100C6000000108780338B0FA80F040090978B1FA39
:100C700081F149090843002850D0FFE79DF807009B
:100C8000FF280DD1FFE740F26101C2F20001002010
:100C9000087040F26201C2F2000101200870FFE713
:100CA0009DF807000D2812D1FFE740F26401C2F25F
:100CB00000010120087040F26500C2F200000278D5
:100CC00040F26601C2F200010020885425E040F2A3
:100CD0006500C2F20000007812281DDCFFE79DF8D5
:100CE0000700082808D1FFE740F26501C2F20001C1
:100CF0000878013808700EE09DF8070040F265039F
:100D0000C2F200031A78511C197040F26601C2F257
:100D100000018854FFE7FFE7FFE7FFE7FFE7FFE792
:100D2000FFE74FF24401C4F200011020086002B056
:100D300080BD000081B08DF803008DF802104EF2E6
:100D40001861C4F20F01086840F0080008604EF214
:100D50000811C4F20F01086840F004000860FFE7C2
:100D60004EF20810C4F20F0000684007002801D4BA
:100D7000FFE7F5E74FF23001C4F200010020086000
:100D80004FF22401C4F20001512008604FF2280103
:100D9000C4F20001182008604FF22C01C4F20001D7
:100DA000602008609DF80300C00748B1FFE74FF2DC
:100DB0003801C4F20001086840F010000860FFE745
:100DC0009DF80200C00748B1FFE74FF23801C4F2B6
:100DD0000001086840F020000860FFE74FF2300192
:100DE000C4F20001086840F20132104308609DF827
:100DF00003009DF802100843C00788B1FFE74EF2D8
:100E00003841CEF200010868012262F35F70086089
:100E10004EF20411CEF200014FF000600860FFE7CF
:100E200046F22051C4F2000144F24B30C4F64F4068
:100E3000086046F22451C4F20001086840F0FF0047
:100E4000086046F22041C4F20001086840F0C0008A
:100E5000086046F21C51C4F20001086840F0C0006E
:100E6000086046F22C51C4F200010868112262F3B6
:100E70001F60086046F22851C4F20001086820F0A3
:100E8000C000086001B0704781B08DF80300FFE733
:100E90004FF21800C4F2000000688006002801D557
:100EA000FFE7F5E79DF803004FF20001C4F20001EF
:100EB000086001B07047000080B582B00190FFE784
:100EC0000198007840B1FFE701980078FFF7DCFF58
:100ED000019801300190F3E70020FFF7D5FF02B041
:100EE00080BD000080B584B0002002900390FFF721
:100EF0001FFAFFF7F7FC029901200190FFF79EFD12
:100F000001980299FFF716FFFFF7E2FAFFF712FACE
:100F100040F26000C2F20000017840F6D870C0F2E2
:100F20000000405C45F23801C4F202010860FFF79E
:100F300013FEFFE7FFF7DEFB40F26501C2F200019E
:100F40000020087040F26401C2F200010870FFE75F
:100F500040F26400C2F200000078C00718B9FFE751
:100F6000FFF7F1F9F4E740F26401C2F2000100205A
:100F7000087040F26501C2F200010870FFF7ECFD55
:100F800040F26600C2F2000000780146009132286B
:100F900004D0FFE70098332809D017E040F2610140
:100FA000C2F2000102200870FFF7C0FB11E040F21E
:100FB0006101C2F200010320087040F26201C2F236
:100FC000000100200870FFF7F9FB02E0FFF7C4FD05
:100FD000FFE7FFF7B8F9ADE7000208040A0C060EB8
:100FE0004D435520313A20004D435520323A2000E0
:100FF00043757272656E7420636F6C6F723A200075
:1010000057616974696E6720666F7220636F6D6DDA
:10101000616E642066726F6D204D4355312E2E2E09
:10102000004D6F6465203320456E74657265642ED3
:101030002E2E00506C65617365207072657373208D
:1010400053573220746F20676F207468726F756712
:10105000682074686520636F6C6F727320696E20FE
:1010600074686520666F6C6C6F77696E6720636F5C
:101070006C6F7220776865656C3A204461726B2CE6
:10108000205265642C20477265656E2C20426C7579
:10109000652C2059656C6C6F772C204379616E2C20
:1010A00020507572706C652C2057686974652E002D
:1010B00057616974696E6720666F7220636F6C6F29
:1010C0007220636F64652066726F6D204D435531E9
:1010D000004D6F64652032204D435532004F6E63E2
:1010E00065206120636F6C6F722069732073656C7B
:1010F00065637465642C2070726573732073773137
:1011000020746F2073656E642074686520636F6C53
:101110006F7220746F204D43553200524544005089
:101120005552504C4500574849544500424C55458E
:10113000004441524B004E554C4C004359414E0027
:10114000475245454E0057656C636F6D6520746F5F
:101150002043454353203434372050726F6A65630F
:10116000742032202D20554152540059454C4C4F8B
:101170005700496E20636F6C6F7220776865656CED
:101180002073746174650000981100000000002055
:0811900090040000EC020000D5
:040000050000026D88
:00000001FF
