:020000040000FA
:10000000A00400206D0200007102000073020000D5
:100010007502000077020000790200000000000075
:100020000000000000000000000000007B02000053
:100030007D020000000000007F020000390F000078
:10004000830200008302000083020000830200009C
:100050008302000001100000830200008302000000
:10006000830200008302000083020000830200007C
:10007000830200008302000083020000830200006C
:10008000830200008302000083020000830200005C
:10009000830200008302000083020000830200004C
:1000A000830200008302000083020000830200003C
:1000B00083020000830200000504000083020000A8
:1000C000830200005512000083020000830200003A
:1000D000830200008302000083020000830200000C
:1000E00083020000830200008302000083020000FC
:1000F00083020000830200008302000083020000EC
:1001000083020000830200008302000083020000DB
:1001100083020000830200008302000083020000CB
:1001200083020000830200008302000083020000BB
:1001300083020000830200008302000083020000AB
:1001400000000000000000000000000000000000AF
:10015000830200008302000083020000830200008B
:10016000000000000000000000000000000000008F
:10017000000000000000000000000000000000007F
:10018000000000000000000000000000000000006F
:10019000000000000000000000000000000000005F
:1001A000000000000000000000000000000000004F
:1001B000830200008302000083020000830200002B
:1001C000830200008302000083020000830200001B
:1001D000830200008302000083020000830200000B
:1001E00083020000830200008302000083020000FB
:1001F00083020000830200008302000083020000EB
:10020000830200008302000083020000000000005F
:1002100083020000830200008302000083020000CA
:1002200083020000830200008302000083020000BA
:1002300083020000830200008302000083020000AA
:10024000830200008302000083020000830200009A
:10025000830200008302000083020000830200008A
:1002600083020000830200008302000000F00AB84D
:10027000FEE7FEE7FEE7FEE7FEE7FEE7FEE7FEE756
:10028000FEE7FEE700F002F800F042F814A696E858
:10029000000CB244B344DA4501D100F039F8BAE8B1
:1002A0000F000FA696E83000A5EB040504EB060747
:1002B000AAEB0704A7F101074FEA15154FEA34141A
:1002C000A4F10104AC4201D300F022F813F0010FB5
:1002D00018BFFB1A43F0010300F001F8DBE71847F1
:1002E00010180000201800007047000000230024B0
:1002F00000250026103A28BF78C1FBD8520728BF36
:1003000030C148BF0B6070471FB51FBD10B510BD91
:1003100000F029F81146FFF7F7FF01F013F900F09C
:1003200047F803B4FFF7F2FF03BC00F04FF80000FA
:1003300072B6704762B67047EFF3108072B67047BE
:1003400080F31088704730BF704702480249014A65
:10035000024B7047A0000020A0040020A000002055
:10036000704770477047754600F02CF8AE460500A0
:100370006946534620F00700854618B020B5FFF7C0
:10038000E4FFBDE820404FF000064FF000074FF0BB
:1003900000084FF0000BAC46ACE8C009ACE8C0095F
:1003A000ACE8C009ACE8C00921F007018D467047F0
:1003B00010B50446AFF300802046BDE81040FFF7BB
:1003C000B0BF00000048704700000020014918201D
:1003D000ABBEFEE726000200704700004EF210019F
:1003E000CEF20001086820F00100086070470000AC
:1003F0004EF21001CEF20001086840F001000860E2
:100400007047000080B582B000200190FFE701989E
:1004100043F67F01C0F20101884205D8FFE7FFE7FC
:10042000019801300190F2E745F21440C4F2020055
:100430000068C007B8B3FFE745F21C41C4F20201EF
:100440000120086040F26C00C2F20000007802282F
:1004500028D1FFE740F26100C2F2000000780130CD
:10046000082807DBFFE740F26101C2F2000100202B
:10047000087007E040F26101C2F200010878013023
:100480000870FFE740F26100C2F20000017841F21B
:100490007060C0F20000405C45F23801C4F2020115
:1004A0000860FFE7FFE745F21440C4F2020000686D
:1004B000C006002839D5FFE745F21C41C4F202010D
:1004C0001020086040F26C00C2F2000000780228A0
:1004D0000FD1FFE740F26100C2F20000017841F263
:1004E0007060C0F20000405C00F0FEFF00F0AAFB6C
:1004F000FFE740F26C00C2F200000078032813D13D
:10050000FFE740F26D01C2F200010120087040F2E5
:100510006C01C2F2000100200870FF2000F0E4FF2F
:100520000D2000F0E1FFFFE7FFE702B080BD000013
:100530004EF20811C4F20F01086840F02000086074
:10054000FFE74EF20811C4F20F01086800F0200026
:10055000086008B9FFE7F4E745F22051C4F2020150
:1005600044F24B30C4F64F40086045F22451C4F2C7
:100570000201086840F01F00086045F20041C4F223
:100580000201086840F00E000860086820F01100C1
:10059000086045F22041C4F20201086820F01F0003
:1005A000086045F21C51C4F20201086840F01F00C7
:1005B000086045F22C51C4F2020108686FF3130081
:1005C000086045F22851C4F20201086820F01F00BB
:1005D000086045F21051C4F20201086840F01100B1
:1005E000086045F20441C4F20201086820F01100DD
:1005F000086045F20841C4F20201086820F01100C9
:10060000086045F20C41C4F20201086840F0110094
:10061000086045F21C41C4F202011120086045F255
:100620001041C4F20201086840F0110008604EF267
:100630001C41CEF200010868042262F357500860A2
:100640004EF20011CEF20001086840F080400860D0
:100650004EF21001CEF20001002008604EF21403A9
:10066000CEF200036FF07F421A604EF21802CEF213
:10067000000210604EF62052CEF2000210680223F3
:1006800063F35F701060086840F00700086040F294
:100690006400C2F2000044F250610160016844F657
:1006A0002060401A40F26801C2F200010860704701
:1006B00082B045F23800C4F20200006800900E28B3
:1006C00022D80099DFE801F008200B2011201A2021
:1006D0000E20142017201D000020019017E001209B
:1006E000019014E00220019011E0032001900EE03F
:1006F000042001900BE00520019008E00620019005
:1007000005E00720019002E000200190FFE701983A
:1007100002B0704782B045F23800C4F202000068AF
:1007200000900E283AD80099DFE801F008380E381A
:100730001A382C38143820382638320041F6BC10CC
:10074000C0F2000001902FE041F6A610C0F20000B8
:10075000019029E041F6CB10C0F20000019023E0A7
:1007600041F6B710C0F2000001901DE041F6F6100E
:10077000C0F20000019017E041F6C610C0F2000080
:10078000019011E041F6AA10C0F2000001900BE0C8
:1007900041F6B110C0F20000019005E041F6C11031
:1007A000C0F200000190FFE7019802B0704700001E
:1007B00080B500F01DFD41F6D110C0F2000000F040
:1007C00037FD00F015FD41F63D10C0F2000000F0CD
:1007D0002FFD00F00DFD41F6E420C0F2000000F016
:1007E00027FD00F005FD41F65620C0F2000000F0A4
:1007F0001FFD00F0FDFC41F63920C0F2000000F0C2
:1008000017FD00F0F5FC41F67120C0F2000000F089
:100810000FFD00F0EDFC41F2FE70C0F2000000F0B0
:1008200007FD00F0E5FC80BD80B582B000F0A8F9BE
:1008300040F28501C2F2000100200870FFE740F29B
:100840006E00C2F200000078C00718B9FFE7FFF79A
:100850007AFDF4E740F26E01C2F200010020087058
:1008600040F28501C2F20001087000F0C1FC40F2C4
:100870008600C2F20000007801460091312808D0BD
:10088000FFE70098322809D0FFE7009833280AD004
:1008900012E000F0ADF8FFF7C7FF1AE000F01EF815
:1008A000FFF7C2FF15E000F0A3FC40F26C01C2F2BA
:1008B0000001002008700CE000F09AFC41F6801066
:1008C000C0F2000000F0B4FC00F092FCFFF7ACFFB7
:1008D000FFE7FFF783FD02B080BD000080B500F0A8
:1008E00087FC41F21970C0F2000000F0A1FCFFE7A4
:1008F00040F26E00C2F200000078C00718B9FFE7AE
:10090000FFF721FDF4E740F26E01C2F20001002082
:10091000087040F28501C2F20001087040F28600C2
:10092000C2F2000000F0CEFA014640F26000C2F2CE
:1009300000000170007864281DD1FFE740F26100DB
:10094000C2F20000017841F27060C0F20000405C29
:1009500045F23801C4F20201086040F26801C2F2B7
:10096000000144F61F60086040F26401C2F2000119
:100970000020086038E040F26000C2F20000007819
:1009800038B9FFE745F23801C4F2020100200860DF
:1009900029E040F26100C2F20000017841F270608B
:1009A000C0F20000405C45F23801C4F20201086068
:1009B00040F26000C2F20000017844F6206041433A
:1009C00045F62942C0F28F22A1FB021240F26401D7
:1009D000C2F200010A600968401A40F26801C2F2DE
:1009E00000010860FFE7FFE700F002FC80BD0000A7
:1009F00080B582B000F0FCFB41F26C70C0F20000E8
:100A000000F016FC00F0F4FB41F2A660C0F200001A
:100A100000F00EFCFFE740F26E00C2F2000000782A
:100A2000C00718B9FFE7FFF78EFCF4E740F26E014C
:100A3000C2F200010020087040F28501C2F20001FC
:100A4000087000F0D5FB40F28600C2F2000000788A
:100A5000623801460191172800F285800199DFE88C
:100A600001F02A487482821B828282828282828280
:100A700057820C8282828265823945F23801C4F243
:100A800002010220086040F26101C2F2000101206F
:100A9000087000F0ADFB71E045F23801C4F20201CC
:100AA0000820086040F26101C2F2000102200870D3
:100AB00000F09EFB62E045F23801C4F2020104201E
:100AC000086040F26101C2F200010320087000F0EA
:100AD0008FFB53E045F23801C4F202010A2008609E
:100AE00040F26101C2F200010420087000F080FBB6
:100AF00044E045F23801C4F202010C20086040F2E3
:100B00006101C2F200010520087000F071FB35E0C0
:100B100045F23801C4F202010620086040F261018A
:100B2000C2F20001087000F063FB27E045F23801D3
:100B3000C4F202010E20086040F26101C2F200011D
:100B40000720087000F054FB18E045F23801C4F2A9
:100B500002010020086040F26101C2F20001087049
:100B600000F046FB0AE041F2B470C0F2000000F071
:100B70005FFB00F03DFBFFF73BFFFFE702B080BDEE
:100B800080B541F6D820C0F2000000F051FB00F023
:100B90002FFB41F63500C0F2000000F049FB00F0E9
:100BA00027FB41F69C20C0F2000000F041FB00F062
:100BB0001FFB41F67900C0F2000000F039FB00F0A5
:100BC00017FB41F6B320C0F2000000F031FB00F04B
:100BD0000FFB80BD80B582B0322000F085FC0D2077
:100BE00000F082FC00F042F8FFE740F26E00C2F233
:100BF00000000078C00718B9FFE7FFF7A4FBF4E78F
:100C000040F26E01C2F2000100200190087040F233
:100C10008501C2F20001087045F23801C4F20201F8
:100C2000086040F26101C2F2000108705E2000F02D
:100C30005BFC019840F26C01C2F20001087002B046
:100C400080BD000080B500F0D3FA41F6BB20C0F2B1
:100C5000000000F0EDFA00F0CBFA41F62110C0F2EE
:100C6000000000F0E5FA00F0C3FA80BD80B500F0A6
:100C7000BFFA41F6FD10C0F2000000F0D9FA00F012
:100C8000B7FA41F62420C0F2000000F0D1FA00F0DB
:100C9000AFFA41F6A400C0F2000000F0C9FA00F07B
:100CA000A7FA41F64210C0F2000000F0C1FA00F0CD
:100CB0009FFA41F25C70C0F2000000F0B9FAFFF751
:100CC00029FD00F0B5FA00F093FA80BD80B533201D
:100CD00000F00AFC0D2000F007FC40F26C01C2F2AB
:100CE00000010320087000F083FA41F29C70C0F20A
:100CF000000000F09DFA00F07BFA41F27860C0F24B
:100D0000000000F095FA00F073FA41F2D570C0F2DD
:100D1000000000F08DFA00F06BFA41F2ED60C0F2D5
:100D2000000000F085FA00F063FAFFE740F26D0082
:100D3000C2F200000078002840F08180FFE741F215
:100D40000970C0F2000000F073FA40F26E01C2F2C6
:100D500000010020087040F28501C2F20001087015
:100D6000FFE740F26E00C2F200000078C04340F29C
:100D70006D01C2F200010978B1FA81F14909084216
:100D800003D0FFE7FFF7DFFAEBE740F26D00C2F2B6
:100D90000000007860B9FFE740F28600C2F2000070
:100DA00000F0BAFB0D2000F09FFB00F021FAFFE7F6
:100DB00040F26D00C2F20000007808B1FFE73EE0AB
:100DC00040F26F01C2F200010020087040F2700191
:100DD000C2F200010870FFE740F26F00C2F20000AB
:100DE0000078C04340F26D01C2F200010978B1FA07
:100DF00081F14909084203D0FFE7FFF7A4FAEBE7C6
:100E000040F26D00C2F20000007878B9FFE741F2CD
:100E10001170C0F2000000F00BFA40F27100C2F253
:100E2000000000F005FA00F0E3F9FFE740F26D0082
:100E3000C2F20000007808B1FFE700E076E780BD6D
:100E400081B04EF27001C4F20F010091086840F0C9
:100E500000400860086840F4006008604EF26002DC
:100E6000C4F20F02106820F4F8601060106800F5FA
:100E7000A8601060086820F07000086008680860CA
:100E8000086820F400500860086840F0804008605E
:100E90000868072262F39C500860FFE74EF250009A
:100EA000C4F20F0000684006002801D4FFE7F5E710
:100EB0004EF27001C4F20F01086820F4006008606F
:100EC00001B0704784B00290002001908DF80200BC
:100ED00002989DF80210405C8DF80300FFE79DF832
:100EE000030010B3FFE79DF8030030280FDBFFE796
:100EF0009DF8030039280ADCFFE7019800EB800128
:100F00009DF8030000EB41003038019002E00198A9
:100F100003900DE002989DF8021001318DF8021047
:100F2000C9B2405C8DF80300D9E701980390FFE750
:100F3000039804B0704700004EF21001CEF2000199
:100F4000086820F00100086045F23800C4F2020091
:100F5000006840F26101C2F200010A7841F270615A
:100F6000C0F20001895C08421DD0FFE740F2680032
:100F7000C2F20000006801384EF21401CEF2000106
:100F8000086040F26100C2F20000017841F2706036
:100F9000C0F20000425C45F23801C4F20201086868
:100FA000904308601CE040F26400C2F20000006858
:100FB00001384EF21401CEF20001086040F26100E7
:100FC000C2F20000017841F27060C0F20000425CA1
:100FD00045F23801C4F20201086810430860FFE7D7
:100FE0004EF21801CEF20001002008604EF210010E
:100FF000CEF20001086840F0010008607047000070
:1010000080B582B04CF23C00C4F200000068C0061B
:1010100000285CD5FFE74CF21800C4F2000000681D
:10102000C00600284CD4FFE74CF20000C4F20000D8
:1010300000688DF807009DF807000D2812D1FFE722
:1010400040F26E01C2F200010120087040F28500FA
:10105000C2F20000027840F28601C2F200010020D4
:1010600088542CE040F28500C2F20000007812287B
:1010700024DCFFE79DF8070008280BD1FFE70820D4
:1010800000F0BEF840F28501C2F200010878013894
:10109000087012E09DF8070040F28503C2F20003D9
:1010A0001A78511C197040F28601C2F2000188546E
:1010B0009DF8070000F0A4F8FFE7FFE7FFE7FFE770
:1010C0004CF24401C4F2000110200860FFE702B0B6
:1010D00080BD000081B08DF803008DF802104EF243
:1010E0000411C4F20F01086840F0010008604EF2DC
:1010F0000811C4F20F01086840F0010008604CF2CA
:101100003001C4F20001002008604CF22401C4F256
:101110000001362008604CF22801C4F200011020C2
:1011200008604CF22C01C4F20001602008609DF8B8
:1011300003009DF802100843C00760B3FFE74EF2BA
:101140000441CEF200010868052262F34F300860C6
:101150004EF20011CEF20001202008609DF803003D
:10116000C00748B1FFE74CF23801C4F2000108683B
:1011700040F010000860FFE79DF80200C00748B18A
:10118000FFE74CF23801C4F20001086840F020008B
:101190000860FFE7FFE74CF23001C4F20001086885
:1011A00040F201321043086044F22041C4F20001D1
:1011B000086840F00300086044F21C51C4F20001CA
:1011C000086840F00300086044F22C51C4F20001AA
:1011D0000868112262F30700086044F22851C4F243
:1011E0000001086820F00300086001B070470000AB
:1011F00080B50D2000F004F80A2000F001F880BD51
:1012000081B08DF80300FFE74CF21800C4F2000033
:1012100000688006002801D5FFE7F5E79DF8030088
:101220004CF20001C4F20001086001B070470000F8
:1012300080B582B00190FFE70198007840B1FFE7E8
:1012400001980078FFF7DCFF019801300190F3E787
:1012500002B080BD80B582B04EF23C00C4F2000006
:101260000068C006002840F19480FFE74EF21800A5
:10127000C4F200000068C006002800F18380FFE788
:101280004EF20000C4F2000000688DF8070040F242
:101290006C00C2F200000078022811D1FFE79DF82F
:1012A000070045F23801C4F202010860FFF700FAB6
:1012B00040F26101C2F200010870FFF7D7FCFFE7BE
:1012C00040F26C01C2F2000108780338B0FA80F0F5
:1012D00040090978B1FA81F149090843002850D042
:1012E000FFE79DF80700FF280DD1FFE740F26C01F2
:1012F000C2F200010020087040F26D01C2F200014C
:1013000001200870FFE79DF807000D2812D1FFE7C4
:1013100040F26F01C2F200010120087040F270003B
:10132000C2F20000027840F27101C2F20001002016
:10133000885425E040F27000C2F2000000781228C4
:101340001DDCFFE79DF80700082808D1FFE740F201
:101350007001C2F200010878013808700EE09DF8B3
:10136000070040F27003C2F200031A78511C197092
:1013700040F27101C2F200018854FFE7FFE7FFE786
:10138000FFE7FFE74EF24401C4F2000110200860BD
:10139000FFE702B080BD000081B08DF803008DF83A
:1013A00002104EF20411C4F20F01086840F004006C
:1013B00008604EF20811C4F20F01086840F00800FE
:1013C0000860FFE74EF20810C4F20F000068000743
:1013D000002801D4FFE7F5E74EF23001C4F2000126
:1013E000002008604EF22401C4F200015120086080
:1013F0004EF22801C4F20001182008604EF22C01C0
:10140000C4F20001602008609DF80300C00748B1E5
:10141000FFE74EF23801C4F20001086840F0100006
:101420000860FFE79DF80200C00748B1FFE74EF2F1
:101430003801C4F20001086840F020000860FFE7AE
:101440004EF23001C4F20001086840F2013210434C
:1014500008609DF803009DF802100843C00778B1AA
:10146000FFE74EF22042CEF200021168022060F344
:101470000F3111604EF20411CEF200010860FFE757
:1014800047F22051C4F2000144F24B30C4F64F4001
:10149000086047F22451C4F20001086840F0FF00E0
:1014A000086047F22041C4F20001086840F0C00023
:1014B000086047F21C51C4F20001086840F0C00007
:1014C000086047F22C51C4F200010868112262F34F
:1014D0001F60086047F22851C4F20001086820F03C
:1014E000C000086001B0704781B08DF80300FFE7CD
:1014F0004EF21800C4F2000000688006002801D5F2
:10150000FFE7F5E79DF803004EF20001C4F2000189
:10151000086001B07047000080B582B00190FFE71D
:101520000198007840B1FFE701980078FFF7DCFFF1
:10153000019801300190F3E70020FFF7D5FF02B0DA
:1015400080BD000080B586B0002004900590FEF7B5
:10155000EFFEFFF775FC049901200390FFF7BAFD39
:1015600003980499FFF718FFFEF7E2FFFEF736FF36
:10157000FEF7E0FE40F26100C2F20000017841F2A5
:101580007060C0F20000405C45F23801C4F2020114
:101590000860FFE740F26C00C2F20000007800280B
:1015A00065D1FFE7FFF704F940F28501C2F20001BF
:1015B00000200870FFE740F26E00C2F200000078E1
:1015C000C00718B9FFE7FEF7BEFEF4E740F26E0170
:1015D000C2F200010020087040F28501C2F2000151
:1015E00001910870FFF704FE0198017840F286002F
:1015F000C2F20000405C01460291312808D0FFE7AA
:10160000029832280FD0FFE70298332814D022E046
:1016100040F26C01C2F2000101200870FEF7E8FE02
:10162000FFF702F922E040F26C01C2F20001022051
:101630000870FFF7CFFA19E040F26C01C2F2000126
:101640000320087040F26D01C2F200010020087012
:10165000FFF73CFB0AE0FFF7CBFD41F68010C0F23C
:101660000000FFF7E5FDFFF7C3FDFFE7FFE791E7A8
:10167000000208040A0C060E50726573732073771B
:101680003120617420616E792074696D6520746FFA
:1016900020657869742074686520636861742072BD
:1016A0006F6F6D2E200064286461726B292C722884
:1016B000726564292C6728677265656E292C62281B
:1016C000626C7565292C792879656C6C6F77292C8B
:1016D00063286372616E292C7028707572706C6556
:1016E000292C77287768697465293A2000286C6569
:1016F0007373207468616E20323020636861726198
:101700006374657273293A20004D435520313A20A5
:10171000004D435520323A2000506C6561736520BE
:10172000656E746572206120646563696D616C200B
:101730006E756D6265722066726F6D203020746FF9
:101740002031303020666F6C6C6F77656420627971
:1017500020612072657475726E3A20004375727252
:10176000656E7420636F6C6F723A2000506C656117
:1017700073652073656C656374206120636F6C6FA3
:10178000722066726F6D2074686520666F6C6C6F76
:1017900077696E67206C6973743A20004D6F6465D9
:1017A0002033204D4355313A204368617420526FF5
:1017B0006F6D2000496E76616C696420496E7075AA
:1017C000742E20506C656173652074727920616796
:1017D00061696E2000506C65617365207479706575
:1017E0002061206D65737361676520656E64207785
:1017F00069746820612072657475726E2000506C87
:10180000656173652063686F6F7365206120636F26
:101810006D6D756E69636174696F6E206D6F64655F
:101820002028656E7465722031206F722032206F1F
:101830007220332900506C656173652073656C6597
:10184000637420616E206F7074696F6E2066726FB2
:101850006D2074686520666F6C6C6F77696E6720A9
:101860006C6973742028656E7465722031206F7204
:101870002032206F7220332900322E204368616E9F
:10188000676520746865206272696768746E657345
:1018900073206F662063757272656E74204C4544C8
:1018A00028732900506C65617365207072657373CD
:1018B0002053573220746F20676F207468726F75E1
:1018C00067682074686520636F6C6F727320696E3F
:1018D0002074686520666F6C6C6F77696E67206333
:1018E0006F6C6F7220776865656C3A204461726B2B
:1018F0002C205265642C20477265656E2C20426C4A
:1019000075652C2059656C6C6F772C204379616E5E
:101910002C20507572706C652C2057686974652E88
:101920000057616974696E6720666F7220636F6C1F
:101930006F7220636F64652066726F6D204D435532
:1019400031004F6E6365206120636F6C6F72206998
:10195000732073656C65637465642C2070726573A5
:10196000732073773120746F2073656E6420746800
:101970006520636F6C6F7220746F204D4355320089
:10198000496E76616C696420496E7075742E2050C2
:101990006C656173652063686F6F73652066726F35
:1019A0006D20312D330052454400505552504C4566
:1019B00000574849544500424C5545004441524B5C
:1019C000004E554C4C004359414E00475245454E40
:1019D0000057656C636F6D6520746F2043454353FA
:1019E000203434372050726F6A6563742032202DA2
:1019F00020554152540059454C4C4F57004D6F648F
:101A0000652032204D4355313A2070726573732042
:101A10005E20746F20657869742074686973206D26
:101A20006F646500496E20636F6C6F722077686524
:101A3000656C20737461746500322E204D435531FE
:101A4000203C2D3E204D43553220436F6C6F722059
:101A5000576865656C00312E205043203C2D3E2098
:101A60004D435531204C454420436F6E74726F6C6A
:101A700000332E20504331203C2D3E204D43553124
:101A8000203C2D3E204D435532203C2D3E205043DE
:101A900032204368617420526F6F6D00312E2043F5
:101AA000686F6F736520616E204C454420636F6CD6
:101AB0006F7200332E2045786974004D6F64652085
:101AC00032204D4355313A207072657373205E2089
:101AD000746F2065786974004D6F64652031204D06
:101AE000656E75004D61696E204D656E7500000074
:101AF000001B000000000020A0040000EC02000019
:040000050000026D88
:00000001FF
