:020000040000FA
:10000000800400206D0200007102000073020000F5
:100010007502000077020000790200000000000075
:100020000000000000000000000000007B02000053
:100030007D020000000000007F020000810200003D
:10004000830200008302000083020000830200009C
:1000500083020000E1070000830200008302000029
:10006000830200008302000083020000830200007C
:10007000830200008302000083020000830200006C
:10008000830200008302000083020000830200005C
:10009000830200008302000083020000830200004C
:1000A000830200008302000083020000830200003C
:1000B00083020000830200000905000083020000A3
:1000C00083020000350A0000830200008302000062
:1000D000830200008302000083020000830200000C
:1000E00083020000830200008302000083020000FC
:1000F00083020000830200008302000083020000EC
:1001000083020000830200008302000083020000DB
:1001100083020000830200008302000083020000CB
:1001200083020000830200008302000083020000BB
:1001300083020000830200008302000083020000AB
:1001400000000000000000000000000000000000AF
:10015000830200008302000083020000830200008B
:10016000000000000000000000000000000000008F
:10017000000000000000000000000000000000007F
:10018000000000000000000000000000000000006F
:10019000000000000000000000000000000000005F
:1001A000000000000000000000000000000000004F
:1001B000830200008302000083020000830200002B
:1001C000830200008302000083020000830200001B
:1001D000830200008302000083020000830200000B
:1001E00083020000830200008302000083020000FB
:1001F00083020000830200008302000083020000EB
:10020000830200008302000083020000000000005F
:1002100083020000830200008302000083020000CA
:1002200083020000830200008302000083020000BA
:1002300083020000830200008302000083020000AA
:10024000830200008302000083020000830200009A
:10025000830200008302000083020000830200008A
:1002600083020000830200008302000000F00AB84D
:10027000FEE7FEE7FEE7FEE7FEE7FEE7FEE7FEE756
:10028000FEE7FEE700F002F800F042F814A696E858
:10029000000CB244B344DA4501D100F039F8BAE8B1
:1002A0000F000FA696E83000A5EB040504EB060747
:1002B000AAEB0704A7F101074FEA15154FEA34141A
:1002C000A4F10104AC4201D300F022F813F0010FB5
:1002D00018BFFB1A43F0010300F001F8DBE71847F1
:1002E000700A0000800A000070470000002300240C
:1002F00000250026103A28BF78C1FBD8520728BF36
:1003000030C148BF0B6070471FB51FBD10B510BD91
:1003100000F029F81146FFF7F7FF00F075FC00F038
:1003200047F803B4FFF7F2FF03BC00F04FF80000FA
:1003300072B6704762B67047EFF3108072B67047BE
:1003400080F31088704730BF704702480249014A65
:10035000024B7047800000208004002080000020B5
:10036000704770477047754600F02CF8AE460500A0
:100370006946534620F00700854618B020B5FFF7C0
:10038000E4FFBDE820404FF000064FF000074FF0BB
:1003900000084FF0000BAC46ACE8C009ACE8C0095F
:1003A000ACE8C009ACE8C00921F007018D467047F0
:1003B00010B50446AFF300802046BDE81040FFF7BB
:1003C000B0BF00000048704700000020014918201D
:1003D000ABBEFEE7260002007047000080B540F685
:1003E000FB40C0F2000000F013FB00F0F1FA40F611
:1003F000E940C0F2000000F00BFB00F0E9FA40F623
:10040000A340C0F2000000F003FB00F0E1FA80BD61
:1004100082B045F23800C4F20200006800900E2855
:1004200000F26B800099DFE801F05C6808682068E2
:10043000446814682C683868500040F26801C2F2C1
:1004400000010120087040F62050C0F20000019029
:1004500056E040F26801C2F200010220087040F646
:100460004050C0F2000001904AE040F26801C2F240
:1004700000010320087040F63150C0F200000190E6
:100480003EE040F26801C2F200010420087040F62C
:100490004650C0F20000019032E040F26801C2F222
:1004A00000010520087040F63B50C0F200000190AA
:1004B00026E040F26801C2F200010620087040F612
:1004C0002450C0F2000001901AE040F26801C2F22C
:1004D00000010720087040F62B50C0F20000019088
:1004E0000EE040F26801C2F200010020087040F600
:1004F0003650C0F20000019002E000200190FFE7BA
:10050000019802B07047000080B582B000200190D1
:10051000FFE7019843F67F01C0F20101884205D848
:10052000FFE7FFE7019801300190F2E745F2144040
:10053000C4F202000068C007A8B1FFE740F26800FB
:10054000C2F200000178013101F007010170017869
:1005500040F68A40C0F20000405C45F23801C4F227
:1005600002010860FFE745F21440C4F2020000688F
:10057000C00600282DD5FFE745F21C41C4F2020158
:100580001020086045F23800C4F202000068C0B2D2
:1005900000F022FB00F01CFA40F6EE40C0F2000032
:1005A00000F036FA00F014FA40F69240C0F2000073
:1005B00000F02EFAFFF72CFF00F02AFA00F008FAFC
:1005C00040F6C140C0F2000000F022FA00F000FA4C
:1005D000FFE702B080BD00004EF20811C4F20F0127
:1005E000086840F020000860FFE74EF20811C4F2EE
:1005F0000F01086800F02000086008B9FFE7F4E781
:1006000045F22051C4F2020144F24B30C4F64F408F
:10061000086045F22451C4F20201086840F01F004E
:10062000086045F20041C4F20201086840F00E0083
:100630000860086820F01100086045F22041C4F20B
:100640000201086820F01F00086045F21C51C4F246
:100650000201086840F01F00086045F22C51C4F206
:10066000020108686FF31300086045F22851C4F2D4
:100670000201086820F01F00086045F21051C4F222
:100680000201086840F01100086045F20441C4F21C
:100690000201086820F01100086045F20841C4F228
:1006A0000201086820F01100086045F20C41C4F214
:1006B0000201086840F01100086045F21C41C4F2D4
:1006C00002011120086045F21041C4F202010868DD
:1006D00040F0110008604EF21C41CEF200010868A3
:1006E000042262F3575008604EF20011CEF200016E
:1006F000086840F0804008604EF21001CEF2000120
:10070000002008604EF21403CEF200036FF07F4227
:100710001A604EF21802CEF2000210604EF620521D
:10072000CEF200021068022363F35F701060086865
:1007300040F00700086040F26000C2F2000044F29E
:1007400050610160016844F62060401A40F2640183
:10075000C2F20001086070477047000081B04EF29D
:100760007001C4F20F010091086840F00040086079
:10077000086840F4006008604EF26002C4F20F02A4
:10078000106820F4F8601060106800F5A860106030
:10079000086820F07000086008680860086820F4A5
:1007A00000500860086840F0804008600868072230
:1007B00062F39C500860FFE74EF25000C4F20F0055
:1007C00000684006002801D4FFE7F5E74EF270010B
:1007D000C4F20F01086820F40060086001B070479F
:1007E00080B582B04CF23C00C4F200000068C00644
:1007F00000285CD5FFE74CF21800C4F20000006846
:10080000C00600284CD4FFE74CF20000C4F2000000
:1008100000688DF807009DF807000D2812D1FFE74A
:1008200040F26901C2F200010120087040F26A0042
:10083000C2F20000027840F26B01C2F20001002017
:1008400088542CE040F26A00C2F2000000781228BE
:1008500024DCFFE79DF8070008280BD1FFE70820FC
:1008600000F0BEF840F26A01C2F2000108780138D7
:10087000087012E09DF8070040F26A03C2F200031C
:100880001A78511C197040F26B01C2F200018854B1
:100890009DF8070000F0A4F8FFE7FFE7FFE7FFE798
:1008A0004CF24401C4F2000110200860FFE702B0DE
:1008B00080BD000081B08DF803008DF802104EF26B
:1008C0000411C4F20F01086840F0010008604EF204
:1008D0000811C4F20F01086840F0010008604CF2F2
:1008E0003001C4F20001002008604CF22401C4F27F
:1008F0000001362008604CF22801C4F200011020EB
:1009000008604CF22C01C4F20001602008609DF8E0
:1009100003009DF802100843C00760B3FFE74EF2E2
:100920000441CEF200010868052262F34F300860EE
:100930004EF20011CEF20001202008609DF8030065
:10094000C00748B1FFE74CF23801C4F20001086863
:1009500040F010000860FFE79DF80200C00748B1B2
:10096000FFE74CF23801C4F20001086840F02000B3
:100970000860FFE7FFE74CF23001C4F200010868AD
:1009800040F201321043086044F22041C4F20001F9
:10099000086840F00300086044F21C51C4F20001F2
:1009A000086840F00300086044F22C51C4F20001D2
:1009B0000868112262F30700086044F22851C4F26B
:1009C0000001086820F00300086001B070470000D3
:1009D00080B50D2000F004F80A2000F001F880BD79
:1009E00081B08DF80300FFE74CF21800C4F200005C
:1009F00000688006002801D5FFE7F5E79DF80300B1
:100A00004CF20001C4F20001086001B07047000020
:100A100080B582B00190FFE70198007840B1FFE710
:100A200001980078FFF7DCFF019801300190F3E7AF
:100A300002B080BD4EF23C00C4F200000068C00667
:100A400000281BD5FFE74EF21800C4F20000006832
:100A5000C00600280BD4FFE74EF20000C4F20000ED
:100A6000006840F27F01C2F200010870FFE74EF219
:100A70004401C4F2000110200860FFE77047000045
:100A800081B08DF803008DF802104EF21861C4F2A7
:100A90000F01086840F0040008604EF20811C4F22B
:100AA0000F01086840F008000860FFE74EF20810E8
:100AB000C4F20F0000680007002801D4FFE7F5E743
:100AC0004EF23001C4F20001002008604EF2240111
:100AD000C4F20001512008604EF22801C4F2000166
:100AE000182008604EF22C01C4F20001602008605A
:100AF0009DF80300C00728B9FFE79DF80200C00772
:100B000060B3FFE74EF22041CEF2000108680822F0
:100B100062F30F3008604EF20411CEF200010220A1
:100B200008609DF80300C00748B1FFE74EF23801A6
:100B3000C4F20001086840F010000860FFE79DF86B
:100B40000200C00748B1FFE74EF23801C4F20001CD
:100B5000086840F020000860FFE7FFE74EF2300130
:100B6000C4F20001086840F201321043086047F205
:100B70002051C4F2000144F24B30C4F64F400860EB
:100B800047F22451C4F20001086840F0FF000860F9
:100B900047F22041C4F20001086840F0C00008603C
:100BA00047F21C51C4F20001086840F0C000086020
:100BB00047F22C51C4F200010868112262F31F6051
:100BC000086047F22851C4F20001086820F0C00014
:100BD000086001B07047000081B08DF80300FFE7A6
:100BE0004EF21800C4F2000000688006002801D50B
:100BF000FFE7F5E79DF803004EF20001C4F20001A3
:100C0000086001B07047000080B584B000200290F9
:100C10000390FFF78DFBFFF7A1FD029901200190E2
:100C2000FFF748FE01980299FFF72AFFFFF7D4FC6F
:100C3000FFF780FBFFF7D2FBFFE740F27F00C2F235
:100C40000000007801460091322804D0FFE70098A8
:100C5000332811D013E040F6E240C0F20000FFF765
:100C6000D7FEFFF7B5FE40F6C140C0F20000FFF727
:100C7000CFFEFFF7ADFE05E0FFF76EFD02E0FFF7E8
:100C800062FBFFE7FFF7A4FED7E7000208040A0CA7
:100C9000060E43757272656E7420636F6C6F723AE4
:100CA00020200057616974696E6720666F72206347
:100CB0006F6D6D616E642066726F6D204D435531AE
:100CC0000057616974696E6720666F7220636F6C8C
:100CD0006F7220636F64652066726F6D204D43559F
:100CE00031004D6F64652032204D435532004D6F09
:100CF00064652032204D4355323A0057656C636F6E
:100D00006D6520746F2043454353203434372050A1
:100D1000726F6A6563742032202D20554152540051
:100D200052656400507572706C650057686974652F
:100D300000426C7565004461726B004372616E0025
:100D4000477265656E0059656C6C6F770000000036
:100D5000600D00000000002080040000EC02000094
:040000050000026D88
:00000001FF
