:020000040000FA
:10000000800400206D0200007102000073020000F5
:100010007502000077020000790200000000000075
:100020000000000000000000000000007B02000053
:100030007D020000000000007F020000690A00004D
:10004000830200008302000083020000830200009C
:1000500083020000310B00008302000083020000D5
:10006000830200008302000083020000830200007C
:10007000830200008302000083020000830200006C
:10008000830200008302000083020000830200005C
:10009000830200008302000083020000830200004C
:1000A000830200008302000083020000830200003C
:1000B000830200008302000083020000830200002C
:1000C000830200008302000083020000830200001C
:1000D000830200008302000083020000830200000C
:1000E00083020000830200008302000083020000FC
:1000F00083020000830200008302000083020000EC
:1001000083020000830200008302000083020000DB
:1001100083020000830200008302000083020000CB
:1001200083020000830200008302000083020000BB
:1001300083020000830200008302000083020000AB
:1001400000000000000000000000000000000000AF
:10015000830200008302000083020000830200008B
:10016000000000000000000000000000000000008F
:10017000000000000000000000000000000000007F
:10018000000000000000000000000000000000006F
:10019000000000000000000000000000000000005F
:1001A000000000000000000000000000000000004F
:1001B000830200008302000083020000830200002B
:1001C000830200008302000083020000830200001B
:1001D000830200008302000083020000830200000B
:1001E00083020000830200008302000083020000FB
:1001F00083020000830200008302000083020000EB
:10020000830200008302000083020000000000005F
:1002100083020000830200008302000083020000CA
:1002200083020000830200008302000083020000BA
:1002300083020000830200008302000083020000AA
:10024000830200008302000083020000830200009A
:10025000830200008302000083020000830200008A
:1002600083020000830200008302000000F00AB84D
:10027000FEE7FEE7FEE7FEE7FEE7FEE7FEE7FEE756
:10028000FEE7FEE700F002F800F042F814A696E858
:10029000000CB244B344DA4501D100F039F8BAE8B1
:1002A0000F000FA696E83000A5EB040504EB060747
:1002B000AAEB0704A7F101074FEA15154FEA34141A
:1002C000A4F10104AC4201D300F022F813F0010FB5
:1002D00018BFFB1A43F0010300F001F8DBE71847F1
:1002E000AC0D0000BC0D000070470000002300248E
:1002F00000250026103A28BF78C1FBD8520728BF36
:1003000030C148BF0B6070471FB51FBD10B510BD91
:1003100000F029F81146FFF7F7FF00F033FD00F079
:1003200047F803B4FFF7F2FF03BC00F04FF80000FA
:1003300072B6704762B67047EFF3108072B67047BE
:1003400080F31088704730BF704702480249014A65
:10035000024B7047800000208004002080000020B5
:10036000704770477047754600F02CF8AE460500A0
:100370006946534620F00700854618B020B5FFF7C0
:10038000E4FFBDE820404FF000064FF000074FF0BB
:1003900000084FF0000BAC46ACE8C009ACE8C0095F
:1003A000ACE8C009ACE8C00921F007018D467047F0
:1003B00010B50446AFF300802046BDE81040FFF7BB
:1003C000B0BF00000048704700000020014918201D
:1003D000ABBEFEE7260002007047000080B500F0CB
:1003E0009FFC40F68860C0F2000000F0B9FCFFE717
:1003F00040F26A00C2F200000078C00718B9FFE7B7
:10040000FFF7A1FFF4E740F26A01C2F20001002009
:10041000087040F26B01C2F20001087040F26C00FB
:10042000C2F2000000F0E6FA014640F26800C2F2B3
:1004300000000170007864281DD1FFE740F26900D8
:10044000C2F20000017840F61C60C0F20000405C7F
:1004500045F23801C4F20201086040F26401C2F2C0
:10046000000144F61F60086040F26001C2F2000122
:100470000020086038E040F26800C2F20000007816
:1004800038B9FFE745F23801C4F2020100200860E4
:1004900029E040F26900C2F20000017840F61C60D9
:1004A000C0F20000405C45F23801C4F2020108606D
:1004B00040F26800C2F20000017844F62060414337
:1004C00045F62942C0F28F22A1FB021240F26001E0
:1004D000C2F200010A600968401A40F26401C2F2E7
:1004E00000010860FFE7FFE700F01AFC80BD000094
:1004F00080B582B000F014FC40F26A01C2F2000143
:100500000020087040F26B01C2F20001087000F098
:1005100007FC40F6CB60C0F2000000F021FC00F0C8
:10052000FFFB40F64160C0F2000000F019FCFFE75D
:1005300040F26A00C2F200000078C00718B9FFE775
:10054000FFF701FFF4E740F26A01C2F20001002068
:10055000087040F26B01C2F20001087000F0E0FB8D
:1005600040F26C00C2F2000000786238014601914E
:10057000172800F275800199DFE801F026406672C5
:10058000721972727272727272724D720C7272722F
:100590007259723345F23801C4F202010220086038
:1005A00040F26901C2F200010120087061E045F2E9
:1005B0003801C4F202010820086040F26901C2F269
:1005C00000010220087054E045F23801C4F2020133
:1005D0000420086040F26901C2F2000103200870A3
:1005E00047E045F23801C4F202010A20086040F2F7
:1005F0006901C2F20001042008703AE045F23801B6
:10060000C4F202010C20086040F26901C2F200014C
:10061000052008702DE045F23801C4F202010620E1
:10062000086040F26901C2F20001087021E045F261
:100630003801C4F202010E20086040F26901C2F2E2
:1006400000010720087014E045F23801C4F20201ED
:100650000020086040F26901C2F20001087008E061
:1006600040F65D70C0F2000000F07AFBFFF740FF3B
:10067000FFE702B080BD000080B541F23000C0F25B
:10068000000000F06DFB00F04BFB41F22B00C0F2CC
:10069000000000F065FB00F043FB41F28000C0F277
:1006A000000000F05DFB00F03BFB40F61F70C0F265
:1006B000000000F055FB00F033FB40F62460C0F270
:1006C000000000F04DFB00F02BFB40F63970C0F24B
:1006D000000000F045FB00F023FB40F6FB60C0F299
:1006E000000000F03DFB00F01BFB40F6E370C0F2A1
:1006F000000000F035FB80BD4EF20811C4F20F017E
:10070000086840F020000860FFE74EF20811C4F2CC
:100710000F01086800F02000086008B9FFE7F4E75F
:1007200045F22051C4F2020144F24B30C4F64F406E
:10073000086045F22451C4F20201086840F01F002D
:10074000086045F20041C4F20201086840F00E0062
:100750000860086820F01100086045F22041C4F2EA
:100760000201086820F01F00086045F21C51C4F225
:100770000201086840F01F00086045F22C51C4F2E5
:10078000020108686FF31300086045F22851C4F2B3
:100790000201086820F01F00086045F21051C4F201
:1007A0000201086840F01100086045F20441C4F2FB
:1007B0000201086820F01100086045F20841C4F207
:1007C0000201086820F01100086045F20C41C4F2F3
:1007D0000201086840F01100086045F21C41C4F2B3
:1007E00002011120086045F21041C4F202010868BC
:1007F00040F0110008604EF21C41CEF20001086882
:10080000042262F3575008604EF20011CEF200014C
:10081000086840F0804008604EF21001CEF20001FE
:10082000002008604EF21403CEF200036FF07F4206
:100830001A604EF21802CEF2000210604EF62052FC
:10084000CEF200021068022363F35F701060086844
:1008500040F00700086040F26000C2F2000044F27D
:1008600050610160016844F62060401A40F2640162
:10087000C2F200010860704780B582B000F050FA03
:1008800000F048F8FFE740F26A00C2F2000000788A
:10089000C00718B9FFE7FFF756FDF4E740F26A0119
:1008A000C2F200010020087040F26B01C2F20001A8
:1008B000087000F035FA40F26C00C2F200000078D7
:1008C00001460191312808D0FFE70198322809D06C
:1008D000FFE7019833280AD00CE0FFF709FEFFF785
:1008E000CBFF14E0FFF77AFDFFF7C6FF0FE000F043
:1008F00017FA0CE000F014FA40F67E70C0F2000027
:1009000000F02EFA00F00CFAFFF7B6FFFFE702B096
:1009100080BD000080B541F27400C0F2000000F01C
:100920001FFA00F0FDF940F69F70C0F2000000F0E1
:1009300017FA00F0F5F941F25500C0F2000000F09E
:100940000FFA00F0EDF941F20000C0F2000000F0F3
:1009500007FA00F0E5F941F26C00C0F2000000F087
:10096000FFF900F0DDF980BD70470000704700001E
:1009700081B04EF27001C4F20F010091086840F09E
:1009800000400860086840F4006008604EF26002B1
:10099000C4F20F02106820F4F8601060106800F5CF
:1009A000A8601060086820F070000860086808609F
:1009B000086820F400500860086840F08040086033
:1009C0000868072262F39C500860FFE74EF250006F
:1009D000C4F20F0000684006002801D4FFE7F5E7E5
:1009E0004EF27001C4F20F01086820F40060086044
:1009F00001B0704784B00290002001908DF8020091
:100A000002989DF80210405C8DF80300FFE79DF806
:100A1000030010B3FFE79DF8030030280FDBFFE76A
:100A20009DF8030039280ADCFFE7019800EB8001FC
:100A30009DF8030000EB41003038019002E001987E
:100A400003900DE002989DF8021001318DF802101C
:100A5000C9B2405C8DF80300D9E701980390FFE725
:100A6000039804B0704700004EF21001CEF200016E
:100A7000086820F00100086045F23800C4F2020066
:100A8000006840F26901C2F200010A7840F61C6178
:100A9000C0F20001895C08421DD0FFE740F264000B
:100AA000C2F20000006801384EF21401CEF20001DB
:100AB000086040F26900C2F20000017840F61C6054
:100AC000C0F20000425C45F23801C4F2020108683D
:100AD000904308601CE040F26000C2F20000006831
:100AE00001384EF21401CEF20001086040F26900B4
:100AF000C2F20000017840F61C60C0F20000425CC7
:100B000045F23801C4F20201086810430860FFE7AB
:100B10004EF21801CEF20001002008604EF21001E2
:100B2000CEF20001086840F0010008607047000044
:100B300080B582B04CF23C00C4F200000068C006F0
:100B400000285CD5FFE74CF21800C4F200000068F2
:100B5000C00600284CD4FFE74CF20000C4F20000AD
:100B600000688DF807009DF807000D2812D1FFE7F7
:100B700040F26A01C2F200010120087040F26B00ED
:100B8000C2F20000027840F26C01C2F200010020C3
:100B900088542CE040F26B00C2F20000007812286A
:100BA00024DCFFE79DF8070008280BD1FFE70820A9
:100BB00000F0BEF840F26B01C2F200010878013883
:100BC000087012E09DF8070040F26B03C2F20003C8
:100BD0001A78511C197040F26C01C2F2000188545D
:100BE0009DF8070000F0A4F8FFE7FFE7FFE7FFE745
:100BF0004CF24401C4F2000110200860FFE702B08B
:100C000080BD000081B08DF803008DF802104EF217
:100C10000411C4F20F01086840F0010008604EF2B0
:100C20000811C4F20F01086840F0010008604CF29E
:100C30003001C4F20001002008604CF22401C4F22B
:100C40000001362008604CF22801C4F20001102097
:100C500008604CF22C01C4F20001602008609DF88D
:100C600003009DF802100843C00760B3FFE74EF28F
:100C70000441CEF200010868052262F34F3008609B
:100C80004EF20011CEF20001202008609DF8030012
:100C9000C00748B1FFE74CF23801C4F20001086810
:100CA00040F010000860FFE79DF80200C00748B15F
:100CB000FFE74CF23801C4F20001086840F0200060
:100CC0000860FFE7FFE74CF23001C4F2000108685A
:100CD00040F201321043086044F22041C4F20001A6
:100CE000086840F00300086044F21C51C4F200019F
:100CF000086840F00300086044F22C51C4F200017F
:100D00000868112262F30700086044F22851C4F217
:100D10000001086820F00300086001B0704700007F
:100D200080B50D2000F004F80A2000F001F880BD25
:100D300081B08DF80300FFE74CF21800C4F2000008
:100D400000688006002801D5FFE7F5E79DF803005D
:100D50004CF20001C4F20001086001B070470000CD
:100D600080B582B00190FFE70198007840B1FFE7BD
:100D700001980078FFF7DCFF019801300190F3E75C
:100D800002B080BD80B584B0002002900390FFF7D0
:100D9000CFFAFFF7EDFD02990120FFF733FFFFF7D0
:100DA000ABFCFFF7C7FAFFE7FFF766FCFFE740F28F
:100DB0006A00C2F200000078C00718B9FFE7FFF729
:100DC000C2FAF4E740F26A01C2F2000100200870A2
:100DD00040F26B01C2F200010870FFF7A1FF40F280
:100DE0006C00C2F20000007801460191312808D061
:100DF000FFE70198322807D0FFE70198332806D093
:100E000008E0FFF739FD06E0FFF7AEFD03E0FFF76E
:100E1000ADFD00E0FFE7FFF783FFC5E70002080430
:100E20000A0C060E322E204D4355313C2D3E4D43CB
:100E3000553220436F6C6F7220576865656C2E20A9
:100E40000064286461726B292C7228726564292CF5
:100E50006728677265656E292C6228626C75652942
:100E60002C792879656C6C6F77292C632863726103
:100E70006E292C7028707572706C65292C77287714
:100E800068697465293A2000506C65617365206556
:100E90006E746572206120646563696D616C206E9B
:100EA000756D6265722066726F6D203020746F20E0
:100EB00031303020666F6C6C6F776564206279200A
:100EC000612072657475726E3A2000506C656173B2
:100ED000652073656C656374206120636F6C6F724D
:100EE0002066726F6D2074686520666F6C6C6F771A
:100EF000696E67206C6973743A2000506C65617389
:100F0000652063686F6F7365206120636F6D6D7519
:100F10006E69636174696F6E206D6F646520003166
:100F20002E2050433C2D3E4D435531204C4544200E
:100F3000436F6E74726F6C2000332E2050433C2D33
:100F40003E4D4355313C2D3E4D4355323C2D3E5098
:100F500043204368617420526F6F6D2000496E76A4
:100F6000616C696420496E7075742E20506C6561E7
:100F700073652074727920616761696E2000496E23
:100F800076616C696420496E7075742E20506C65B2
:100F90006173652074727920616761696E21005008
:100FA0006C656173652073656C65637420616E2088
:100FB0006F7074696F6E2066726F6D207468652043
:100FC000666F6C6C6F77696E67206C69737420282C
:100FD000656E7465722031206F722032206F72202E
:100FE00033290028506C656173652063686F6F73E7
:100FF000652066726F6D20312C2032202C33290041
:10100000322E204368616E676520746865206272C5
:10101000696768746E657373206F6620637572729A
:10102000656E74204C4544287329004D43553100AA
:1010300057656C636F6D6520746F20434543532083
:101040003434372050726F6A6563742032202D204B
:101050005541525400312E2043686F6F73652061F3
:101060006E204C454420636F6C6F7200332E204518
:10107000786974004D6F64652031204D656E750090
:101080004D61696E204D656E750000009C1000007A
:0C1090000000002080040000EC020000C2
:040000050000026D88
:00000001FF
