:020000040000FA
:10000000880400206D0200007102000073020000ED
:100010007502000077020000790200000000000075
:100020000000000000000000000000007B02000053
:100030007D020000000000007F0200006109000056
:10004000830200008302000083020000830200009C
:1000500083020000290A00008302000083020000DE
:10006000830200008302000083020000830200007C
:10007000830200008302000083020000830200006C
:10008000830200008302000083020000830200005C
:10009000830200008302000083020000830200004C
:1000A000830200008302000083020000830200003C
:1000B00083020000830200000504000083020000A8
:1000C000830200007D0C0000830200008302000018
:1000D000830200008302000083020000830200000C
:1000E00083020000830200008302000083020000FC
:1000F00083020000830200008302000083020000EC
:1001000083020000830200008302000083020000DB
:1001100083020000830200008302000083020000CB
:1001200083020000830200008302000083020000BB
:1001300083020000830200008302000083020000AB
:1001400000000000000000000000000000000000AF
:10015000830200008302000083020000830200008B
:10016000000000000000000000000000000000008F
:10017000000000000000000000000000000000007F
:10018000000000000000000000000000000000006F
:10019000000000000000000000000000000000005F
:1001A000000000000000000000000000000000004F
:1001B000830200008302000083020000830200002B
:1001C000830200008302000083020000830200001B
:1001D000830200008302000083020000830200000B
:1001E00083020000830200008302000083020000FB
:1001F00083020000830200008302000083020000EB
:10020000830200008302000083020000000000005F
:1002100083020000830200008302000083020000CA
:1002200083020000830200008302000083020000BA
:1002300083020000830200008302000083020000AA
:10024000830200008302000083020000830200009A
:10025000830200008302000083020000830200008A
:1002600083020000830200008302000000F00AB84D
:10027000FEE7FEE7FEE7FEE7FEE7FEE7FEE7FEE756
:10028000FEE7FEE700F002F800F042F814A696E858
:10029000000CB244B344DA4501D100F039F8BAE8B1
:1002A0000F000FA696E83000A5EB040504EB060747
:1002B000AAEB0704A7F101074FEA15154FEA34141A
:1002C000A4F10104AC4201D300F022F813F0010FB5
:1002D00018BFFB1A43F0010300F001F8DBE71847F1
:1002E000D00E0000E00E0000704700000023002444
:1002F00000250026103A28BF78C1FBD8520728BF36
:1003000030C148BF0B6070471FB51FBD10B510BD91
:1003100000F029F81146FFF7F7FF00F0A9FD00F003
:1003200047F803B4FFF7F2FF03BC00F04FF80000FA
:1003300072B6704762B67047EFF3108072B67047BE
:1003400080F31088704730BF704702480249014A65
:10035000024B70478800002088040020880000209D
:10036000704770477047754600F02CF8AE460500A0
:100370006946534620F00700854618B020B5FFF7C0
:10038000E4FFBDE820404FF000064FF000074FF0BB
:1003900000084FF0000BAC46ACE8C009ACE8C0095F
:1003A000ACE8C009ACE8C00921F007018D467047F0
:1003B00010B50446AFF300802046BDE81040FFF7BB
:1003C000B0BF00000048704700000020014918201D
:1003D000ABBEFEE726000200704700004EF210019F
:1003E000CEF20001086820F00100086070470000AC
:1003F0004EF21001CEF20001086840F001000860E2
:100400007047000080B582B000200190FFE701989E
:1004100043F67F01C0F20101884205D8FFE7FFE7FC
:10042000019801300190F2E745F21440C4F2020055
:100430000068C007B8B3FFE745F21C41C4F20201EF
:100440000120086040F26C00C2F20000007802282F
:1004500028D1FFE740F26000C2F2000000780130CE
:10046000082807DBFFE740F26001C2F2000100202C
:10047000087007E040F26001C2F200010878013024
:100480000870FFE740F26000C2F20000017840F619
:100490005470C0F20000405C45F23801C4F2020121
:1004A0000860FFE7FFE745F21440C4F2020000686D
:1004B000C00600281ED5FFE745F21C41C4F2020128
:1004C0001020086040F26C00C2F2000000780228A0
:1004D0000FD1FFE740F26000C2F20000017840F661
:1004E0005470C0F20000405C00F0AAFC00F0B2F9C9
:1004F000FFE7FFE702B080BD4EF20811C4F20F0122
:10050000086840F020000860FFE74EF20811C4F2CE
:100510000F01086800F02000086008B9FFE7F4E761
:1005200045F22051C4F2020144F24B30C4F64F4070
:10053000086045F22451C4F20201086840F01F002F
:10054000086045F20041C4F20201086840F00E0064
:100550000860086820F01100086045F22041C4F2EC
:100560000201086820F01F00086045F21C51C4F227
:100570000201086840F01F00086045F22C51C4F2E7
:10058000020108686FF31300086045F22851C4F2B5
:100590000201086820F01F00086045F21051C4F203
:1005A0000201086840F01100086045F20441C4F2FD
:1005B0000201086820F01100086045F20841C4F209
:1005C0000201086820F01100086045F20C41C4F2F5
:1005D0000201086840F01100086045F21C41C4F2B5
:1005E00002011120086045F21041C4F202010868BE
:1005F00040F0110008604EF21C41CEF20001086884
:10060000042262F3575008604EF20011CEF200014E
:10061000086840F0804008604EF21001CEF2000100
:10062000002008604EF21403CEF200036FF07F4208
:100630001A604EF21802CEF2000210604EF62052FE
:10064000CEF200021068022363F35F701060086846
:1006500040F00700086040F26400C2F2000044F27B
:1006600050610160016844F62060401A40F2680160
:10067000C2F200010860704782B045F23800C4F24F
:100680000200006800900E2822D80099DFE801F0EF
:1006900008200B2011201A200E20142017201D00E6
:1006A0000020019017E00120019014E00220019049
:1006B00011E0032001900EE0042001900BE00520E2
:1006C000019008E00620019005E00720019002E07B
:1006D00000200190FFE7019802B0704782B045F218
:1006E0003800C4F20200006800900E283AD8009941
:1006F000DFE801F008380E381A382C381438203862
:100700002638320041F2A700C0F2000001902FE02D
:1007100041F29100C0F20000019029E041F2B600E0
:10072000C0F20000019023E041F2A200C0F20000FC
:1007300001901DE041F2E100C0F20000019017E0DD
:1007400041F2B100C0F20000019011E041F29500C9
:10075000C0F2000001900BE041F29C00C0F20000EA
:10076000019005E041F2AC00C0F200000190FFE70B
:10077000019802B07047000080B500F04DFA41F2D8
:10078000BC00C0F2000000F067FA00F045FA41F248
:100790004E00C0F2000000F05FFA00F03DFA41F2B6
:1007A000A410C0F2000000F057FA00F035FA41F250
:1007B0004110C0F2000000F04FFA00F02DFA41F2B3
:1007C0002410C0F2000000F047FA00F025FA41F2D0
:1007D0005C10C0F2000000F03FFA00F01DFA40F695
:1007E0006C70C0F2000000F037FA00F015FA80BD1E
:1007F00080B5322000F024FBFFE700F03FF8FFE770
:1008000040F26D00C2F200000078C00718B9FFE79F
:10081000FFF799FDF4E740F26D01C2F200010020FC
:10082000087040F26E01C2F20001087040F26F00E1
:10083000C2F2000000785E280AD1FFE75E2000F0D7
:10084000FFFA40F26C01C2F2000100200870FFE7DD
:10085000D3E7000080B500F0DFF941F28710C0F265
:10086000000000F0F9F900F0D7F941F23200C0F2CF
:10087000000000F0F1F900F0CFF980BD80B500F084
:10088000CBF941F2E800C0F2000000F0E5F900F019
:10089000C3F941F20F10C0F2000000F0DDF900F0E2
:1008A000BBF940F6B570C0F2000000F0D5F900F0D9
:1008B000B3F941F25300C0F2000000F0CDF900F0AE
:1008C000ABF940F65C70C0F2000000F0C5F9FFF72C
:1008D00005FF00F0C1F900F09FF980BD81B04EF234
:1008E0007001C4F20F010091086840F000400860F8
:1008F000086840F4006008604EF26002C4F20F0223
:10090000106820F4F8601060106800F5A8601060AE
:10091000086820F07000086008680860086820F423
:1009200000500860086840F08040086008680722AE
:1009300062F39C500860FFE74EF25000C4F20F00D3
:1009400000684006002801D4FFE7F5E74EF2700189
:10095000C4F20F01086820F40060086001B070471D
:100960004EF21001CEF20001086820F0010008608C
:1009700045F23800C4F20200006840F26001C2F2A1
:1009800000010A7840F65471C0F20001895C084207
:100990001DD0FFE740F26800C2F200000068013895
:1009A0004EF21401CEF20001086040F26000C2F283
:1009B0000000017840F65470C0F20000425C45F23D
:1009C0003801C4F202010868904308601CE040F25C
:1009D0006400C2F20000006801384EF21401CEF249
:1009E0000001086040F26000C2F20000017840F6A9
:1009F0005470C0F20000425C45F23801C4F20201BA
:100A0000086810430860FFE74EF21801CEF20001BB
:100A1000002008604EF21001CEF20001086840F09C
:100A2000010008607047000080B582B04CF23C00C5
:100A3000C4F200000068C00600285CD5FFE74CF255
:100A40001800C4F200000068C00600284CD4FFE77C
:100A50004CF20000C4F2000000688DF807009DF819
:100A600007000D2812D1FFE740F26D01C2F200012C
:100A70000120087040F26E00C2F20000027840F2DD
:100A80006F01C2F20001002088542CE040F26E0099
:100A9000C2F200000078122824DCFFE79DF807006E
:100AA00008280BD1FFE7082000F0BEF840F26E01E5
:100AB000C2F2000108780138087012E09DF80700C2
:100AC00040F26E03C2F200031A78511C197040F212
:100AD0006F01C2F2000188549DF8070000F0A4F8ED
:100AE000FFE7FFE7FFE7FFE74CF24401C4F2000134
:100AF00010200860FFE702B080BD000081B08DF8D3
:100B000003008DF802104EF20411C4F20F010868C0
:100B100040F0010008604EF20811C4F20F010868AD
:100B200040F0010008604CF23001C4F200010020E6
:100B300008604CF22401C4F20001362008604CF237
:100B40002801C4F20001102008604CF22C01C4F20C
:100B50000001602008609DF803009DF80210084322
:100B6000C00760B3FFE74EF20441CEF2000108680F
:100B7000052262F34F3008604EF20011CEF2000100
:100B8000202008609DF80300C00748B1FFE74CF241
:100B90003801C4F20001086840F010000860FFE767
:100BA0009DF80200C00748B1FFE74CF23801C4F2DB
:100BB0000001086840F020000860FFE7FFE74CF202
:100BC0003001C4F20001086840F2013210430860AD
:100BD00044F22041C4F20001086840F003000860BC
:100BE00044F21C51C4F20001086840F003000860A0
:100BF00044F22C51C4F200010868112262F307008C
:100C0000086044F22851C4F20001086820F0030093
:100C1000086001B07047000080B50D2000F004F8B6
:100C20000A2000F001F880BD81B08DF80300FFE7D5
:100C30004CF21800C4F2000000688006002801D5BC
:100C4000FFE7F5E79DF803004CF20001C4F2000154
:100C5000086001B07047000080B582B00190FFE7E6
:100C60000198007840B1FFE701980078FFF7DCFFBA
:100C7000019801300190F3E702B080BD80B54EF2DB
:100C80003C00C4F200000068C00600282ED5FFE733
:100C90004EF21800C4F200000068C00600281ED4FE
:100CA000FFE740F26C00C2F200000078022815D184
:100CB000FFE74EF20000C4F200000068C0B245F247
:100CC0003801C4F202010860FFF7D6FC40F260016F
:100CD000C2F200010870FFF7D1FDFFE7FFE74EF217
:100CE0004401C4F2000110200860FFE780BD00004D
:100CF00081B08DF803008DF802104EF20411C4F299
:100D00000F01086840F0040008604EF20811C4F2B8
:100D10000F01086840F008000860FFE74EF2081075
:100D2000C4F20F0000680007002801D4FFE7F5E7D0
:100D30004EF23001C4F20001002008604EF224019E
:100D4000C4F20001512008604EF22801C4F20001F3
:100D5000182008604EF22C01C4F2000160200860E7
:100D60009DF80300C00748B1FFE74EF23801C4F216
:100D70000001086840F010000860FFE79DF80200DD
:100D8000C00748B1FFE74EF23801C4F2000108681D
:100D900040F020000860FFE74EF23001C4F200018D
:100DA000086840F20132104308609DF803009DF886
:100DB00002100843C00778B1FFE74EF22042CEF29E
:100DC00000021168022060F30F3111604EF204112D
:100DD000CEF200010860FFE747F22051C4F20001A3
:100DE00044F24B30C4F64F40086047F22451C4F23D
:100DF0000001086840F0FF00086047F22041C4F29B
:100E00000001086840F0C000086047F21C51C4F2BD
:100E10000001086840F0C000086047F22C51C4F29D
:100E200000010868112262F31F60086047F2285130
:100E3000C4F20001086820F0C000086001B07047EB
:100E400081B08DF80300FFE74EF21800C4F20000F5
:100E500000688006002801D5FFE7F5E79DF803004C
:100E60004EF20001C4F20001086001B070470000BA
:100E700080B586B0002004900590FFF759FAFFF77F
:100E80002DFD049901200390FFF738FE0398049983
:100E9000FFF72EFFFFF730FBFFF7A0FAFFF74AFA44
:100EA00040F26000C2F20000017840F65470C0F2D7
:100EB0000000405C45F23801C4F202010860FFE71F
:100EC000FFF75AFCFFE740F26D00C2F20000007825
:100ED000C00718B9FFE7FFF736FAF4E740F26D01F3
:100EE000C2F200010020087040F26E01C2F200015F
:100EF00001910870FFF790FE0198017840F26F00B1
:100F0000C2F20000405C01460291312804D0FFE7A4
:100F10000298322811D019E040F26C01C2F20001AF
:100F200001200870FFF764FA40F6A370C0F20000D9
:100F3000FFF792FEFFF770FE09E040F26C01C2F28B
:100F4000000102200870FFF753FCFFE7FFE7FFF7FF
:100F5000FAF9B5E7000208040A0C060E437572722E
:100F6000656E7420636F6C6F723A2000506C65611F
:100F700073652063686F6F7365206120636F6D6DAB
:100F8000756E69636174696F6E206D6F646520288A
:100F9000656E7465722031206F722032206F72206E
:100FA00033290057696C6C20416464204C6174657E
:100FB00072203A2900506C65617365207072657308
:100FC000732053573220746F20676F207468726FDC
:100FD0007567682074686520636F6C6F7273206931
:100FE0006E2074686520666F6C6C6F77696E672021
:100FF000636F6C6F7220776865656C3A204461722C
:101000006B2C205265642C20477265656E2C204243
:101010006C75652C2059656C6C6F772C2043796159
:101020006E2C20507572706C652C20576869746541
:101030002E0057616974696E6720666F7220636F56
:101040006C6F7220636F64652066726F6D204D4314
:101050005531004F6E6365206120636F6C6F7220A5
:1010600069732073656C65637465642C20707265A8
:1010700073732073773120746F2073656E642074EE
:10108000686520636F6C6F7220746F204D4355321A
:101090000052454400505552504C45005748495461
:1010A0004500424C5545004441524B004E554C4C76
:1010B000004359414E00475245454E0057656C6309
:1010C0006F6D6520746F20434543532034343720BF
:1010D00050726F6A6563742032202D20554152543E
:1010E0000059454C4C4F57004D6F64652032204DE0
:1010F0004355313A207072657373205E20746F20FF
:10110000657869742074686973206D6F646500493F
:101110006E20636F6C6F7220776865656C207374E6
:1011200061746500322E204D435531203C2D3E2008
:101130004D43553220436F6C6F7220576865656C64
:1011400000312E205043203C2D3E204D4355312070
:101150004C454420436F6E74726F6C00332E2050E8
:101160004331203C2D3E204D435531203C2D3E2027
:101170004D435532203C2D3E205043322043686180
:101180007420526F6F6D004D6F64652032204D43A7
:1011900055313A207072657373205E20746F20653C
:1011A000786974004D61696E204D656E75000000B0
:1011B000C01100000000002088040000EC020000C4
:040000050000026D88
:00000001FF
