:020000040000FA
:10000000600400206D020000710200007302000015
:100010007502000077020000790200000000000075
:100020000000000000000000000000007B02000053
:100030007D020000000000007F020000810200003D
:10004000830200008302000083020000830200009C
:10005000830200008302000083020000830200008C
:10006000830200008302000083020000830200007C
:10007000830200008302000083020000830200006C
:10008000830200008302000083020000830200005C
:10009000830200008302000083020000830200004C
:1000A000830200008302000083020000830200003C
:1000B000830200008302000083020000830200002C
:1000C000830200008302000083020000830200001C
:1000D000830200008302000083020000830200000C
:1000E00083020000830200008302000083020000FC
:1000F00083020000830200008302000083020000EC
:1001000083020000830200008302000083020000DB
:1001100083020000830200008302000083020000CB
:1001200083020000830200008302000083020000BB
:1001300083020000830200008302000083020000AB
:1001400000000000000000000000000000000000AF
:10015000830200008302000083020000830200008B
:10016000000000000000000000000000000000008F
:10017000000000000000000000000000000000007F
:10018000000000000000000000000000000000006F
:10019000000000000000000000000000000000005F
:1001A000000000000000000000000000000000004F
:1001B000830200008302000083020000830200002B
:1001C000830200008302000083020000830200001B
:1001D000830200008302000083020000830200000B
:1001E00083020000830200008302000083020000FB
:1001F00083020000830200008302000083020000EB
:10020000830200008302000083020000000000005F
:1002100083020000830200008302000083020000CA
:1002200083020000830200008302000083020000BA
:1002300083020000830200008302000083020000AA
:10024000830200008302000083020000830200009A
:10025000830200008302000083020000830200008A
:1002600083020000830200008302000000F00AB84D
:10027000FEE7FEE7FEE7FEE7FEE7FEE7FEE7FEE756
:10028000FEE7FEE700F002F800F042F814A696E858
:10029000000CB244B344DA4501D100F039F8BAE8B1
:1002A0000F000FA696E83000A5EB040504EB060747
:1002B000AAEB0704A7F101074FEA15154FEA34141A
:1002C000A4F10104AC4201D300F022F813F0010FB5
:1002D00018BFFB1A43F0010300F001F8DBE71847F1
:1002E00090060000A00600007047000000230024D4
:1002F00000250026103A28BF78C1FBD8520728BF36
:1003000030C148BF0B6070471FB51FBD10B510BD91
:1003100000F029F81146FFF7F7FF00F0F7F900F0B9
:1003200047F803B4FFF7F2FF03BC00F04FF80000FA
:1003300072B6704762B67047EFF3108072B67047BE
:1003400080F31088704730BF704702480249014A65
:10035000024B704760000020600400206000002015
:10036000704770477047754600F02CF8AE460500A0
:100370006946534620F00700854618B020B5FFF7C0
:10038000E4FFBDE820404FF000064FF000074FF0BB
:1003900000084FF0000BAC46ACE8C009ACE8C0095F
:1003A000ACE8C009ACE8C00921F007018D467047F0
:1003B00010B50446AFF300802046BDE81040FFF7BB
:1003C000B0BF00000048704700000020014918201D
:1003D000ABBEFEE72600020070470000FFE74DF2CB
:1003E0001800C4F200000068C006002801D5FFE72D
:1003F000F5E74DF20000C4F200000068C0B270479B
:1004000080B582B0019000208DF80300FFE7FFF770
:10041000E5FF01999DF8032088549DF80300013001
:100420008DF80300FFE701999DF80300084410F8D8
:10043000010C0A28EBD1FFE79DF8030002388DF884
:10044000030001999DF803200020885402B080BD6C
:100450004EF20411C4F20F01086840F00200086077
:100460004EF20811C4F20F01086840F00200086063
:100470004DF23001C4F20001086820F0010008606C
:100480004DF22402C4F200021A2010604DF228023C
:10049000C4F20002032010604DF22C02C4F20002EC
:1004A00070201060086840F201321043086045F285
:1004B0002041C4F20001086840F00300086045F2E2
:1004C0001C51C4F20001086840F00300086045F2C6
:1004D0002C51C4F200010868112262F30700086081
:1004E00045F22851C4F20001086820F003000860BA
:1004F0007047000081B08DF80300FFE74DF218004F
:10050000C4F2000000688006002801D5FFE7F5E787
:100510009DF803004DF20001C4F20001086001B033
:100520007047000080B582B00190FFE70198007825
:1005300040B1FFE701980078FFF7DCFF0198013038
:100540000190F3E702B080BDFFE74CF21800C4F25F
:1005500000000068C006002801D5FFE7F5E74CF26F
:100560000000C4F200000068C0B2704780B584B0DB
:100570000390ADF80A100020ADF80800FFF7E4FF83
:100580008DF80700FFE79DF807000D2834D0FFE73E
:100590009DF80700082811D1FFE7BDF8080060B1F9
:1005A000FFE7039801380390BDF808000138ADF863
:1005B0000800082000F080F8FFE718E0BDF8080008
:1005C000BDF80A10884211DAFFE79DF80700039989
:1005D0000870039801300390BDF808000130ADF8B1
:1005E00008009DF8070000F067F8FFE7FFE7FFF756
:1005F000ABFF8DF80700C6E7039900200870BDF82F
:10060000080004B080BD00004EF20411C4F20F01D6
:10061000086840F0010008604EF20811C4F20F01B2
:10062000086840F0010008604CF23001C4F200019B
:10063000086820F0010008604CF22400C4F20000B9
:10064000112202604CF22803C4F200031720186044
:100650004CF22C03C4F2000370201860086840F2CA
:1006600001331843086044F22041C4F200010868D5
:1006700040F00300086044F21C51C4F20001086815
:1006800040F00300086044F22C51C4F200010868F5
:1006900062F30700086044F22851C4F200010868C0
:1006A00020F003000860704780B50D2000F004F8CA
:1006B0000A2000F001F880BD81B08DF80300FFE74B
:1006C0004CF21800C4F2000000688006002801D532
:1006D000FFE7F5E79DF803004CF20001C4F20001CA
:1006E000086001B07047000080B582B00190FFE75C
:1006F0000198007840B1FFE701980078FFF7DCFF30
:10070000019801300190F3E702B080BD80B596B04A
:1007100000201590FFF778FFFFF79AFE40F2FF7078
:10072000C0F200000490FFF7DFFFFFF7BDFF40F6C7
:10073000F300C0F20000FFF7D7FFFFF7B5FF049802
:10074000FFF7D2FFFFF7B0FF40F63010C0F2000015
:10075000FFF7CAFFFFF7A8FF40F67900C0F20000DC
:10076000FFF7C2FFFFF7A0FF40F6B600C0F200009F
:10077000FFF7BAFFFFF798FF40F63C00C0F2000019
:10078000FFF7B2FFFFF790FF0498FFF7ADFFFFF709
:100790008BFFFFE70DA803901D21FFF7E7FE0398ED
:1007A000FFF7C0FE40F2FC70C0F20000FFF7BAFE97
:1007B000FFE74DF21800C4F20000006800070028AF
:1007C00001D5FFE7F5E7FFF76FFF05A80290FFF7F8
:1007D00017FE0298FFF788FF9DF93B003F280AD1DA
:1007E000FFE7FFF761FF05A80190FFF709FE0198F9
:1007F000FFF77AFFFFE7FFF757FFCBE70D0A002B64
:100800002D2D2D2D2D2D2D2D2D2D2D2D2D2D2D2D18
:100810002D2D2D2D2D2D2D2D2D2D2D2D2D2D2D2D08
:100820002D2D2D2D2D2D2D2D2D2D2D2D2D2D2D2DF8
:100830002D2D2D2D2D2D2D2D2D2D2B007C45786131
:100840006D706C653A2041542B4E414D453D4448F6
:100850002020202020202020202020202020202098
:100860002020202020202020202020202020202088
:10087000202020202020207C007C596F7520617270
:1008800065206174202741542720436F6D6D616E90
:1008900064204D6F6465202020202020202020200F
:1008A0002020202020202020202020202020202048
:1008B000202020207C007C5479706520274154271B
:1008C00020616E6420666F6C6C6F77656420776959
:1008D0007468206120636F6D6D616E64202020203C
:1008E0002020202020202020202020202020202008
:1008F000207C007C2057454C434F4D4520544F20D1
:10090000424C5545544F4F54482053455249414C51
:10091000205445524D494E414C202020202020207B
:10092000202020202020202020205E2D5E207C0002
:100930007C546869732069732074686520737461DE
:10094000727475702070726F6772616D20666F725D
:10095000207468652048432D303520426C756574DD
:100960006F6F7468206D6F64756C657C00000000AB
:10097000800900000000002060040000EC0200007C
:040000050000026D88
:00000001FF
