:020000040000FA
:10000000680400206D02000071020000730200000D
:100010007502000077020000790200000000000075
:100020000000000000000000000000007B02000053
:100030007D020000000000007F020000DD050000DE
:10004000830200008302000083020000830200009C
:10005000830200008302000083020000830200008C
:10006000830200008302000083020000830200007C
:10007000830200008302000083020000830200006C
:10008000830200008302000083020000830200005C
:10009000830200008302000083020000830200004C
:1000A000830200008302000083020000830200003C
:1000B0008302000083020000FD03000083020000B1
:1000C000830200008302000083020000830200001C
:1000D000830200008302000083020000830200000C
:1000E00083020000830200008302000083020000FC
:1000F00083020000830200008302000083020000EC
:1001000083020000830200008302000083020000DB
:1001100083020000830200008302000083020000CB
:1001200083020000830200008302000083020000BB
:1001300083020000830200008302000083020000AB
:1001400000000000000000000000000000000000AF
:10015000830200008302000083020000830200008B
:10016000000000000000000000000000000000008F
:10017000000000000000000000000000000000007F
:10018000000000000000000000000000000000006F
:10019000000000000000000000000000000000005F
:1001A000000000000000000000000000000000004F
:1001B000830200008302000083020000830200002B
:1001C000830200008302000083020000830200001B
:1001D000830200008302000083020000830200000B
:1001E00083020000830200008302000083020000FB
:1001F00083020000830200008302000083020000EB
:10020000830200008302000083020000000000005F
:1002100083020000830200008302000083020000CA
:1002200083020000830200008302000083020000BA
:1002300083020000830200008302000083020000AA
:10024000830200008302000083020000830200009A
:10025000830200008302000083020000830200008A
:1002600083020000830200008302000000F00AB84D
:10027000FEE7FEE7FEE7FEE7FEE7FEE7FEE7FEE756
:10028000FEE7FEE700F002F800F042F814A696E858
:10029000000CB244B344DA4501D100F039F8BAE8B1
:1002A0000F000FA696E83000A5EB040504EB060747
:1002B000AAEB0704A7F101074FEA15154FEA34141A
:1002C000A4F10104AC4201D300F022F813F0010FB5
:1002D00018BFFB1A43F0010300F001F8DBE71847F1
:1002E0008C0B00009C0B00007047000000230024D2
:1002F00000250026103A28BF78C1FBD8520728BF36
:1003000030C148BF0B6070471FB51FBD10B510BD91
:1003100000F029F81146FFF7F7FF00F0AFF900F001
:1003200047F803B4FFF7F2FF03BC00F04FF80000FA
:1003300072B6704762B67047EFF3108072B67047BE
:1003400080F31088704730BF704702480249014A65
:10035000024B7047680000206804002068000020FD
:10036000704770477047754600F02CF8AE460500A0
:100370006946534620F00700854618B020B5FFF7C0
:10038000E4FFBDE820404FF000064FF000074FF0BB
:1003900000084FF0000BAC46ACE8C009ACE8C0095F
:1003A000ACE8C009ACE8C00921F007018D467047F0
:1003B00010B50446AFF300802046BDE81040FFF7BB
:1003C000B0BF00000048704700000020014918201D
:1003D000ABBEFEE7260002007047000081B047F286
:1003E0005800C0F202000090FFE7009820B1FFE73C
:1003F000009801380090F8E701B0704780B545F2E9
:100400001440C4F202000068C006002811D5FFE7BE
:1004100045F21C41C4F202011020086000F028F9E6
:1004200018B1FFE700F0D2F902E000F0E3F9FFE7CE
:1004300008E045F21C41C4F202010120086000F00E
:1004400037F9FFE780BD00004EF20861C4F20F01EA
:10045000086840F001000860FFE74EF20860C4F24F
:100460000F000068C00708B9FFE7F6E744F2004153
:10047000C4F20001086840F00800086044F220411E
:10048000C4F20001086820F00800086044F21C5122
:10049000C4F20001086840F00800086044F22C51E2
:1004A000C4F20001086820F47040086044F228514A
:1004B000C4F20001086820F00800086070470000DE
:1004C0004EF20861C4F20F01086840F02000086095
:1004D000FFE74EF20860C4F20F00006800F0200051
:1004E000202801D0FFE7F4E745F22051C4F20201D1
:1004F00044F24B30C4F64F40086045F22451C4F238
:100500000201086840F01F00086045F20041C4F293
:100510000201086820F01100086045F22041C4F291
:100520000201086820F01100086045F21C51C4F275
:100530000201086840F01100086045F22C51C4F235
:100540000201086820F00F10086045F22851C4F23B
:100550000201086820F01100086045F21051C4F251
:100560000201086840F01100086045F20441C4F23D
:100570000201086820F01100086045F20841C4F249
:100580000201086820F01100086045F20C41C4F235
:100590000201086820F01100086045F21C41C4F215
:1005A00002011120086045F21041C4F202010868FE
:1005B00040F0110008604EF21C41CEF200010868C4
:1005C000022262F3575008604EF20011CEF2000191
:1005D000086840F0804008607047000044F2FC3139
:1005E000C4F20001086880F0080008604EF21801AB
:1005F000CEF2000100200860704700004EF21001AA
:10060000CEF20001002008604EF62052CEF2000229
:100610001068402363F31F601060086840F0060014
:100620000860704781B00090009801384EF21401C4
:10063000CEF2000108604EF21801CEF20001002057
:10064000086001B0704700004EF21001CEF20001C8
:10065000086840F001000860704700004EF2100189
:10066000CEF20001086820F0010008607047000029
:1006700040F26200C2F200000078704780B582B09C
:1006800000200190FFF754FEFFF7DEFEFFF7B6FFF4
:10069000FFF716FFFFF74EFEFFE7FFF7E9FF18B180
:1006A000FFE700F01DF802E0FFF74DFEFFE7F4E77B
:1006B00040F26001C2F200010878013045F2565262
:1006C000C5F25552A0FB023202EB4202801A0870BA
:1006D00040F26101C2F20001002008707047000082
:1006E00080B584B000208DF80F00FFE740F2610074
:1006F000C2F2000001780020FE29019007DCFFE72C
:10070000FFF7B6FF002818BF01200190FFE701980E
:10071000C007002858D0FFE740F26000C2F2000096
:100720000078C0EB002140F61E00C0F2000000EB94
:10073000410040F26101C2F20001097830F8110075
:10074000ADF80C009DF80C008DF80B009DF80B0027
:10075000FF2803D1FFE7FFF781FF0CE09DF80B10A6
:1007600040F61860C0F2000050F82100FFF75AFF71
:10077000FFF76AFFFFE700208DF80F00FFE79DF805
:100780000F009DF80D10884209DAFFE7FFF726FEFB
:10079000FFE79DF80F0001308DF80F00EFE740F202
:1007A0006101C2F200010878013008709DF80B0069
:1007B00048B9FFE7FFF752FF40F26101C2F20001C2
:1007C00000200870FFE791E704B080BD80B5FFF717
:1007D00045FF40F26201C2F200010020087040F2C1
:1007E0006001C2F20001087040F26101C2F2000132
:1007F000087080BD80B5FFF727FF40F26201C2F2AA
:1008000000010120087040F26001C2F200010020E6
:10081000087040F26101C2F20001087080BD090455
:100820000804070408040904090409080804080462
:10083000080809040B040B08090408040704080449
:10084000090409040908080408040904080407083D
:100850000000000000000000000000000000000098
:100860000000000000000000000000000000000088
:100870000000000000000000000000000000000078
:100880000000000000000000000000000000000068
:100890000000000000000000000000000000000058
:1008A0000000000000000000000000000000000048
:1008B0000000000000000000000000000000000038
:1008C0000000000000000000000000000000000028
:1008D0000000000000000000000000000000000018
:1008E0000000000000000000000000000000000008
:1008F00000000000000000000000000000000000F8
:1009000000000000000000000000000000000000E7
:1009100000000000000000000000000000000000D7
:1009200000000000000000000000000000000000C7
:1009300000000000000000000000000000000000B7
:1009400000000000000000000000000000000000A7
:100950000000000000000000000000000000000097
:100960000000000000000000000000000000000087
:100970000000000000000000000000000000000077
:100980000000000000000000000000000000000067
:100990000000000000000000000000000000000057
:1009A0000000000000000000000000000000000047
:1009B0000000000000000000000000000000000037
:1009C0000000000000000000000000000000000027
:1009D0000000000000000000000000000000000017
:1009E0000000000000000000000000000000000007
:1009F00000000000000000000000000000000000F7
:100A000000000000000000000000000000000000E6
:100A100000000000000000000000000007040704C0
:100A20000B040B040C040C040B080A040A0409044C
:100A300009040804080407080B040B040A040A0448
:100A40000904090408080B040B040A040A04090435
:100A500009040808070407040B040B040C040C0425
:100A60000B080A040A040904090408040804070816
:100A70000000000000000000000000000000000076
:100A80000000000000000000000000000000000066
:100A90000000000000000000000000000000000056
:100AA0000000000000000000000000000000000046
:100AB0000000000000000000000000000000000036
:100AC0000000000000000000000000000000000026
:100AD0000000000000000000000000000000000016
:100AE0000000000000000000000000000000000006
:100AF00000000000000000000000000000000000F6
:100B000000000000000000000000000000000000E5
:100B100000000000000000000000000000000000D5
:100B200000000000000000000000000000000000C5
:100B300000000000000000000000000000000000B5
:100B400000000000000000000000000000000000A5
:100B50000000000000000000000000000000000095
:100B60000000000000000000000000000000000085
:100B70000000000000000000000000000000000075
:100B80000000000000000000000000000000000065
:100B90000000000000000000000000000000000055
:100BA0000000000000000000000000000000000045
:100BB0000000000000000000000000000000000035
:100BC0000000000000000000000000000000000025
:100BD0000000000000000000000000000000000015
:100BE0000000000000000000000000000000000005
:100BF00000000000000000000000000000000000F5
:100C000000000000000000000000000000000000E4
:100C1000000000000000000000000B020B020C04AA
:100C20000B040E040D04FF040B020B020C040B0456
:100C30000F040E04FF040B020B02120410040E0436
:100C40000D040C08FF041102110210040E040F041D
:100C50000E0800000000000000000000000000007E
:100C60000000000000000000000000000000000084
:100C70000000000000000000000000000000000074
:100C80000000000000000000000000000000000064
:100C90000000000000000000000000000000000054
:100CA0000000000000000000000000000000000044
:100CB0000000000000000000000000000000000034
:100CC0000000000000000000000000000000000024
:100CD0000000000000000000000000000000000014
:100CE0000000000000000000000000000000000004
:100CF00000000000000000000000000000000000F4
:100D000000000000000000000000000000000000E3
:100D100000000000000000000000000000000000D3
:100D200000000000000000000000000000000000C3
:100D300000000000000000000000000000000000B3
:100D400000000000000000000000000000000000A3
:100D50000000000000000000000000000000000093
:100D60000000000000000000000000000000000083
:100D70000000000000000000000000000000000073
:100D80000000000000000000000000000000000063
:100D90000000000000000000000000000000000053
:100DA0000000000000000000000000000000000043
:100DB0000000000000000000000000000000000033
:100DC0000000000000000000000000000000000023
:100DD0000000000000000000000000000000000013
:100DE0000000000000000000000000000000000003
:100DF00000000000000000000000000000000000F3
:100E000000000000000000000000000000000000E2
:100E10000000000000000000467700004B6A000060
:100E2000B25E00008B590000B84F0000064700007A
:100E3000423F0000B93B000035350000672F00003D
:100E4000BE2C0000DC27000083230000A31F00004D
:100E5000DD1D00009A1A0000B31700005F160000A5
:100E6000EE130000C1110000D20F00007C0E000044
:0C0E70000000002068040000EC020000FC
:040000050000026D88
:00000001FF
